:10000000FBC0000029C1000027C1000025C100007D
:1000100023C1000021C100001FC100001DC100005C
:100020001BC1000019C1000017C1000015C100006C
:1000300013C1000011C100000FC100000DC100007C
:100040000BC1000009C1000007C1000005C100008C
:1000500003C1000001C10000FFC0000063C4000034
:10006000FBC0000029C40000FEC30000F5C0000072
:10007000F3C00000F1C00000EFC00000EDC00000C0
:10008000EBC00000E9C00000E7C00000E5C00000D0
:10009000E3C00000E1C00000DFC000008DC400002C
:1000A000DBC00000D9C00000D7C00000D5C00000F0
:1000B000D3C00000D1C00000CFC00000CDC0000000
:1000C000CBC00000C9C00000C7C00000C5C0000010
:1000D000C3C00000C1C0000090C3000065C30000A1
:1000E000BBC00000EB06EE06DD06E106E5062507CF
:1000F000F206F606FC06000704070A070E071207B9
:10010000250718071C0720070000220025002800EB
:100110002B002E003100340002010000050108010F
:100120000B0105050505070508080808020202027B
:100130000A0A080804040404010101010101010183
:100140000303030303030303040707070C0C0C0C4E
:100150000C0C0C0C02020202060606060606060637
:100160000B0B0B0B0B0B0B0B0102102020080810C4
:100170002040102040800201020108040201010217
:1001800004081020408080402010080402018004F0
:10019000020180402010080402010804020101024B
:1001A0000408102040800102040810204080000054
:1001B0000A0B02090C0D0E080703040100000000E1
:1001C000000000000000000000000000000000002F
:1001D00000000000000000000000121110000000EC
:1001E000000000000000000000000000000000000F
:1001F000000000006E0AEE0911241FBECFEFD1E20D
:10020000DEBFCDBF00E00CBF25E0ACE9B2E001C02D
:100210001D92A535B207E1F712E0A0E0B2E0E6ECEE
:10022000FBE100E00BBF02C007900D92AC39B107B3
:10023000D9F710E0CBEFD0E000E006C0219701092C
:10024000802FFE010E94B50BCA3FD10780E008074E
:10025000A9F78CD60C94D20DD3CE08950895FC0145
:10026000538D448D252F30E0842F90E0821B930B1B
:10027000541710F0CF96089501970895FC01918DC1
:10028000828D981761F0828DDF01A80FB11D5D96F8
:100290008C91928D9F5F9F73928F90E008958FEF66
:1002A0009FEF0895FC01918D828D981731F0828D1A
:1002B000E80FF11D858D90E008958FEF9FEF089571
:1002C000FC01918D228D892F90E0805C9F4F821BD5
:1002D00091098F739927089589E593E0F1DF21E073
:1002E000892B09F420E0822F089586EF93E0E8DF60
:1002F00021E0892B09F420E0822F0895FC01848DF0
:10030000DF01A80FB11DA35ABF4F2C91848D90E03F
:1003100001968F739927848FA689B7892C93A0891A
:10032000B1898C91837080648C93938D848D9813A4
:1003300006C00288F389E02D80818F7D8083089537
:10034000EF92FF920F931F93CF93DF93EC0181E025
:10035000888F9B8D8C8D981305C0E889F9898081E1
:1003600085FD25C0F62E0B8D10E00F5F1F4F0F731C
:100370001127E02E8C8DE8120BC00FB607FCFACFC8
:10038000E889F989808185FFF5CFCE01B7DFF2CF0B
:100390008B8DFE01E80FF11DE35AFF4FF0829FB7EE
:1003A000F8940B8FEA89FB89808180620AC09FB72D
:1003B000F894EE89FF896083E889F98980818370E8
:1003C000806480839FBF81E090E0DF91CF911F9197
:1003D0000F91FF90EF900895CF93DF93EC01888DFC
:1003E0008823C1F0EA89FB89808185FD05C0A88941
:1003F000B9898C9186FD0EC00FB607FCF5CF8081C0
:1004000085FFF2CFA889B9898C9185FFEDCFCE0108
:1004100075DFE8CFDF91CF91089580E090E0892BE0
:1004200019F063DF811120C080E090E0892B41F05A
:1004300080E090E0892B21F00E940000811117C01C
:1004400080E090E0892B41F080E090E0892B21F062
:100450000E94000081110EC080E090E0892B79F0AD
:100460003BDF81110AC008950E940000DDCF0E9489
:100470000000E6CF0E940000EFCF0C94000008952A
:100480003FB7F89480914A0390914B03A0914C039D
:10049000B0914D0326B5A89B05C02F3F19F00196DA
:1004A000A11DB11D3FBFBA2FA92F982F8827820FFA
:1004B000911DA11DB11DBC01CD0142E0660F771F4A
:1004C000881F991F4A95D1F708958F929F92AF92F6
:1004D000BF92CF92DF92EF92FF926B017C01D0DF4F
:1004E0004B015C01C114D104E104F104E9F0C8DF5F
:1004F000DC01CB0188199909AA09BB09883E934000
:10050000A105B10578F321E0C21AD108E108F1088C
:1005100088EE880E83E0981EA11CB11CC114D10482
:10052000E104F10421F7DECFFF90EF90DF90CF9050
:10053000BF90AF909F908F90089585ED8093BC0001
:100540008091BC0084FDFCCF10925403089540912B
:10055000FE02262F30E0240F311D21323105DCF45C
:10056000209154032430C9F4FC0180E090E0861708
:1005700058F43091FE022191DC01A252BD4FA30F2D
:10058000B11D2C930196F3CF8091FE02680F60930A
:10059000FE0280E0089581E0089582E008950895C4
:1005A000E091580380915703E81730F4F0E0E254EB
:1005B000FD4F808190E008958FEF9FEF0895909117
:1005C000580380915703981750F4E92FF0E0E25454
:1005D000FD4F208130E09F5F9093580302C02FEFC2
:1005E0003FEFC90108958091570390E0209158038F
:1005F000821B91090895CF92DF92EF92FF920F93A1
:100600001F93CF93DF937C01CB018A012091BD0220
:10061000222389F0EB016B01C40ED51ECC15DD053C
:1006200061F06991D701ED91FC910190F081E02D8D
:10063000C7011995F3CF642F8ADFC801DF91CF91ED
:100640001F910F91FF90EF90DF90CF900895CF937F
:10065000DF931F92CDB7DEB769832091BD022223BD
:10066000D1F020915503203240F021E030E0FC0130
:100670003383228380E090E014C080915603E82FFA
:10068000F0E0E356FD4F998190838F5F809356038E
:100690008093550304C061E0CE01019658DF81E0EC
:1006A00090E00F90DF91CF910895CF93FC01C4812A
:1006B00021E02093BD02C0939C0210925603109239
:1006C00055038385682B83E994E0C1DF909155033E
:1006D000913208F045C0809154038111FCCF82E033
:1006E0008093540381E0809353038FEF8093210321
:1006F0001092430390934203ADE9B2E0E2E2F3E0EB
:1007000080E0981721F02D9121938F5FFACF1092FE
:10071000440380914403CC0FC82BC09344038091C1
:100720005203813061F4109252038091440380930C
:10073000BB008091BC0083FDF8CF85EC01C085EE45
:100740008093BC00809154038230E1F380912103B7
:100750008F3F31F080912103803211F0809121038D
:1007600010925603109255031092BD02CF91089536
:100770000F931F93CF938C01C62F97DF6C2F64606C
:10078000C80193DF6C2F6B7FC8018FDF83EC90E093
:100790000197F1F7CF911F910F910895089580E08F
:1007A00090E008950E94BE0D1F920F920FB60F9217
:1007B00011240BB60F922F933F934F935F936F9338
:1007C0007F938F939F93AF93BF93EF93FF9389E5AD
:1007D00093E094DDFF91EF91BF91AF919F918F9145
:1007E0007F916F915F914F913F912F910F900BBE31
:1007F0000F900FBE0F901F9018951F920F920FB67B
:100800000F9211240BB60F922F938F939F93EF9318
:10081000FF93E0916903F0916A038081E0916F0397
:10082000F091700382FD12C09081809172038F5FFE
:100830008F7320917303821751F0E0917203F0E0FF
:10084000E75AFC4F958F8093720301C08081FF911E
:10085000EF919F918F912F910F900BBE0F900FBE34
:100860000F901F9018951F920F920FB60F921124A0
:100870000BB60F922F933F934F935F936F937F939A
:100880008F939F93AF93BF93EF93FF9386EF93E084
:1008900035DDFF91EF91BF91AF919F918F917F9146
:1008A0006F915F914F913F912F910F900BBE0F90E1
:1008B0000FBE0F901F9018951F920F920FB60F92B8
:1008C00011240BB60F922F938F939F93EF93FF9367
:1008D000E0910604F09107048081E0910C04F0910E
:1008E0000D0482FD12C0908180910F048F5F8F7381
:1008F00020911004821751F0E0910F04F0E0EA50CB
:10090000FC4F958F80930F0401C08081FF91EF9180
:100910009F918F912F910F900BBE0F900FBE0F9054
:100920001F9018951F920F920FB60F9211242F93BC
:100930003F938F939F93AF93BF9380914603909182
:100940004703A0914803B09149033091450323E048
:10095000230F2D3720F40196A11DB11D05C026E8F7
:10096000230F0296A11DB11D2093450380934603DA
:1009700090934703A0934803B093490380914A039F
:1009800090914B03A0914C03B0914D030196A11D92
:10099000B11D80934A0390934B03A0934C03B093F3
:1009A0004D03BF91AF919F918F913F912F910F90E8
:1009B0000FBE0F901F9018951F920F920FB60F92B7
:1009C00011240BB60F922F933F934F935F936F9326
:1009D0007F938F939F93AF93BF93EF93FF938091F8
:1009E000B900887F803609F49CC068F5883209F424
:1009F0005BC090F4803109F454C038F4882309F4C2
:100A0000F6C0883009F44DC0F5C0883109F44CC0F7
:100A1000803209F45DC0EEC0803409F468C048F447
:100A2000803309F455C0883309F0E4C08093210372
:100A3000D8C0803509F44FC0883509F45DC08834CA
:100A400009F0D8C0D6C0883909F4C7C0A8F48837DF
:100A500009F467C038F4883609F463C0803709F4B4
:100A600060C0C8C0883809F4B8C0803909F45FC0D4
:100A7000803809F0BFC05BC0803B09F486C038F401
:100A8000803A09F466C0883A09F47FC0B3C0803C5C
:100A900009F4A7C0883C09F4A4C0883B09F48AC0C3
:100AA000A9C08091440310C09091430380914203F8
:100AB000981770F5E091430381E08E0F8093430314
:100AC000F0E0EE5DFC4F80818093BB0085EC86C03A
:100AD000809321038EC0E091430381E08E0F8093C9
:100AE00043038091BB00F0E0EE5DFC4F808390916A
:100AF0004303809142036EC0E091430381E08E0F77
:100B0000809343038091BB00F0E0EE5DFC4F808357
:100B10008091530381116DC081E08093520384EA78
:100B200061C083E08093540310922003CFCF809163
:100B30002003803208F051C0E091200381E08E0F45
:100B4000809320038091BB00F0E0E050FD4F808354
:100B5000BDCF85EC8093BC0010925403809120039C
:100B6000803230F4E0912003F0E0E050FD4F10823D
:100B70006091200370E0E0914E03F0914F0380E01C
:100B800093E019951092200335C084E080935403BC
:100B90001092FF021092FE02E0915003F091510377
:100BA00019958091FE02811105C081E08093FE02BB
:100BB0001092DE02E091FF0281E08E0F8093FF022F
:100BC000F0E0E252FD4F80818093BB009091FF02E4
:100BD0008091FE02981708F479CF85E88093BC00D5
:100BE00009C085EC8093BC001092540303C010929E
:100BF0002103A3DCFF91EF91BF91AF919F918F9162
:100C00007F916F915F914F913F912F910F900BBE0C
:100C10000F900FBE0F901F9018950F931F93CF93B7
:100C2000DF938C01C62FD42F607F642BA1DD80E180
:100C3000C89FB00111246D2BC801DF91CF911F9186
:100C40000F9196CD41E0E9DF81E090E00895DB016E
:100C500014964D915C9115976D917C91DC01ED910D
:100C6000FC910280F381E02D1994CF92DF92EF92F4
:100C7000FF920F931F93CF93DF936C017A018B0147
:100C8000C0E0D0E0CE15DF0581F0D8016D918D0177
:100C9000D601ED91FC910190F081E02DC6011995EE
:100CA000892B11F02196EECF7E01C701DF91CF9104
:100CB0001F910F91FF90EF90DF90CF900895FC016E
:100CC000A089B18982E08C93A485B5851C92A68504
:100CD000B78580E18C93108EA489B58986E08C93CA
:100CE000A289B3898C9180618C93A289B3898C91FC
:100CF00088608C93A289B3898C9180688C930288D8
:100D0000F389E02D80818F7D80830895CF93DF93D9
:100D1000CDB7DEB728970FB6F894DEBF0FBECDBFB4
:100D200098E0E6E0F2E0DE01119601900D929A95CE
:100D3000E1F790914D05961710F46FEF690FFE01E2
:100D40003196E60FF11DE60FF11D6081680F6068B6
:100D500040E085E495E028960FB6F894DEBF0FBE1C
:100D6000CDBFDF91CF9159CF40E061E085E495E0C0
:100D700054DF8BE39FE10197F1F7089590E0FC01C8
:100D8000E255FE4F4491FC01E859FE4F2491FC01CD
:100D9000EE5DFE4F9491992309F465C0442309F454
:100DA00054C050E0FA013197E231F10508F04DC02E
:100DB0008827EE58FF4F8F4FD8C4809180008F77DF
:100DC00007C0809180008F7D03C080918000877F65
:100DD000809380003AC084B58F7702C084B58F7D40
:100DE00084BD33C08091B0008F7703C08091B00084
:100DF0008F7D8093B00029C0809190008F7707C0CD
:100E0000809190008F7D03C080919000877F8093B8
:100E100090001BC08091A0008F7707C08091A00038
:100E20008F7D03C08091A000877F8093A0000DC0BC
:100E3000809120018F7707C0809120018F7D03C0B2
:100E400080912001877F80932001E92FF0E0EE0F51
:100E5000FF1FE85FFE4FA591B4918FB7F894EC9116
:100E6000E22BEC938FBF0895DC01ED91FC91019092
:100E7000F081E02D19946115710579F0FB01019065
:100E80000020E9F73197AF01461B570BDC01ED91CC
:100E9000FC910280F381E02D199480E090E00895A8
:100EA000CF93DF93BC0186EF93E0D1DEEC0161E5E7
:100EB00072E086EF93E0DFDF8C0F9D1FDF91CF9113
:100EC0000895EF92FF920F931F93CF93DF938C01BE
:100ED0004BDF60E080E01ADF8EE1809FE001819FC0
:100EE000D00D1124CE0185559B4F7C01BC0185E4BA
:100EF00095E0ADDEC701D4DF61E080E007DFCE0121
:100F00008F549B4F7C01BC0185E495E0A0DEC701B6
:100F1000C7DF62E080E0FADECE0189549B4F7C019E
:100F2000BC0185E495E093DEC701BADF63E080E0B1
:100F3000EDDEC354DB4FBE0185E495E088DECE01D3
:100F4000AFDFE1E4F5E080819181909344058093E7
:100F500043051183008362E572E086EF93E0DF9141
:100F6000CF911F910F91FF90EF9085CFCF93DF939B
:100F7000CDB7DEB7A1970FB6F894DEBF0FBECDBFD9
:100F8000789484B5826084BD84B5816084BD85B564
:100F9000826085BD85B5816085BD80916E00816070
:100FA00080936E0010928100809181008260809316
:100FB0008100809181008160809381008091800018
:100FC0008160809380008091B10084608093B10043
:100FD0008091B00081608093B00080919100826028
:100FE0008093910080919100816080939100809125
:100FF00090008160809390008091A1008260809336
:10100000A1008091A10081608093A1008091A00047
:1010100081608093A00080912101826080932101F2
:101020008091210181608093210180912001816064
:101030008093200180917A00846080937A0080916F
:101040007A00826080937A0080917A008160809338
:101050007A0080917A00806880937A001092C100B3
:101060001092580310925703109256031092550392
:101070001092540381E0809353031092520384E151
:101080007DDE85E17BDE8091B9008E7F8093B900A3
:101090008091B9008D7F8093B90088E48093B80077
:1010A00085E48093BC008DE291E09093510380939E
:1010B00050038EE291E090934F0380934E03109281
:1010C0004A0580914F05823018F098E090934A05C8
:1010D00080934D0562E370E080E090E0F6D9609186
:1010E000500585E495E0E1DA68EE73E080E090E099
:1010F000ECD960E385E495E03BDB0BE416E4C80142
:101100000197F1F760E385E495E032DBC8010197D0
:10111000F1F760E385E495E02BDB83E592E001974E
:10112000F1F760E285E495E023DB60914A056062B7
:1011300040E085E495E071DD84E080934B0540E07C
:101140006CE085E495E069DD0FDE82E080934C057C
:1011500040E066E085E495E060DD40E062E085E443
:1011600095E05BDD8BE39FE10197F1F788E08093E9
:10117000500560E085E495E098DAF6DD86EF93E0CF
:101180009EDD64EF71E080E090E09FD96EE372E055
:1011900086EF93E070DE61E572E086EF93E06BDE50
:1011A00089E593E08CDD64EF71E080E090E08DD91B
:1011B00064E572E089E593E05EDE80E090E081DE48
:1011C00060E088E0A3DD60914B05862F816080930D
:1011D0004B05696040E085E495E01FDD44E6F42EB0
:1011E0005AE0852E912CA12CB12C89E593E068D88A
:1011F000892B09F4D6C089E593E040D88093A904EF
:10120000682F85E495E030DE6091A90486EF93E0D5
:101210002BDE8091A90420ED280F2B3014F029EC4F
:10122000280F2093AA0480919F049091A004A0917C
:10123000A104B091A20434E0880F991FAA1FBB1F1C
:101240003A95D1F72F70822B9927AA27BB27809335
:101250009F049093A004A093A104B093A2048B3A9E
:101260009105A105B10509F09CC081E090E029DE5F
:1012700060E08FE04BDD89E593E000D890ED980FBA
:101280009B3014F099EC980F9093A50489E593E0B6
:101290000E943E0190ED980F9B3014F099EC980F4E
:1012A0009093A60489E593E00E943E0190ED980F8B
:1012B0009B3014F099EC980F9093A7043091A504FB
:1012C0002091A604220F822F880F880F280F3F9DA0
:1012D000200D1124290F2093A80430E040E050E0B5
:1012E00019A28E010F5D1F4FCA01B901A50194011A
:1012F0001AD2605DF80162938F0121153105410515
:10130000510591F7BF0185E495E0B5DD8091A30417
:101310009091A404892B09F044C01091A80416FFF1
:1013200007C061E083E0F2DC6CE785E495E09CDDDA
:1013300015FF07C061E086E0E9DC6CE785E495E035
:1013400093DD14FF08C062E081E0E0DC67E572E055
:1013500085E495E090DD13FF08C062E084E0D6DC10
:1013600067E572E085E495E086DD12FF08C062E083
:1013700087E0CCDC67E572E085E495E07CDD11FF79
:1013800007C063E083E0C2DC6CE785E495E06CDDD8
:1013900010FF07C063E086E0B9DC6CE785E495E008
:1013A00063DD86EF93E00E946001892BA9F086EF50
:1013B00093E00E943E018093A904682F86EF93E09A
:1013C0000E94A0016091A90489E593E04DDD609140
:1013D000A90485E495E048DD20D807CFCF93DF93BB
:1013E000C1E4D5E06E978A899B895FD28C859D8503
:1013F0005CD28E819F8159D28881998156D284E0B6
:10140000CB3AD80779F7DF91CF910895EF92FF9209
:101410000F931F93CF93DF93EC017B018A018881A7
:101420009981009729F02A813B8124173507E8F438
:10143000B8016F5F7F4FC2D2009759F099838883BC
:101440001B830A832C813D81232B79F4FC011082BC
:101450000CC088819981009709F027D219821882DF
:101460001D821C821B821A8206C01D830C83B70159
:101470008881998190D3CE01DF91CF911F910F91F7
:10148000FF90EF900895FC01118210821382128266
:101490001582148240E050E063E572E0B7CFCF934D
:1014A000DF93EC016115710551F0FB010190002003
:1014B000E9F73197AF01461B570BA8DF0BC08881B6
:1014C0009981009709F0F1D1198218821D821C823E
:1014D0001B821A82CE01DF91CF9108950F931F9343
:1014E000CF93DF9310925C0310925B0388EE93E03E
:1014F000A0E0B0E080935D0390935E03A0935F0350
:10150000B093600322E132E030935A0320935903F1
:1015100045E351E0509366034093650344E351E093
:10152000509368034093670340E351E050936A038C
:101530004093690341E351E050936C0340936B0384
:1015400042E351E050936E0340936D0346E351E054
:101550005093700340936F031092720310927303C1
:1015600010927403109275031092F9031092F8030D
:101570008093FA039093FB03A093FC03B093FD03C5
:101580003093F7032093F60325EC30E03093030407
:101590002093020424EC30E03093050420930404EB
:1015A00020EC30E0309307042093060421EC30E077
:1015B000309309042093080422EC30E030930B04AC
:1015C00020930A0426EC30E030930D0420930C04A1
:1015D00010920F0410921004109211041092120431
:1015E0001092960410929504809397049093980417
:1015F000A0939904B0939A0484E292E090939404A7
:1016000080939304109248051092470586E392E078
:10161000909346058093450587E28093490584E1D0
:1016200080934E0584E080934F0510925005CBEADD
:10163000D4E001E415E0CE0126DFCE01069623DFDB
:10164000CE010C9620DFCE0142961DDF6E960C1760
:101650001D0789F71092C8041092C70481E090E03A
:101660009093E6048093E50482E090E09093040573
:101670008093030583E090E09093220580932105F9
:1016800084E090E09093400580933F056AE572E026
:101690008BEA94E004DF6AE672E081EB94E0FFDE1F
:1016A00065E772E087EB94E0FADE6AE672E08DEBC4
:1016B00094E0F5DE88E090E09093C4048093C30446
:1016C0001092C6041092C50460E872E089EC94E0C0
:1016D000E6DE61E972E08FEC94E0E1DE61E972E060
:1016E00085ED94E0DCDE61E972E08BED94E0D7DE1D
:1016F0008CE090E09093C4048093C3041092C604DD
:101700001092C50410929F041092A0041092A1049C
:101710001092A2041092A9041092AA04DF91CF9112
:101720001F910F910895A1E21A2EAA1BBB1BFD0168
:101730000DC0AA1FBB1FEE1FFF1FA217B307E407B0
:10174000F50720F0A21BB30BE40BF50B661F771F08
:10175000881F991F1A9469F76095709580959095E8
:101760009B01AC01BD01CF010895EE0FFF1F881F43
:101770008BBF0790F691E02D19940F931F93CF9391
:10178000DF938230910510F482E090E0E091530500
:10179000F091540520E030E0A0E0B0E0309719F17E
:1017A000408151810281138148175907C8F084177D
:1017B000950769F4109731F012960C9312971396CF
:1017C0001C9327C0009353051093540522C0211584
:1017D000310519F04217530718F49A01BD01EF01C2
:1017E000DF01F801DBCF21153105F9F0281B390B9A
:1017F0002430310580F48A819B816115710521F0C7
:10180000FB019383828304C0909354058093530516
:10181000FE01329644C0FE01E20FF31F81939193C3
:1018200022503109398328833AC0209151053091E3
:101830005205232B41F42091020230910302309390
:10184000520520935105209100023091010221158B
:10185000310541F42DB73EB7409104025091050285
:10186000241B350BE0915105F0915205E217F30767
:10187000A0F42E1B3F0B2817390778F0AC014E5F00
:101880005F4F2417350748F04E0F5F1F50935205E6
:10189000409351058193919302C0E0E0F0E0CF01C5
:1018A000DF91CF911F910F910895CF93DF93009710
:1018B00009F481C0FC01329713821282A091530572
:1018C000B0915405109781F420813181820F931FCC
:1018D00020915105309152052817390751F5F093A1
:1018E0005205E093510567C0ED0120E030E0CE17CE
:1018F000DF0740F44A815B819E0141155105F1F0FB
:10190000EA01F5CFD383C28340815181840F951FB3
:10191000C817D90759F488819981840F951F0296B9
:10192000918380838A819B819383828321153105F2
:1019300029F4F0935405E09353053DC0E901FB837E
:10194000EA8349915991C40FD51FEC17FD0761F443
:1019500080819181840F951F0296E9019983888384
:10196000828193819B838A83E0E0F0E012968D91DF
:101970009C911397009719F0FD01DC01F7CF8D9131
:101980009C9111979D012E5F3F4F820F931F2091D5
:101990005105309152052817390769F4309729F419
:1019A000109254051092530502C013821282B09314
:1019B0005205A0935105DF91CF9108956F927F92C8
:1019C0008F929F92AF92BF92CF92DF92EF92FF924F
:1019D0000F931F93CF93DF93009781F4CB01DF9197
:1019E000CF911F910F91FF90EF90DF90CF90BF901C
:1019F000AF909F908F907F906F90BFCEFC01E60FCD
:101A0000F71F9C0122503109E217F30708F4A5C023
:101A1000EC01D9010D911C91119706171707A8F039
:101A20000530110508F497C0C80104978617970779
:101A300008F491C002501109061B170B0193119372
:101A40006D937C93CF0131DF86C05B01A01AB10A90
:101A50004C01800E911EA0915305B0915405612C4C
:101A6000712CE12CF12C109709F446C08D919C91BA
:101A70001197A815B905B1F56C0142E0C40ED11C4F
:101A8000CA14DB0478F14C018A189B08640142E017
:101A9000C40ED11C1296BC9012971396AC91B5E06F
:101AA000CB16D10440F0B282A38391828082D90107
:101AB0006D937C9309C00E5F1F4F800F911FF9013A
:101AC00091838083EB2DFA2FE114F10431F0D701DB
:101AD0001396FC93EE9312973EC0F0935405E09357
:101AE000530539C06816790608F43C017D01129649
:101AF0000D90BC91A02DB7CF8091510590915205CA
:101B000088169906E1F466167706C8F480910002FB
:101B100090910102009741F48DB79EB74091040265
:101B200050910502841B950BE817F907B0F4F09368
:101B30005205E0935105F901718360830CC0CB011C
:101B40001CDE7C01009749F0A801BE011BD0CE012C
:101B5000ACDEC70104C0CE0102C080E090E0DF919E
:101B6000CF911F910F91FF90EF90DF90CF90BF909A
:101B7000AF909F908F907F906F90089581E090E05C
:101B8000F89410C0FB01DC0102C001900D9241509D
:101B90005040D8F70895FB01DC0101900D92002020
:101BA000E1F7089510E0CBEFD0E000E005C0802F12
:101BB000FE01DBDD2196011DCC3FD10780E0080747
:061BC000B1F7F894FFCF1D
:101BC600000055058000000040001400540000008D
:101BD6000000A00135062F01EC0160013E01520113
:101BE600000000002703FB02CF03CF02F302DF024F
:101BF600D0020000000022063506CF03CE03436F55
:101C06006E6E656374696F6E205374617274656479
:101C1600000D0A004154002D2D0053656E642041CD
:101C2600543A20202020202020007C20207C2020C8
:101C36007C20207C007C2D2D202D2D202D2D7C0020
:101C46005265636965766564206D617A653A202020
:0C1C5600007C20202020202020207C008A
:00000001FF
