:1000000015C1000043C1000041C100003FC1000014
:100010003DC100003BC1000039C1000037C10000F4
:1000200035C1000000C60000FEC50000FCC5000090
:100030002DC100002BC1000029C1000027C1000014
:1000400025C1000023C1000021C100001FC1000024
:100050001DC100001BC1000019C100009AC50000AD
:1000600015C10000E3C40000B8C400000FC10000C7
:100070000DC100000BC1000009C1000007C1000054
:1000800005C1000003C1000001C10000FFC0000065
:10009000FDC00000FBC00000F9C000005CC600000D
:1000A000F5C00000F3C00000F1C00000EFC0000088
:1000B000EDC00000EBC00000E9C00000E7C0000098
:1000C000E5C00000E3C00000E1C00000DFC00000A8
:1000D000DDC00000DBC000004AC400001FC40000F7
:1000E000D5C000007A057D056C0570057405B40562
:1000F000810585058B058F05930599059D05A1054E
:10010000B405A705AB05AF0500000A0B02090C0DED
:100110000E080703040100000000000000000000BA
:1001200000000000000000000000000000000000CF
:10013000000000001211100000000000000000008C
:1001400000000000000000000000000000000000AF
:1001500020002300260029002C002F00320000017F
:10016000000003010601090100002100240027000E
:100170002A002D00300033000101000004010701B6
:100180000A0100002200250028002B002E0031006B
:10019000340002010000050108010B0105050505F9
:1001A000070508080808020202020A0A08080404EF
:1001B000040401010101010101010303030303031D
:1001C0000303040707070C0C0C0C0C0C0C0C0202AC
:1001D000020206060606060606060B0B0B0B0B0BA9
:1001E0000B0B010210202008081020401020408036
:1001F00002010201080402010102040810204080EB
:100200008040201008040201800402018040201078
:1002100008040201080402010102040810204080C1
:100220000102040810204080A40A280A11241FBEDD
:10023000CFEFD1E2DEBFCDBF00E00CBF25E0A8E9E3
:10024000B2E001C01D92A639B207E1F712E0A0E0CA
:10025000B2E0E4E1FDE100E00BBF02C007900D92C7
:10026000A839B107D9F711E0C5E1D1E000E006C037
:1002700021970109802FFE010E94480CC431D1074B
:1002800080E00807A9F73ED70C94790EB9CE0895FF
:100290000895FC01538D448D252F30E0842F90E08C
:1002A000821B930B541710F0CF9608950197089571
:1002B000FC01918D828D981761F0828DDF01A80F6E
:1002C000B11D5D968C91928D9F5F9F73928F90E090
:1002D00008958FEF9FEF0895FC01918D828D9817FF
:1002E00031F0828DE80FF11D858D90E008958FEF3C
:1002F0009FEF0895FC01918D228D892F90E0805C05
:100300009F4F821B91098F73992708958BE993E082
:10031000F1DF21E0892B09F420E0822F089588E3A2
:1003200094E0E8DF21E0892B09F420E0822F089592
:10033000FC01848DDF01A80FB11DA35ABF4F2C9182
:10034000848D90E001968F739927848FA689B78951
:100350002C93A089B1898C91837080648C93938D48
:10036000848D981306C00288F389E02D80818F7DEB
:1003700080830895EF92FF920F931F93CF93DF93A3
:10038000EC0181E0888F9B8D8C8D981305C0E889E6
:10039000F989808185FD25C0F62E0B8D10E00F5F59
:1003A0001F4F0F731127E02E8C8DE8120BC00FB674
:1003B00007FCFACFE889F989808185FFF5CFCE0166
:1003C000B7DFF2CF8B8DFE01E80FF11DE35AFF4F2F
:1003D000F0829FB7F8940B8FEA89FB898081806255
:1003E0000AC09FB7F894EE89FF896083E889F9898C
:1003F00080818370806480839FBF81E090E0DF9183
:10040000CF911F910F91FF90EF900895CF93DF93BD
:10041000EC01888D8823C1F0EA89FB89808185FD04
:1004200005C0A889B9898C9186FD0EC00FB607FC5E
:10043000F5CF808185FFF2CFA889B9898C9185FF9E
:10044000EDCFCE0175DFE8CFDF91CF91089580E049
:1004500090E0892B19F063DF811120C080E090E0EB
:10046000892B41F080E090E0892B21F00E94000070
:10047000811117C080E090E0892B41F080E090E08E
:10048000892B21F00E94000081110EC080E090E0D5
:10049000892B79F03BDF81110AC008950E9400008A
:1004A000DDCF0E940000E6CF0E940000EFCF0C9449
:1004B000000008953FB7F89480918A0390918B03D0
:1004C000A0918C03B0918D0326B5A89B05C02F3F4A
:1004D00019F00196A11DB11D3FBFBA2FA92F982F6A
:1004E0008827820F911DA11DB11DBC01CD0142E0E5
:1004F000660F771F881F991F4A95D1F708958F922D
:100500009F92AF92BF92CF92DF92EF92FF926B01D8
:100510007C01D0DF4B015C01C114D104E104F10482
:10052000E9F0C8DFDC01CB0188199909AA09BB09E8
:10053000883E9340A105B10578F321E0C21AD108A5
:10054000E108F10888EE880E83E0981EA11CB11C1A
:10055000C114D104E104F10421F7DECFFF90EF9044
:10056000DF90CF90BF90AF909F908F900895209193
:100570008303309184032817390771F49091820323
:1005800080918103981741F0E0918203F0E0EF5BE6
:10059000FC4F808190E008958FEF9FEF08950895BC
:1005A0001F93CF93DF93DC015C968D919C915D97B7
:1005B000009739F421E030E013963C932E93129784
:1005C0003BC05196ED91FC91529750962C915097CB
:1005D000322F30951FB75E964C915E97742F7270D4
:1005E00041FD6095F8944081772311F0422B01C0C2
:1005F00043234083EC012197F1F748E0508160FFED
:1006000002C0522B01C053235083EC012197F1F714
:100610006695415099F78081772319F08323808371
:1006200002C0282B20831FBF5C968D919C915D9703
:100630000197F1F781E090E0DF91CF911F9108954C
:1006400020918303309184032817390769F480913E
:1006500081032091820390E0805C9F4F821B91096F
:1006600060E470E00C94350C80E090E008952091F7
:1006700083033091840328173907B9F490918203DA
:1006800080918103981789F0E0918203F0E0EF5B9D
:10069000FC4F80812091820330E02F5F3F4F2F730A
:1006A00033272093820390E008958FEF9FEF089502
:1006B00085ED8093BC008091BC0084FDFCCF10923E
:1006C000940308954091D802262F30E0240F311D65
:1006D00021323105DCF4209194032430C9F4FC016B
:1006E00080E090E0861758F43091D8022191DC0127
:1006F000A854BD4FA30FB11D2C930196F3CF809149
:10070000D802680F6093D80280E0089581E00895D0
:1007100082E00895E091980380919703E81730F400
:10072000F0E0E856FD4F808190E008958FEF9FEF55
:1007300008959091980380919703981750F4E92FAA
:10074000F0E0E856FD4F208130E09F5F90939803E2
:1007500002C02FEF3FEFC90108958091970390E009
:1007600020919803821B91090895CF92DF92EF9216
:10077000FF920F931F93CF93DF937C01CB018A01EC
:1007800020911F03222389F0EB016B01C40ED51EBB
:10079000CC15DD0561F06991D701ED91FC910190D7
:1007A000F081E02DC7011995F3CF642F8BDFC801CD
:1007B000DF91CF911F910F91FF90EF90DF90CF903D
:1007C0000895CF93DF931F92CDB7DEB76983209151
:1007D0001F032223D1F020919503203240F021E025
:1007E00030E0FC013383228380E090E014C08091EC
:1007F0009603E82FF0E0E05EFC4F998190838F5FD5
:10080000809396038093950304C061E0CE01019626
:1008100059DF81E090E00F90DF91CF910895CF9361
:10082000FC01C48121E020931F03C0934003109278
:100830009603109295038385682B85ED94E0C1DFC4
:1008400090919503913208F045C0809194038111F5
:10085000FCCF82E08093940381E0809393038FEF39
:1008600080931E0310921D0390931C03A0E2B3E03B
:10087000ECEFF2E080E0981721F02D9121938F5F4B
:10088000FACF1092FB028091FB02CC0FC82BC093D1
:10089000FB0280919203813061F410929203809167
:1008A000FB028093BB008091BC0083FDF8CF85ECF8
:1008B00001C085EE8093BC00809194038230E1F307
:1008C00080911E038F3F31F080911E03803211F022
:1008D00080911E03109296031092950310921F03AD
:1008E000CF9108950F931F93CF938C01C62F97DF5D
:1008F0006C2F6460C80193DF6C2F6B7FC8018FDFA2
:1009000083EC90E00197F1F7CF911F910F9108953B
:10091000089580E090E008950E94650E1F920F9266
:100920000FB60F9211240BB60F922F933F934F9354
:100930005F936F937F938F939F93AF93BF93EF9347
:10094000FF938BE993E0F4DCFF91EF91BF91AF91BE
:100950009F918F917F916F915F914F913F912F91D7
:100960000F900BBE0F900FBE0F901F9018951F9207
:100970000F920FB60F9211240BB60F922F938F93F5
:100980009F93EF93FF93E091AB03F091AC038081D1
:10099000E091B103F091B20382FD12C09081809189
:1009A000B4038F5F8F732091B503821751F0E091EC
:1009B000B403F0E0E556FC4F958F8093B40301C07B
:1009C0008081FF91EF919F918F912F910F900BBE9E
:1009D0000F900FBE0F901F9018951F920F920FB699
:1009E0000F9211240BB60F922F933F934F935F9367
:1009F0006F937F938F939F93AF93BF93EF93FF93E7
:100A000088E394E095DCFF91EF91BF91AF919F91C6
:100A10008F917F916F915F914F913F912F910F90A7
:100A20000BBE0F900FBE0F901F9018951F920F9244
:100A30000FB60F9211240BB60F922F938F939F93A3
:100A4000EF93FF93E0914804F09149048081E09195
:100A50004E04F0914F0482FD12C0908180915104A8
:100A60008F5F8F7320915204821751F0E0915104EF
:100A7000F0E0E85CFB4F958F8093510401C08081CA
:100A8000FF91EF919F918F912F910F900BBE0F903F
:100A90000FBE0F901F901895362F90E0FC01E85F75
:100AA000FE4F4491FC01EE51FE4F2491FC01E456AF
:100AB000FE4F9491992309F46BC0442309F454C068
:100AC00050E0FA013197E231F10508F04DC0882776
:100AD000EE58FF4F8F4FDCC6809180008F7707C0A4
:100AE000809180008F7D03C080918000877F8093FC
:100AF00080003AC084B58F7702C084B58F7D84BDF5
:100B000033C08091B0008F7703C08091B0008F7D9B
:100B10008093B00029C0809190008F7707C08091AA
:100B200090008F7D03C080919000877F809390001C
:100B30001BC08091A0008F7707C08091A0008F7D9F
:100B400003C08091A000877F8093A0000DC080919A
:100B500020018F7707C0809120018F7D03C0809195
:100B60002001877F80932001E92FF0E0EE0FFF1F27
:100B7000EE57FE4FA591B4919FB7F894311104C080
:100B80008C912095282302C0EC912E2B2C939FBF93
:100B900008951F920F920FB60F9211242F933F9337
:100BA0008F939F93AF93BF93809186039091870318
:100BB000A0918803B09189033091850323E0230F2E
:100BC0002D3720F40196A11DB11D05C026E8230F85
:100BD0000296A11DB11D20938503809386039093F7
:100BE0008703A0938803B093890380918A0390912F
:100BF0008B03A0918C03B0918D030196A11DB11DB3
:100C000080938A0390938B03A0938C03B0938D03FE
:100C1000BF91AF919F918F913F912F910F900FBEF8
:100C20000F901F9018951F920F920FB60F921124DC
:100C30000BB60F922F933F934F935F936F937F93D6
:100C40008F939F93AF93BF93EF93FF93E0918303B1
:100C5000F0918403309709F451C0968DA685B7852D
:100C6000858591FF04C09C91892329F447C09C91FC
:100C7000892309F043C0A389B4899C918589809513
:100C800089238C93868997890197F1F7608D718DFF
:100C9000A685B785558538E020E0CB010197F1F7AF
:100CA000822F90E095958795282F4C91452309F048
:100CB0002068315091F7868D81FD209580918103C8
:100CC00090E001968F73992730918203381749F08D
:100CD000A0918103B0E0AF5BBC4F2C938093810364
:100CE00003C0868D8160868F828D938D0197F1F789
:100CF000A389B4899C918589892B8C93FF91EF916D
:100D0000BF91AF919F918F917F916F915F914F9123
:100D10003F912F910F900BBE0F900FBE0F901F9021
:100D200018950F931F93CF93DF938C01C62FD42F69
:100D3000607F642BD7DD80E1C89FB00111246D2B4B
:100D4000C801DF91CF911F910F91CCCD41E0E9DF38
:100D500081E090E008951F920F920FB60F92112438
:100D60000BB60F922F933F934F935F936F937F93A5
:100D70008F939F93AF93BF93EF93FF938091B900AD
:100D8000887F803609F49CC068F5883209F45BC01E
:100D900090F4803109F454C038F4882309F4F6C083
:100DA000883009F44DC0F5C0883109F44CC0803258
:100DB00009F45DC0EEC0803409F468C048F48033A3
:100DC00009F455C0883309F0E4C080931E03D8C0ED
:100DD000803509F44FC0883509F45DC0883409F0C6
:100DE000D8C0D6C0883909F4C7C0A8F4883709F438
:100DF00067C038F4883609F463C0803709F460C0EE
:100E0000C8C0883809F4B8C0803909F45FC0803898
:100E100009F0BFC05BC0803B09F486C038F4803A5B
:100E200009F466C0883A09F47FC0B3C0803C09F475
:100E3000A7C0883C09F4A4C0883B09F48AC0A9C0B3
:100E40008091FB0210C090911D0380911C039817A4
:100E500070F5E0911D0381E08E0F80931D03F0E09B
:100E6000E450FD4F80818093BB0085EC86C0809369
:100E70001E038EC0E0911D0381E08E0F80931D0341
:100E80008091BB00F0E0E450FD4F808390911D0302
:100E900080911C036EC0E0911D0381E08E0F809352
:100EA0001D038091BB00F0E0E450FD4F80838091F2
:100EB000930381116DC081E08093920384EA61C045
:100EC00083E0809394031092FA02CFCF8091FA02CC
:100ED000803208F051C0E091FA0281E08E0F8093D9
:100EE000FA028091BB00F0E0E652FD4F8083BDCF57
:100EF00085EC8093BC00109294038091FA028032BA
:100F000030F4E091FA02F0E0E652FD4F1082609179
:100F1000FA0270E0E0918E03F0918F038AED92E087
:100F200019951092FA0235C084E0809394031092D0
:100F3000D9021092D802E0919003F0919103199593
:100F40008091D802811105C081E08093D80210926F
:100F5000B802E091D90281E08E0F8093D902F0E0CF
:100F6000E854FD4F80818093BB009091D90280911D
:100F7000D802981708F479CF85E88093BC0009C09F
:100F800085EC8093BC001092940303C010921E0362
:100F90008FDBFF91EF91BF91AF919F918F917F91E7
:100FA0006F915F914F913F912F910F900BBE0F90DA
:100FB0000FBE0F901F901895CF92DF92EF92FF9285
:100FC0000F931F93CF93DF936C017A018B01C0E0E5
:100FD000D0E0CE15DF0581F0D8016D918D01D601ED
:100FE000ED91FC910190F081E02DC6011995892BBE
:100FF00011F02196EECF7E01C701DF91CF911F91B5
:101000000F91FF90EF90DF90CF900895FC01A089A1
:10101000B18982E08C93A485B5851C92A685B7859D
:1010200080E18C93108EA489B58986E08C93A28987
:10103000B3898C9180618C93A289B3898C918860EB
:101040008C93A289B3898C9180688C930288F389F0
:10105000E02D80818F7D808308958CC9FC014481BF
:1010600055816081718187E695E0A6CFCF93DF93AC
:10107000CDB7DEB728970FB6F894DEBF0FBECDBF51
:1010800098E0E6E0F2E0DE01119601900D929A956B
:10109000E1F790916F05981710F48FEF890FFE011B
:1010A0003196E80FF11DE80FF11D6081606840E0A6
:1010B00087E695E028960FB6F894DEBF0FBECDBF49
:1010C000DF91CF912ECE40E061E087E695E029DE0A
:1010D0008BE39FE10197F1F708956115710579F0B0
:1010E000FB0101900020E9F73197AF01461B570B38
:1010F000DC01ED91FC910280F381E02D199480E0F8
:1011000090E00895789484B5826084BD84B5816050
:1011100084BD85B5826085BD85B5816085BD8091C2
:101120006E00816080936E0010928100809181003A
:101130008260809381008091810081608093810032
:10114000809180008160809380008091B1008460F4
:101150008093B1008091B00081608093B000809155
:1011600091008260809391008091910081608093D2
:101170009100809190008160809390008091A10007
:1011800082608093A1008091A10081608093A10082
:101190008091A00081608093A000809121018260F5
:1011A00080932101809121018160809321018091B0
:1011B000200181608093200180917A008460809377
:1011C0007A0080917A00826080937A0080917A0020
:1011D000816080937A0080917A00806880937A00A1
:1011E0001092C100109298031092970310929603E8
:1011F000109295031092940381E0809393031092D0
:10120000920361E084E148DC61E085E145DC8091A6
:10121000B9008E7F8093B9008091B9008D7F809353
:10122000B90088E48093B80085E48093BC0087E42B
:1012300091E0909391038093900388E491E09093E0
:101240008F0380938E0310926C058091710582301C
:1012500018F098E090936C0580936F0562E370E05E
:1012600080E090E04CD96091720587E695E0D7DA8E
:1012700068EE73E080E090E042D960E387E695E0B5
:1012800031DBCBE4D6E4CE010197F1F760E387E6EA
:1012900095E028DB2197F1F760E387E695E022DB14
:1012A00083E592E00197F1F760E287E695E01ADBCB
:1012B00060916C05606240E087E695E032DD84E095
:1012C00080936D0540E06CE087E695E02ADDFBDE6B
:1012D00082E080936E0540E066E087E695E021DDE0
:1012E00040E062E087E695E01CDD8BE39FE101973B
:1012F000F1F788E08093720560E087E695E08FDA89
:10130000E2DE60916D05862F816080936D056960D6
:1013100040E087E695E005DD88E394E077DE64EF62
:1013200071E080E090E0EBD860E572E088E394E063
:10133000D4DE63E672E088E394E0CFDE8BE993E0ED
:1013400065DE64EF71E080E090E0D9D866E672E097
:101350008BE993E0C2DE69E672E087E695E0BDDEE8
:101360008BE993E00E947A01892B81F08BE993E06D
:101370000E945801C82F682F880F770B88E394E0EC
:101380006CDE41E06C2F87E695E0CBDC68EB7BE020
:1013900080E090E0B4D897DE80E068DE81EE94E0F3
:1013A0005DDE81E063DE87EE94E058DE82E05EDEA3
:1013B0008DEE94E053DE83E059DE83EF94E04EDE61
:1013C000809163059091640590936605809365050F
:1013D000109264051092630588E394E00E947A01FC
:1013E000892BB9F088E394E00E945801C82F8093BC
:1013F0009A03082F880F110BB80188E394E02DDEC3
:10140000B8018BE993E029DE41E06C2F87E695E097
:1014100088DC8BE993E00E947A01892B91F08BE9BB
:1014200093E00E945801C82F80939903682F880F7A
:10143000770B88E394E011DE41E06C2F87E695E0BE
:1014400070DC61E070E080E090E059D800D8C4CF53
:10145000CF93DF93C3E6D5E06A978A899B89CCD284
:101460008C859D85C9D28E819F81C6D288819981C4
:10147000C3D284E0C13ED80779F782E492E090932A
:10148000740580937305809183039091840383573F
:10149000954071F4E0918605F091870590818091E7
:1014A000880580958923808310928403109283039A
:1014B000DF91CF910895EF92FF920F931F93CF93F7
:1014C000DF93EC017B018A0188819981009729F0E3
:1014D0002A813B8124173507E8F4B8016F5F7F4FFD
:1014E00014D3009759F0998388831B830A832C8136
:1014F0003D81232B79F4FC0110820CC088819981F5
:10150000009709F079D2198218821D821C821B82F1
:101510001A8206C01D830C83B70188819981E2D3AA
:10152000CE01DF91CF911F910F91FF90EF90089521
:10153000FC0111821082138212821582148240E013
:1015400050E065E672E0B7CF0F931F93CF93DF9320
:1015500010929E0310929D0388EE93E0A0E0B0E00D
:1015600080939F039093A003A093A103B093A20341
:1015700022E132E030939C0320939B0345E351E04A
:101580005093A8034093A70344E351E05093AA0368
:101590004093A90340E351E05093AC034093AB0365
:1015A00041E351E05093AE034093AD0342E351E079
:1015B0005093B0034093AF0346E351E05093B2031E
:1015C0004093B1031092B4031092B5031092B60386
:1015D0001092B70310923B0410923A0480933C049B
:1015E00090933D04A0933E04B0933F04309339049C
:1015F0002093380425EC30E03093450420934404D4
:1016000024EC30E0309347042093460420EC30E093
:10161000309349042093480421EC30E030934B048C
:1016200020934A0422EC30E030934D0420934C0484
:1016300026EC30E030934F0420934E041092510476
:101640001092520410925304109254041092D80431
:101650001092D7048093D9049093DA04A093DB040A
:10166000B093DC0424E232E03093D6042093D50416
:101670001092760510927505809377059093780502
:10168000A0937905B0937A0582E492E09093740573
:101690008093730510928A051092890510928C052B
:1016A00010928B0510928E0510928D051092900568
:1016B00010928F05609191056E7F6D7F609391050B
:1016C0006695617081E06827E7D9E3EEF1E0249147
:1016D000EDE9F1E08491882399F090E0880F991F5B
:1016E000FC01E859FE4FA591B491FC01EE57FE4F65
:1016F000859194918FB7F894EC91E22BEC938FBF86
:10170000E3EEF1E0E491E0938305EDE9F1E0E491AB
:10171000F0E0EE0FFF1FEE57FE4F859194919093EE
:1017200085058093840502EE11E0F8012491CCE94F
:10173000D1E0FE0184918823C9F090E0880F991FC1
:10174000FC01E859FE4FA591B491FC01EE57FE4F04
:10175000459154913FB7F8949C91822F809598239E
:101760009C93FA019081892380833FBF80919105EA
:1017700081FD03C061E080E08FD910927F05F80100
:10178000049100938005FE01C491EC2FF0E0EE0F70
:10179000FF1FE25BFE4F85919491909382058093A9
:1017A000810510926A051092690586E392E0909394
:1017B00068058093670587E280936B0584E18093D9
:1017C000700584E08093710510927205C1EED4E03B
:1017D00003E615E0CE01ACDECE010696A9DECE0111
:1017E0000C96A6DECE014296A3DE6A960C171D0764
:1017F00089F71092FA041092F90481E090E0909336
:1018000014058093130582E090E090932E05809359
:101810002D0583E090E0909348058093470584E090
:1018200090E090936205809361054EE050E062E79E
:1018300072E081EE94E03FDE4AE050E061E872E061
:1018400087EE94E038DE4AE050E06CE872E08DEE1E
:1018500094E031DE4AE050E061E872E083EF94E02A
:10186000DF91CF911F910F9126CE97FB072E16F493
:10187000009406D077FD08D013D007FC05D03EF4C5
:10188000909581959F4F0895709561957F4F08952C
:10189000EE0FFF1F881F8BBF0790F691E02D199464
:1018A000AA1BBB1B51E107C0AA1FBB1FA617B70786
:1018B00010F0A61BB70B881F991F5A95A9F78095A2
:1018C0009095BC01CD0108950F931F93CF93DF93A3
:1018D0008230910510F482E090E0E0919405F0915F
:1018E000950520E030E0A0E0B0E0309719F14081AC
:1018F00051810281138148175907C8F08417950751
:1019000069F4109731F012960C93129713961C936A
:1019100027C0009394051093950522C02115310529
:1019200019F04217530718F49A01BD01EF01DF01C6
:10193000F801DBCF21153105F9F0281B390B2430D4
:10194000310580F48A819B816115710521F0FB01CD
:101950009383828304C09093950580939405FE0140
:10196000329644C0FE01E20FF31F819391932250FF
:101970003109398328833AC020919205309193052B
:10198000232B41F4209102023091030230939305FE
:10199000209392052091000230910102211531051A
:1019A00041F42DB73EB74091040250910502241B2B
:1019B000350BE0919205F0919305E217F307A0F43F
:1019C0002E1B3F0B2817390778F0AC014E5F5F4F95
:1019D0002417350748F04E0F5F1F5093930540932F
:1019E00092058193919302C0E0E0F0E0CF01DF9196
:1019F000CF911F910F910895CF93DF93009709F432
:101A000081C0FC01329713821282A0919405B0919B
:101A10009505109781F420813181820F931F2091C9
:101A20009205309193052817390751F5F0939305E6
:101A3000E093920567C0ED0120E030E0CE17DF07AC
:101A400040F44A815B819E0141155105F1F0EA01A4
:101A5000F5CFD383C28340815181840F951FC8176E
:101A6000D90759F488819981840F951F0296918333
:101A700080838A819B81938382832115310529F498
:101A8000F0939505E09394053DC0E901FB83EA835B
:101A900049915991C40FD51FEC17FD0761F480815E
:101AA0009181840F951F0296E90199838883828131
:101AB00093819B838A83E0E0F0E012968D919C9164
:101AC0001397009719F0FD01DC01F7CF8D919C91E0
:101AD00011979D012E5F3F4F820F931F209192051A
:101AE000309193052817390769F4309729F410923B
:101AF00095051092940502C013821282B09393054B
:101B0000A0939205DF91CF9108956F927F928F926B
:101B10009F92AF92BF92CF92DF92EF92FF920F937C
:101B20001F93CF93DF93009781F4CB01DF91CF9187
:101B30001F910F91FF90EF90DF90CF90BF90AF90EB
:101B40009F908F907F906F90BFCEFC01E60FF71FA4
:101B50009C0122503109E217F30708F4A5C0EC01FB
:101B6000D9010D911C91119706171707A8F00530A0
:101B7000110508F497C0C80104978617970708F461
:101B800091C002501109061B170B019311936D931D
:101B90007C93CF0131DF86C05B01A01AB10A4C01F2
:101BA000800E911EA0919405B0919505612C712C29
:101BB000E12CF12C109709F446C08D919C9111975E
:101BC000A815B905B1F56C0142E0C40ED11CCA14C8
:101BD000DB0478F14C018A189B08640142E0C40ED2
:101BE000D11C1296BC9012971396AC91B5E0CB160F
:101BF000D10440F0B282A38391828082D9016D9397
:101C00007C9309C00E5F1F4F800F911FF9019183D4
:101C10008083EB2DFA2FE114F10431F0D7011396F4
:101C2000FC93EE9312973EC0F0939505E0939405D4
:101C300039C06816790608F43C017D0112960D90B2
:101C4000BC91A02DB7CF80919205909193058816F5
:101C50009906E1F466167706C8F480910002909127
:101C60000102009741F48DB79EB740910402509154
:101C70000502841B950BE817F907B0F4F093930560
:101C8000E0939205F901718360830CC0CB011CDEE7
:101C90007C01009749F0A801BE011BD0CE01ACDE4B
:101CA000C70104C0CE0102C080E090E0DF91CF9177
:101CB0001F910F91FF90EF90DF90CF90BF90AF906A
:101CC0009F908F907F906F90089581E090E0F894BE
:101CD00010C0FB01DC0102C001900D924150504048
:101CE000D8F70895FB01DC0101900D920020E1F787
:101CF000089511E0C5E1D1E000E005C0802FFE01AC
:101D0000C7DD2196011DC631D10780E00807B1F774
:041D1000F894FFCF75
:101D140000009605800000004000140054000000FC
:101D24000000BA01DC07490106027A0158016C017E
:101D340000000000E103B5038904CF02AD03990359
:101D44008A0300000000A606DC078904880400005A
:101D54000000D002DC078904CF0220033703B70256
:101D6400436F6E6E656374696F6E20537461727431
:101D74006564000D0A004154005465737420415495
:101D84003A005265636965766564206D617A653AE7
:101D9400007C20207C20207C20207C007C2D2D2099
:081DA4002D2D202D2D7C0000E7
:00000001FF
