:1000000015C1000043C1000041C100003FC1000014
:100010003DC100003BC1000039C1000037C10000F4
:1000200035C1000000C60000FEC50000FCC5000090
:100030002DC100002BC1000029C1000027C1000014
:1000400025C1000023C1000021C100001FC1000024
:100050001DC100001BC1000019C100009AC50000AD
:1000600015C10000E3C40000B8C400000FC10000C7
:100070000DC100000BC1000009C1000007C1000054
:1000800005C1000003C1000001C10000FFC0000065
:10009000FDC00000FBC00000F9C000005CC600000D
:1000A000F5C00000F3C00000F1C00000EFC0000088
:1000B000EDC00000EBC00000E9C00000E7C0000098
:1000C000E5C00000E3C00000E1C00000DFC00000A8
:1000D000DDC00000DBC000004AC400001FC40000F7
:1000E000D5C000007A057D056C0570057405B40562
:1000F000810585058B058F05930599059D05A1054E
:10010000B405A705AB05AF0500000A0B02090C0DED
:100110000E080703040100000000000000000000BA
:1001200000000000000000000000000000000000CF
:10013000000000001211100000000000000000008C
:1001400000000000000000000000000000000000AF
:1001500020002300260029002C002F00320000017F
:10016000000003010601090100002100240027000E
:100170002A002D00300033000101000004010701B6
:100180000A0100002200250028002B002E0031006B
:10019000340002010000050108010B0105050505F9
:1001A000070508080808020202020A0A08080404EF
:1001B000040401010101010101010303030303031D
:1001C0000303040707070C0C0C0C0C0C0C0C0202AC
:1001D000020206060606060606060B0B0B0B0B0BA9
:1001E0000B0B010210202008081020401020408036
:1001F00002010201080402010102040810204080EB
:100200008040201008040201800402018040201078
:1002100008040201080402010102040810204080C1
:1002200001020408102040801A0B7F0A11241FBE0F
:10023000CFEFD1E2DEBFCDBF00E00CBF25E0ACEADE
:10024000B2E001C01D92A03CB207E1F712E0A0E0CD
:10025000B2E0E8E1FEE100E00BBF02C007900D92C2
:10026000AC3AB107D9F711E0C5E1D1E000E006C032
:1002700021970109802FFE010E94CA0CC431D107C9
:1002800080E00807A9F7A7D70C94FB0EB9CE089514
:100290000895FC01538D448D252F30E0842F90E08C
:1002A000821B930B541710F0CF9608950197089571
:1002B000FC01918D828D981761F0828DDF01A80F6E
:1002C000B11D5D968C91928D9F5F9F73928F90E090
:1002D00008958FEF9FEF0895FC01918D828D9817FF
:1002E00031F0828DE80FF11D858D90E008958FEF3C
:1002F0009FEF0895FC01918D228D892F90E0805C05
:100300009F4F821B91098F739927089581EB93E08A
:10031000F1DF21E0892B09F420E0822F08958EE49B
:1003200094E0E8DF21E0892B09F420E0822F089592
:10033000FC01848DDF01A80FB11DA35ABF4F2C9182
:10034000848D90E001968F739927848FA689B78951
:100350002C93A089B1898C91837080648C93938D48
:10036000848D981306C00288F389E02D80818F7DEB
:1003700080830895EF92FF920F931F93CF93DF93A3
:10038000EC0181E0888F9B8D8C8D981305C0E889E6
:10039000F989808185FD25C0F62E0B8D10E00F5F59
:1003A0001F4F0F731127E02E8C8DE8120BC00FB674
:1003B00007FCFACFE889F989808185FFF5CFCE0166
:1003C000B7DFF2CF8B8DFE01E80FF11DE35AFF4F2F
:1003D000F0829FB7F8940B8FEA89FB898081806255
:1003E0000AC09FB7F894EE89FF896083E889F9898C
:1003F00080818370806480839FBF81E090E0DF9183
:10040000CF911F910F91FF90EF900895CF93DF93BD
:10041000EC01888D8823C1F0EA89FB89808185FD04
:1004200005C0A889B9898C9186FD0EC00FB607FC5E
:10043000F5CF808185FFF2CFA889B9898C9185FF9E
:10044000EDCFCE0175DFE8CFDF91CF91089580E049
:1004500090E0892B19F063DF811120C080E090E0EB
:10046000892B41F080E090E0892B21F00E94000070
:10047000811117C080E090E0892B41F080E090E08E
:10048000892B21F00E94000081110EC080E090E0D5
:10049000892B79F03BDF81110AC008950E9400008A
:1004A000DDCF0E940000E6CF0E940000EFCF0C9449
:1004B000000008953FB7F89480919E0390919F03A8
:1004C000A091A003B091A10326B5A89B05C02F3F22
:1004D00019F00196A11DB11D3FBFBA2FA92F982F6A
:1004E0008827820F911DA11DB11DBC01CD0142E0E5
:1004F000660F771F881F991F4A95D1F708958F922D
:100500009F92AF92BF92CF92DF92EF92FF926B01D8
:100510007C01D0DF4B015C01C114D104E104F10482
:10052000E9F0C8DFDC01CB0188199909AA09BB09E8
:10053000883E9340A105B10578F321E0C21AD108A5
:10054000E108F10888EE880E83E0981EA11CB11C1A
:10055000C114D104E104F10421F7DECFFF90EF9044
:10056000DF90CF90BF90AF909F908F900895209193
:100570009703309198032817390771F490919603E7
:1005800080919503981741F0E0919603F0E0EB5AC3
:10059000FC4F808190E008958FEF9FEF08950895BC
:1005A0001F93CF93DF93DC015C968D919C915D97B7
:1005B000009739F421E030E013963C932E93129784
:1005C0003BC05196ED91FC91529750962C915097CB
:1005D000322F30951FB75E964C915E97742F7270D4
:1005E00041FD6095F8944081772311F0422B01C0C2
:1005F00043234083EC012197F1F748E0508160FFED
:1006000002C0522B01C053235083EC012197F1F714
:100610006695415099F78081772319F08323808371
:1006200002C0282B20831FBF5C968D919C915D9703
:100630000197F1F781E090E0DF91CF911F9108954C
:1006400020919703309198032817390769F4809116
:1006500095032091960390E0805C9F4F821B910947
:1006600060E470E00C94B70C80E090E00895209175
:1006700097033091980328173907B9F4909196039E
:1006800080919503981789F0E0919603F0E0EB5A7A
:10069000FC4F80812091960330E02F5F3F4F2F73F6
:1006A00033272093960390E008958FEF9FEF0895EE
:1006B00085ED8093BC008091BC0084FDFCCF10923E
:1006C000A80308954091EC02262F30E0240F311D3D
:1006D00021323105DCF42091A8032430C9F4FC0157
:1006E00080E090E0861758F43091EC022191DC0113
:1006F000A453BD4FA30FB11D2C930196F3CF80914E
:10070000EC02680F6093EC0280E0089581E00895A8
:1007100082E00895E091AC038091AB03E81730F4D8
:10072000F0E0E455FD4F808190E008958FEF9FEF5A
:1007300008959091AC038091AB03981750F4E92F82
:10074000F0E0E455FD4F208130E09F5F9093AC03D3
:1007500002C02FEF3FEFC90108958091AB0390E0F5
:100760002091AC03821B91090895CF92DF92EF9202
:10077000FF920F931F93CF93DF937C01CB018A01EC
:1007800020913303222389F0EB016B01C40ED51EA7
:10079000CC15DD0561F06991D701ED91FC910190D7
:1007A000F081E02DC7011995F3CF642F8BDFC801CD
:1007B000DF91CF911F910F91FF90EF90DF90CF903D
:1007C0000895CF93DF931F92CDB7DEB76983209151
:1007D00033032223D1F02091A903203240F021E0FD
:1007E00030E0FC013383228380E090E014C08091EC
:1007F000AA03E82FF0E0EC5CFC4F998190838F5FB7
:100800008093AA038093A90304C061E0CE010196FE
:1008100059DF81E090E00F90DF91CF910895CF9361
:10082000FC01C48121E020933303C0935403109250
:10083000AA031092A9038385682B8BEE94E0C1DF95
:100840009091A903913208F045C08091A8038111CD
:10085000FCCF82E08093A80381E08093A7038FEF11
:10086000809332031092310390933003A4E3B3E0FA
:10087000E0E1F3E080E0981721F02D9121938F5F64
:10088000FACF10920F0380910F03CC0FC82BC093A7
:100890000F038091A603813061F41092A60380912A
:1008A0000F038093BB008091BC0083FDF8CF85ECE3
:1008B00001C085EE8093BC008091A8038230E1F3F3
:1008C000809132038F3F31F080913203803211F0FA
:1008D000809132031092AA031092A903109233035D
:1008E000CF9108950F931F93CF938C01C62F97DF5D
:1008F0006C2F6460C80193DF6C2F6B7FC8018FDFA2
:1009000083EC90E00197F1F7CF911F910F9108953B
:10091000089580E090E008950E94E70E1F920F92E4
:100920000FB60F9211240BB60F922F933F934F9354
:100930005F936F937F938F939F93AF93BF93EF9347
:10094000FF9381EB93E0F4DCFF91EF91BF91AF91C6
:100950009F918F917F916F915F914F913F912F91D7
:100960000F900BBE0F900FBE0F901F9018951F9207
:100970000F920FB60F9211240BB60F922F938F93F5
:100980009F93EF93FF93E091C103F091C2038081A5
:10099000E091C703F091C80382FD12C0908180915D
:1009A000CA038F5F8F732091CB03821751F0E091C0
:1009B000CA03F0E0EF54FC4F958F8093CA0301C047
:1009C0008081FF91EF919F918F912F910F900BBE9E
:1009D0000F900FBE0F901F9018951F920F920FB699
:1009E0000F9211240BB60F922F933F934F935F9367
:1009F0006F937F938F939F93AF93BF93EF93FF93E7
:100A00008EE494E095DCFF91EF91BF91AF919F91BF
:100A10008F917F916F915F914F913F912F910F90A7
:100A20000BBE0F900FBE0F901F9018951F920F9244
:100A30000FB60F9211240BB60F922F938F939F93A3
:100A4000EF93FF93E0915E04F0915F048081E09169
:100A50006404F091650482FD12C090818091670466
:100A60008F5F8F7320916804821751F0E0916704C3
:100A7000F0E0E25BFB4F958F8093670401C08081BB
:100A8000FF91EF919F918F912F910F900BBE0F903F
:100A90000FBE0F901F901895362F90E0FC01E85F75
:100AA000FE4F4491FC01EE51FE4F2491FC01E456AF
:100AB000FE4F9491992309F46BC0442309F454C068
:100AC00050E0FA013197E231F10508F04DC0882776
:100AD000EE58FF4F8F4F5EC7809180008F7707C021
:100AE000809180008F7D03C080918000877F8093FC
:100AF00080003AC084B58F7702C084B58F7D84BDF5
:100B000033C08091B0008F7703C08091B0008F7D9B
:100B10008093B00029C0809190008F7707C08091AA
:100B200090008F7D03C080919000877F809390001C
:100B30001BC08091A0008F7707C08091A0008F7D9F
:100B400003C08091A000877F8093A0000DC080919A
:100B500020018F7707C0809120018F7D03C0809195
:100B60002001877F80932001E92FF0E0EE0FFF1F27
:100B7000EE57FE4FA591B4919FB7F894311104C080
:100B80008C912095282302C0EC912E2B2C939FBF93
:100B900008951F920F920FB60F9211242F933F9337
:100BA0008F939F93AF93BF9380919A0390919B03F0
:100BB000A0919C03B0919D033091990323E0230FF2
:100BC0002D3720F40196A11DB11D05C026E8230F85
:100BD0000296A11DB11D2093990380939A039093CF
:100BE0009B03A0939C03B0939D0380919E039091DF
:100BF0009F03A091A003B091A1030196A11DB11D77
:100C000080939E0390939F03A093A003B093A103AE
:100C1000BF91AF919F918F913F912F910F900FBEF8
:100C20000F901F9018951F920F920FB60F921124DC
:100C30000BB60F922F933F934F935F936F937F93D6
:100C40008F939F93AF93BF93EF93FF93E09197039D
:100C5000F0919803309709F451C0968DA685B78519
:100C6000858591FF04C09C91892329F447C09C91FC
:100C7000892309F043C0A389B4899C918589809513
:100C800089238C93868997890197F1F7608D718DFF
:100C9000A685B785558538E020E0CB010197F1F7AF
:100CA000822F90E095958795282F4C91452309F048
:100CB0002068315091F7868D81FD209580919503B4
:100CC00090E001968F73992730919603381749F079
:100CD000A0919503B0E0AB5ABC4F2C938093950341
:100CE00003C0868D8160868F828D938D0197F1F789
:100CF000A389B4899C918589892B8C93FF91EF916D
:100D0000BF91AF919F918F917F916F915F914F9123
:100D10003F912F910F900BBE0F900FBE0F901F9021
:100D200018950F931F93CF93DF938C01C62FD42F69
:100D3000607F642BD7DD80E1C89FB00111246D2B4B
:100D4000C801DF91CF911F910F91CCCD41E0E9DF38
:100D500081E090E008951F920F920FB60F92112438
:100D60000BB60F922F933F934F935F936F937F93A5
:100D70008F939F93AF93BF93EF93FF938091B900AD
:100D8000887F803609F49CC068F5883209F45BC01E
:100D900090F4803109F454C038F4882309F4F6C083
:100DA000883009F44DC0F5C0883109F44CC0803258
:100DB00009F45DC0EEC0803409F468C048F48033A3
:100DC00009F455C0883309F0E4C080933203D8C0D9
:100DD000803509F44FC0883509F45DC0883409F0C6
:100DE000D8C0D6C0883909F4C7C0A8F4883709F438
:100DF00067C038F4883609F463C0803709F460C0EE
:100E0000C8C0883809F4B8C0803909F45FC0803898
:100E100009F0BFC05BC0803B09F486C038F4803A5B
:100E200009F466C0883A09F47FC0B3C0803C09F475
:100E3000A7C0883C09F4A4C0883B09F48AC0A9C0B3
:100E400080910F0310C09091310380913003981767
:100E500070F5E091310381E08E0F80933103F0E073
:100E6000E05FFC4F80818093BB0085EC86C080935F
:100E700032038EC0E091310381E08E0F8093310305
:100E80008091BB00F0E0E05FFC4F808390913103E4
:100E9000809130036EC0E091310381E08E0F80932A
:100EA00031038091BB00F0E0E05FFC4F80838091D4
:100EB000A70381116DC081E08093A60384EA61C01D
:100EC00083E08093A80310920E03CFCF80910E038E
:100ED000803208F051C0E0910E0381E08E0F8093C4
:100EE0000E038091BB00F0E0E251FD4F8083BDCF47
:100EF00085EC8093BC001092A80380910E03803291
:100F000030F4E0910E03F0E0E251FD4F1082609169
:100F10000E0370E0E091A203F091A3038EEE92E045
:100F2000199510920E0335C084E08093A8031092A7
:100F3000ED021092EC02E091A403F091A503199543
:100F40008091EC02811105C081E08093EC02109247
:100F5000CC02E091ED0281E08E0F8093ED02F0E093
:100F6000E453FD4F80818093BB009091ED0280910E
:100F7000EC02981708F479CF85E88093BC0009C08B
:100F800085EC8093BC001092A80303C0109232033A
:100F90008FDBFF91EF91BF91AF919F918F917F91E7
:100FA0006F915F914F913F912F910F900BBE0F90DA
:100FB0000FBE0F901F901895DB0114964D915C9118
:100FC00015976D917C91DC01ED91FC910280F3818C
:100FD000E02D1994CF92DF92EF92FF920F931F931F
:100FE000CF93DF936C017A018B01C0E0D0E0CE1586
:100FF000DF0581F0D8016D918D01D601ED91FC9155
:101000000190F081E02DC6011995892B11F02196F0
:10101000EECF7E01C701DF91CF911F910F91FF901D
:10102000EF90DF90CF900895FC01A089B18982E014
:101030008C93A485B5851C92A685B78580E18C9399
:10104000108EA489B58986E08C93A289B3898C918E
:1010500080618C93A289B3898C9188608C93A289DA
:10106000B3898C9180688C930288F389E02D80810C
:101070008F7D808308956115710549F0FB01019012
:101080000020E9F73197AF01461B570BA3CF80E053
:1010900090E00895CF93DF93BC018EE494E08CDF61
:1010A000EC0163E672E08EE494E0E5DF8C0F9D1FB7
:1010B000DF91CF910895CF93DF93CDB7DEB7289717
:1010C0000FB6F894DEBF0FBECDBF98E0E6E0F2E0C9
:1010D000DE01119601900D929A95E1F79091990594
:1010E000961710F46FEF690FFE013196E60FF11DB0
:1010F000E60FF11D6081680F606840E081E995E0CE
:1011000028960FB6F894DEBF0FBECDBFDF91CF910A
:1011100008CE40E061E081E995E003DE8BE39FE1EA
:101120000197F1F70895EF92FF920F931F93CF93DA
:10113000DF938C01EEDF60E080E0BDDF8EE1809F19
:10114000E001819FD00D1124CE0189509B4F7C017D
:10115000BC0181E995E030DFC7019CDF61E080E000
:10116000AADFCE0183509B4F7C01BC0181E995E051
:1011700023DFC7018FDF62E080E09DDFCE018D5F5E
:101180009A4F7C01BC0181E995E016DFC70182DF3F
:1011900063E080E090DFC75FDA4FBE0181E995E050
:1011A0000BDFCE0177DFEDE8F5E080819181909350
:1011B000900580938F0511830083DF91CF911F915C
:1011C0000F91FF90EF900895DC01ED91FC9101905B
:1011D000F081E02D1994789484B5826084BD84B543
:1011E000816084BD85B5826085BD85B5816085BD22
:1011F00080916E00816080936E00109281008091DA
:101200008100826080938100809181008160809361
:101210008100809180008160809380008091B10086
:1012200084608093B1008091B00081608093B000B1
:101230008091910082608093910080919100816003
:1012400080939100809190008160809390008091C4
:10125000A10082608093A1008091A10081608093B1
:10126000A1008091A00081608093A0008091210165
:10127000826080932101809121018160809321010E
:101280008091200181608093200180917A008460A8
:1012900080937A0080917A00826080937A008091B6
:1012A0007A00816080937A0080917A0080688093D0
:1012B0007A001092C1001092AC031092AB0310920E
:1012C000AA031092A9031092A80381E08093A703B8
:1012D0001092A60361E084E1DFDB61E085E1DCDB05
:1012E0008091B9008E7F8093B9008091B9008D7F85
:1012F0008093B90088E48093B80085E48093BC00B3
:1013000087E491E09093A5038093A40388E491E09F
:101310009093A3038093A2031092960580919B055E
:10132000823018F098E0909396058093990562E3D7
:1013300070E080E090E0E3D860919C0581E995E061
:101340006EDA68EE73E080E090E0D9D860E381E97E
:1013500095E0C8DACBE4D6E4CE010197F1F760E37B
:1013600081E995E0BFDA2197F1F760E381E995E043
:10137000B9DA83E592E00197F1F760E281E995E05F
:10138000B1DA60919605606240E081E995E0C9DCE0
:1013900084E08093970540E06CE081E995E0C1DC52
:1013A000B8DE82E08093980540E066E081E995E050
:1013B000B8DC40E062E081E995E0B3DC8BE39FE1DB
:1013C0000197F1F788E080939C0560E081E995E062
:1013D00026DA9FDE8EE494E027DE64EF71E080E0A1
:1013E00090E08DD860E572E08EE494E044DE63E640
:1013F00072E08EE494E03FDE81EB93E015DE64EF73
:1014000071E080E090E07BD866E672E081EB93E0EB
:1014100032DE80E090E087DE60E088E04CDE6091C4
:101420009705862F816080939705696040E081E988
:1014300095E077DC81EB93E00E947A01892B09F437
:1014400043C081EB93E00E945801C82F682F81E9C7
:1014500095E0BADE6C2F8EE494E0B6DE20ED2C0F22
:101460002B3014F029EC2C0F8091AD039091AE033A
:10147000A091AF03B091B00334E0880F991FAA1F69
:10148000BB1F3A95D1F72F70822B9927AA27BB272C
:101490008093AD039093AE03A093AF03B093B003DA
:1014A0008B3A9105A105B10579F481E090E03BDE2E
:1014B00060E08FE000DE81EB93E00E94580164E67B
:1014C00072E08EE494E0D7DD8EE494E00E947A012D
:1014D000892B91F08EE494E00E945801C82F682F68
:1014E0008EE494E00E94BA016C2F81EB93E06CDEF5
:1014F0006C2F81E995E068DE0E9427029BCFCF9395
:10150000DF93CDE8D5E06E978A899B89F7D28C85E9
:101510009D85F4D28E819F81F1D288819981EED20E
:1015200084E0C73FD80779F782E492E090939E0564
:1015300080939D0580919703909198038D599540D4
:1015400071F4E091B005F091B10590818091B20500
:101550008095892380831092980310929703DF91DE
:10156000CF910895EF92FF920F931F93CF93DF9344
:10157000EC017B018A0188819981009729F02A81F9
:101580003B8124173507E8F4B8016F5F7F4F3FD3E5
:10159000009759F0998388831B830A832C813D81AE
:1015A000232B79F4FC0110820CC08881998100976B
:1015B00009F0A4D2198218821D821C821B821A8211
:1015C00006C01D830C83B701888199810DD4CE019B
:1015D000DF91CF911F910F91FF90EF900895FC0143
:1015E00011821082138212821582148240E050E030
:1015F00065E672E0B7CFCF93DF93EC01611571051B
:1016000051F0FB0101900020E9F73197AF01461B33
:10161000570BA8DF0BC088819981009709F06ED223
:10162000198218821D821C821B821A82CE01DF91D0
:10163000CF9108950F931F93CF93DF931092B4032C
:101640001092B30388EE93E0A0E0B0E08093B5037E
:101650009093B603A093B703B093B80322E132E0AE
:101660003093B2032093B10345E351E05093BE039E
:101670004093BD0344E351E05093C0034093BF0344
:1016800040E351E05093C2034093C10341E351E072
:101690005093C4034093C30342E351E05093C60305
:1016A0004093C50346E351E05093C8034093C703FA
:1016B0001092CA031092CB031092CC031092CD0368
:1016C000109251041092500480935204909353044A
:1016D000A0935404B093550430934F0420934E04C8
:1016E00025EC30E030935B0420935A0424EC30E086
:1016F00030935D0420935C0420EC30E030935F0471
:1017000020935E0421EC30E0309361042093600468
:1017100022EC30E0309363042093620426EC30E046
:101720003093650420936404109267041092680457
:101730001092690410926A041092EE041092ED0463
:101740008093EF049093F004A093F104B093F2041B
:1017500024E232E03093EC042093EB041092A005D5
:1017600010929F058093A1059093A205A093A305D5
:10177000B093A40582E492E090939E0580939D052A
:101780001092B4051092B3051092B6051092B505EB
:101790001092B8051092B7051092BA051092B905CB
:1017A0006091BB056E7F6D7F6093BB056695617030
:1017B00081E0682771D9E3EEF1E02491EDE9F1E0F1
:1017C0008491882399F090E0880F991FFC01E859D3
:1017D000FE4FA591B491FC01EE57FE4F8591949177
:1017E0008FB7F894EC91E22BEC938FBFE3EEF1E02E
:1017F000E491E093AD05EDE9F1E0E491F0E0EE0F66
:10180000FF1FEE57FE4F859194919093AF05809303
:10181000AE0502EE11E0F8012491CCE9D1E0FE0121
:1018200084918823C9F090E0880F991FFC01E85942
:10183000FE4FA591B491FC01EE57FE4F4591549196
:101840003FB7F8949C91822F809598239C93FA013E
:101850009081892380833FBF8091BB0581FD03C0B8
:1018600061E080E019D91092A905F8010491009374
:10187000AA05FE01C491EC2FF0E0EE0FFF1FE25B22
:10188000FE4F859194919093AC058093AB05109297
:1018900094051092930586E392E0909392058093CD
:1018A000910587E28093950584E180939A0584E011
:1018B00080939B0510929C05C7EFD4E00DE815E0DE
:1018C000CE018DDECE0106968ADECE010C9687DE35
:1018D000CE01429684DE6E960C171D0789F7109292
:1018E00014051092130581E090E0909332058093E7
:1018F000310582E090E09093500580934F0583E09E
:1019000090E090936E0580936D0584E090E0909355
:101910008C0580938B0569E672E087EF94E06BDEBF
:1019200069E772E08DEF94E066DE64E872E083E0E0
:1019300095E061DE69E772E089E095E05CDE6FE8E2
:1019400072E085E195E057DE60EA72E08BE195E0B8
:1019500052DE60EA72E081E295E04DDE60EA72E01C
:1019600087E295E0DF91CF911F910F9144CE97FBD5
:10197000072E16F4009406D077FD08D013D007FC8C
:1019800005D03EF4909581959F4F0895709561958F
:101990007F4F0895EE0FFF1F881F8BBF0790F691B2
:1019A000E02D1994AA1BBB1B51E107C0AA1FBB1F46
:1019B000A617B70710F0A61BB70B881F991F5A95DB
:1019C000A9F780959095BC01CD0108950F931F93C1
:1019D000CF93DF938230910510F482E090E0E091A4
:1019E000BE05F091BF0520E030E0A0E0B0E0309708
:1019F00019F1408151810281138148175907C8F0BC
:101A00008417950769F4109731F012960C9312978A
:101A100013961C9327C00093BE051093BF0522C0E8
:101A20002115310519F04217530718F49A01BD0129
:101A3000EF01DF01F801DBCF21153105F9F0281B9B
:101A4000390B2430310580F48A819B816115710541
:101A500021F0FB019383828304C09093BF058093A0
:101A6000BE05FE01329644C0FE01E20FF31F8193D2
:101A7000919322503109398328833AC02091BC05C3
:101A80003091BD05232B41F42091020230910302D5
:101A90003093BD052093BC052091000230910102D6
:101AA0002115310541F42DB73EB740910402509104
:101AB0000502241B350BE091BC05F091BD05E21732
:101AC000F307A0F42E1B3F0B2817390778F0AC0161
:101AD0004E5F5F4F2417350748F04E0F5F1F50933E
:101AE000BD054093BC058193919302C0E0E0F0E016
:101AF000CF01DF91CF911F910F910895CF93DF9385
:101B0000009709F481C0FC01329713821282A091E0
:101B1000BE05B091BF05109781F420813181820FFD
:101B2000931F2091BC053091BD052817390751F549
:101B3000F093BD05E093BC0567C0ED0120E030E007
:101B4000CE17DF0740F44A815B819E0141155105A4
:101B5000F1F0EA01F5CFD383C28340815181840F34
:101B6000951FC817D90759F488819981840F951F4B
:101B70000296918380838A819B819383828321153E
:101B8000310529F4F093BF05E093BE053DC0E9019E
:101B9000FB83EA8349915991C40FD51FEC17FD07C8
:101BA00061F480819181840F951F0296E9019983E8
:101BB0008883828193819B838A83E0E0F0E01296A0
:101BC0008D919C911397009719F0FD01DC01F7CFDF
:101BD0008D919C9111979D012E5F3F4F820F931F16
:101BE0002091BC053091BD052817390769F430975D
:101BF00029F41092BF051092BE0502C01382128212
:101C0000B093BD05A093BC05DF91CF9108956F926D
:101C10007F928F929F92AF92BF92CF92DF92EF927C
:101C2000FF920F931F93CF93DF93009781F4CB0123
:101C3000DF91CF911F910F91FF90EF90DF90CF90A8
:101C4000BF90AF909F908F907F906F90BFCEFC0120
:101C5000E60FF71F9C0122503109E217F30708F441
:101C6000A5C0EC01D9010D911C911197061717071A
:101C7000A8F00530110508F497C0C801049786172D
:101C8000970708F491C002501109061B170B019326
:101C900011936D937C93CF0131DF86C05B01A01A55
:101CA000B10A4C01800E911EA091BE05B091BF05F6
:101CB000612C712CE12CF12C109709F446C08D9108
:101CC0009C911197A815B905B1F56C0142E0C40EBD
:101CD000D11CCA14DB0478F14C018A189B086401FA
:101CE00042E0C40ED11C1296BC9012971396AC9190
:101CF000B5E0CB16D10440F0B282A38391828082FA
:101D0000D9016D937C9309C00E5F1F4F800F911F07
:101D1000F90191838083EB2DFA2FE114F10431F066
:101D2000D7011396FC93EE9312973EC0F093BF0534
:101D3000E093BE0539C06816790608F43C017D01C0
:101D400012960D90BC91A02DB7CF8091BC059091BB
:101D5000BD0588169906E1F466167706C8F48091E9
:101D6000000290910102009741F48DB79EB7409117
:101D7000040250910502841B950BE817F907B0F493
:101D8000F093BD05E093BC05F901718360830CC03D
:101D9000CB011CDE7C01009749F0A801BE011BD0DD
:101DA000CE01ACDEC70104C0CE0102C080E090E0ED
:101DB000DF91CF911F910F91FF90EF90DF90CF9027
:101DC000BF90AF909F908F907F906F90089581E02B
:101DD00090E0F89410C0FB01DC0102C001900D926C
:101DE00041505040D8F70895FB01DC0101900D925D
:101DF0000020E1F7089511E0C5E1D1E000E005C061
:101E0000802FFE01C7DD2196011DC631D10780E07C
:081E10000807B1F7F894FFCFB9
:101E18000000C005800000004000140054000000CD
:101E28000000BA01EA07490106027A0158016C016B
:101E380000000000E103B5038904CF02AD03990354
:101E48008A0300000000A606EA0789048804000047
:101E58000000D002EA078904CF0220033703B70243
:101E6800436F6E6E656374696F6E2053746172742C
:101E78006564000D0A0041540053656E64204154A6
:101E88003A20202020202020007C20207C20207C3C
:101E980020207C007C2D2D202D2D202D2D7C0052E6
:101EA80065636965766564206D617A653A2020000E
:0C1EB8007C20202020202020207C000026
:00000001FF
