:10000000FBC0000029C1000027C1000025C100007D
:1000100023C1000021C100001FC100001DC100005C
:100020001BC10000C9C40000C7C40000C5C4000053
:1000300013C1000011C100000FC100000DC100007C
:100040000BC1000009C1000007C1000005C100008C
:1000500003C1000001C10000FFC0000063C4000034
:10006000FBC0000029C40000FEC30000F5C0000072
:10007000F3C00000F1C00000EFC00000EDC00000C0
:10008000EBC00000E9C00000E7C00000E5C00000D0
:10009000E3C00000E1C00000DFC00000B1C4000008
:1000A000DBC00000D9C00000D7C00000D5C00000F0
:1000B000D3C00000D1C00000CFC00000CDC0000000
:1000C000CBC00000C9C00000C7C00000C5C0000010
:1000D000C3C00000C1C0000090C3000065C30000A1
:1000E000BBC00000F506F806E706EB06EF062F0793
:1000F000FC06000706070A070E07140718071C0767
:100100002F07220726072A070000220025002800C3
:100110002B002E003100340002010000050108010F
:100120000B0105050505070508080808020202027B
:100130000A0A080804040404010101010101010183
:100140000303030303030303040707070C0C0C0C4E
:100150000C0C0C0C02020202060606060606060637
:100160000B0B0B0B0B0B0B0B0102102020080810C4
:100170002040102040800201020108040201010217
:1001800004081020408080402010080402018004F0
:10019000020180402010080402010804020101024B
:1001A0000408102040800102040810204080000054
:1001B0000A0B02090C0D0E080703040100000000E1
:1001C000000000000000000000000000000000002F
:1001D00000000000000000000000121110000000EC
:1001E000000000000000000000000000000000000F
:1001F00000000000590AD90911241FBECFEFD1E237
:10020000DEBFCDBF00E00CBF25E0A4EBB2E001C033
:100210001D92AC36B207E1F712E0A0E0B2E0ECE9E3
:10022000FBE100E00BBF02C007900D92A43BB107B9
:10023000D9F710E0CBEFD0E000E006C0219701092C
:10024000802FFE010E94A00BCA3FD10780E0080763
:10025000A9F796D60C94BD0DD3CE08950895FC0150
:10026000538D448D252F30E0842F90E0821B930B1B
:10027000541710F0CF96089501970895FC01918DC1
:10028000828D981761F0828DDF01A80FB11D5D96F8
:100290008C91928D9F5F9F73928F90E008958FEF66
:1002A0009FEF0895FC01918D828D981731F0828D1A
:1002B000E80FF11D858D90E008958FEF9FEF089571
:1002C000FC01918D228D892F90E0805C9F4F821BD5
:1002D00091098F739927089583E793E0F1DF21E077
:1002E000892B09F420E0822F089580E194E0E8DF73
:1002F00021E0892B09F420E0822F0895FC01848DF0
:10030000DF01A80FB11DA35ABF4F2C91848D90E03F
:1003100001968F739927848FA689B7892C93A0891A
:10032000B1898C91837080648C93938D848D9813A4
:1003300006C00288F389E02D80818F7D8083089537
:10034000EF92FF920F931F93CF93DF93EC0181E025
:10035000888F9B8D8C8D981305C0E889F9898081E1
:1003600085FD25C0F62E0B8D10E00F5F1F4F0F731C
:100370001127E02E8C8DE8120BC00FB607FCFACFC8
:10038000E889F989808185FFF5CFCE01B7DFF2CF0B
:100390008B8DFE01E80FF11DE35AFF4FF0829FB7EE
:1003A000F8940B8FEA89FB89808180620AC09FB72D
:1003B000F894EE89FF896083E889F98980818370E8
:1003C000806480839FBF81E090E0DF91CF911F9197
:1003D0000F91FF90EF900895CF93DF93EC01888DFC
:1003E0008823C1F0EA89FB89808185FD05C0A88941
:1003F000B9898C9186FD0EC00FB607FCF5CF8081C0
:1004000085FFF2CFA889B9898C9185FFEDCFCE0108
:1004100075DFE8CFDF91CF91089580E090E0892BE0
:1004200019F063DF811120C080E090E0892B41F05A
:1004300080E090E0892B21F00E940000811117C01C
:1004400080E090E0892B41F080E090E0892B21F062
:100450000E94000081110EC080E090E0892B79F0AD
:100460003BDF81110AC008950E940000DDCF0E9489
:100470000000E6CF0E940000EFCF0C94000008952A
:100480003FB7F8948091640390916503A09166034F
:10049000B091670326B5A89B05C02F3F19F00196C0
:1004A000A11DB11D3FBFBA2FA92F982F8827820FFA
:1004B000911DA11DB11DBC01CD0142E0660F771F4A
:1004C000881F991F4A95D1F708958F929F92AF92F6
:1004D000BF92CF92DF92EF92FF926B017C01D0DF4F
:1004E0004B015C01C114D104E104F104E9F0C8DF5F
:1004F000DC01CB0188199909AA09BB09883E934000
:10050000A105B10578F321E0C21AD108E108F1088C
:1005100088EE880E83E0981EA11CB11CC114D10482
:10052000E104F10421F7DECFFF90EF90DF90CF9050
:10053000BF90AF909F908F90089585ED8093BC0001
:100540008091BC0084FDFCCF10926E030895409111
:10055000F402262F30E0240F311D21323105DCF466
:1005600020916E032430C9F4FC0180E090E08617EE
:1005700058F43091F4022191DC01AC52BD4FA30F2D
:10058000B11D2C930196F3CF8091F402680F609314
:10059000F40280E0089581E0089582E008950895CE
:1005A000E091720380917103E81730F4F0E0EC54AD
:1005B000FD4F808190E008958FEF9FEF0895909117
:1005C000720380917103981750F4E92FF0E0EC5416
:1005D000FD4F208130E09F5F9093720302C02FEFA8
:1005E0003FEFC90108958091710390E0209172035B
:1005F000821B91090895CF92DF92EF92FF920F93A1
:100600001F93CF93DF937C01CB018A0120913B03A1
:10061000222389F0EB016B01C40ED51ECC15DD053C
:1006200061F06991D701ED91FC910190F081E02D8D
:10063000C7011995F3CF642F8ADFC801DF91CF91ED
:100640001F910F91FF90EF90DF90CF900895CF937F
:10065000DF931F92CDB7DEB7698320913B0322233E
:10066000D1F020916F03203240F021E030E0FC0116
:100670003383228380E090E014C080917003E82FE0
:10068000F0E0E45CFC4F998190838F5F809370036E
:1006900080936F0304C061E0CE01019658DF81E0D2
:1006A00090E00F90DF91CF910895CF93FC01C4812A
:1006B00021E020933B03C0935C03109270031092DF
:1006C0006F038385682B8DEA94E0C1DF90916F03FF
:1006D000913208F045C080916E038111FCCF82E019
:1006E00080936E0381E080936D038FEF80933A03D4
:1006F0001092390390933803ACE3B3E0E8E1F3E000
:1007000080E0981721F02D9121938F5FFACF1092FE
:10071000170380911703CC0FC82BC0931703809148
:100720006C03813061F410926C0380911703809305
:10073000BB008091BC0083FDF8CF85EC01C085EE45
:100740008093BC0080916E038230E1F380913A0384
:100750008F3F31F080913A03803211F080913A035B
:100760001092700310926F0310923B03CF91089583
:100770000F931F93CF938C01C62F97DF6C2F64606C
:10078000C80193DF6C2F6B7FC8018FDF83EC90E093
:100790000197F1F7CF911F910F910895089580E08F
:1007A00090E008950E94A90D1F920F920FB60F922C
:1007B00011240BB60F922F933F934F935F936F9338
:1007C0007F938F939F93AF93BF93EF93FF9383E7B1
:1007D00093E094DDFF91EF91BF91AF919F918F9145
:1007E0007F916F915F914F913F912F910F900BBE31
:1007F0000F900FBE0F901F9018951F920F920FB67B
:100800000F9211240BB60F922F938F939F93EF9318
:10081000FF93E0918303F09184038081E091890349
:10082000F0918A0382FD12C0908180918C038F5FCA
:100830008F7320918D03821751F0E0918C03F0E0CB
:10084000ED58FC4F958F80938C0301C08081FF9100
:10085000EF919F918F912F910F900BBE0F900FBE34
:100860000F901F9018951F920F920FB60F921124A0
:100870000BB60F922F933F934F935F936F937F939A
:100880008F939F93AF93BF93EF93FF9380E194E097
:1008900035DDFF91EF91BF91AF919F918F917F9146
:1008A0006F915F914F913F912F910F900BBE0F90E1
:1008B0000FBE0F901F9018951F920F920FB60F92B8
:1008C00011240BB60F922F938F939F93EF93FF9367
:1008D000E0912004F09121048081E0912604F091C0
:1008E000270482FD12C09081809129048F5F8F734D
:1008F00020912A04821751F0E0912904F0E0E05F92
:10090000FB4F958F8093290401C08081FF91EF9167
:100910009F918F912F910F900BBE0F900FBE0F9054
:100920001F9018951F920F920FB60F9211242F93BC
:100930003F938F939F93AF93BF9380916003909168
:100940006103A0916203B091630330915F0323E0E0
:10095000230F2D3720F40196A11DB11D05C026E8F7
:10096000230F0296A11DB11D20935F0380936003A6
:1009700090936103A0936203B09363038091640337
:1009800090916503A0916603B09167030196A11D44
:10099000B11D8093640390936503A0936603B093A5
:1009A0006703BF91AF919F918F913F912F910F90CE
:1009B0000FBE0F901F9018951F920F920FB60F92B7
:1009C00011240F900FBE0F901F9018950F931F9337
:1009D000CF93DF938C01C62FD42F607F642BC8DEAA
:1009E00080E1C89FB00111246D2BC801DF91CF9128
:1009F0001F910F91BDCE41E0E9DF81E090E00895C5
:100A00001F920F920FB60F9211240BB60F922F93D5
:100A10003F934F935F936F937F938F939F93AF9386
:100A2000BF93EF93FF938091B900887F803609F4DC
:100A30009CC068F5883209F45BC090F4803109F4F9
:100A400054C038F4882309F4F6C0883009F44DC046
:100A5000F5C0883109F44CC0803209F45DC0EEC0A5
:100A6000803409F468C048F4803309F455C08833F1
:100A700009F0E4C080933A03D8C0803509F44FC030
:100A8000883509F45DC0883409F0D8C0D6C08839EB
:100A900009F4C7C0A8F4883709F467C038F4883669
:100AA00009F463C0803709F460C0C8C0883809F40D
:100AB000B8C0803909F45FC0803809F0BFC05BC09E
:100AC000803B09F486C038F4803A09F466C0883A5D
:100AD00009F47FC0B3C0803C09F4A7C0883C09F486
:100AE000A4C0883B09F48AC0A9C08091170310C034
:100AF0009091390380913803981770F5E09139038C
:100B000081E08E0F80933903F0E0E85EFC4F808136
:100B10008093BB0085EC86C080933A038EC0E09141
:100B2000390381E08E0F809339038091BB00F0E0A0
:100B3000E85EFC4F808390913903809138036EC04A
:100B4000E091390381E08E0F809339038091BB00DF
:100B5000F0E0E85EFC4F808380916D0381116DC0F1
:100B600081E080936C0384EA61C083E080936E032C
:100B700010921603CFCF80911603803208F051C037
:100B8000E091160381E08E0F809316038091BB00E5
:100B9000F0E0EA50FD4F8083BDCF85EC8093BC0030
:100BA00010926E0380911603803230F4E0911603A8
:100BB000F0E0EA50FD4F10826091160370E0E09182
:100BC0006803F091690386EF92E01995109216037D
:100BD00035C084E080936E031092F5021092F40207
:100BE000E0916A03F0916B0319958091F4028111F1
:100BF00005C081E08093F4021092D402E091F502E6
:100C000081E08E0F8093F502F0E0EC52FD4F808181
:100C10008093BB009091F5028091F402981708F43C
:100C200079CF85E88093BC0009C085EC8093BC0037
:100C300010926E0303C010923A037FDCFF91EF9194
:100C4000BF91AF919F918F917F916F915F914F91E4
:100C50003F912F910F900BBE0F900FBE0F901F90E2
:100C60001895DB0114964D915C9115976D917C91CF
:100C7000DC01ED91FC910280F381E02D1994CF927B
:100C8000DF92EF92FF920F931F93CF93DF936C014C
:100C90007A018B01C0E0D0E0CE15DF0581F0D801EC
:100CA0006D918D01D601ED91FC910190F081E02DC7
:100CB000C6011995892B11F02196EECF7E01C7014F
:100CC000DF91CF911F910F91FF90EF90DF90CF9028
:100CD0000895FC01A089B18982E08C93A485B58533
:100CE0001C92A685B78580E18C93108EA489B58966
:100CF00086E08C93A289B3898C9180618C93A289C0
:100D0000B3898C9188608C93A289B3898C91806817
:100D10008C930288F389E02D80818F7D80830895F4
:100D2000CF93DF93CDB7DEB728970FB6F894DEBF29
:100D30000FBECDBF98E0E6E0F2E0DE011196019033
:100D40000D929A95E1F790916405961710F46FEF64
:100D5000690FFE013196E60FF11DE60FF11D60816E
:100D6000680F606840E08CE595E028960FB6F8942F
:100D7000DEBF0FBECDBFDF91CF9128CE40E061E056
:100D80008CE595E023DE8BE39FE10197F1F7089571
:100D900090E0FC01E255FE4F4491FC01E859FE4F02
:100DA0002491FC01EE5DFE4F9491992309F465C0F6
:100DB000442309F454C050E0FA013197E231F105BF
:100DC00008F04DC08827EE58FF4F8F4FB9C480916F
:100DD00080008F7707C0809180008F7D03C0809155
:100DE0008000877F809380003AC084B58F7702C0EF
:100DF00084B58F7D84BD33C08091B0008F7703C0F0
:100E00008091B0008F7D8093B00029C080919000C8
:100E10008F7707C0809190008F7D03C080919000F4
:100E2000877F809390001BC08091A0008F7707C0C0
:100E30008091A0008F7D03C08091A000877F809368
:100E4000A0000DC0809120018F7707C08091200104
:100E50008F7D03C080912001877F80932001E92F3F
:100E6000F0E0EE0FFF1FE85FFE4FA591B4918FB742
:100E7000F894EC91E22BEC938FBF0895DC01ED9197
:100E8000FC910190F081E02D19946115710579F0C4
:100E9000FB0101900020E9F73197AF01461B570B8A
:100EA000DC01ED91FC910280F381E02D199480E04A
:100EB00090E00895CF93DF93BC0180E194E0D1DE10
:100EC000EC0161E572E080E194E0DFDF8C0F9D1FB3
:100ED000DF91CF910895EF92FF920F931F93CF93DD
:100EE000DF938C014BDF60E080E01ADF8EE1809FB2
:100EF000E001819FD00D1124CE018E539B4F7C01C8
:100F0000BC018CE595E0ADDEC701D4DF61E080E097
:100F100007DFCE0188539B4F7C01BC018CE595E037
:100F2000A0DEC701C7DF62E080E0FADECE018253B7
:100F30009B4F7C01BC018CE595E093DEC701BADFD5
:100F400063E080E0EDDECC52DB4FBE018CE595E046
:100F500088DECE01AFDFE8E5F5E0808191819093F6
:100F60005B0580935A051183008362E572E080E19E
:100F700094E0DF91CF911F910F91FF90EF9085CF7B
:100F8000CF93DF93CDB7DEB7A1970FB6F894DEBF4E
:100F90000FBECDBF789484B5826084BD84B5816076
:100FA00084BD85B5826085BD85B5816085BD809134
:100FB0006E00816080936E001092810080918100AC
:100FC00082608093810080918100816080938100A4
:100FD000809180008160809380008091B100846066
:100FE0008093B1008091B00081608093B0008091C7
:100FF0009100826080939100809191008160809344
:101000009100809190008160809390008091A10078
:1010100082608093A1008091A10081608093A100F3
:101020008091A00081608093A00080912101826066
:101030008093210180912101816080932101809121
:10104000200181608093200180917A0084608093E8
:101050007A0080917A00826080937A0080917A0091
:10106000816080937A0080917A00806880937A0012
:101070001092C100109272031092710310927003CB
:1010800010926F0310926E0381E080936D031092B3
:101090006C0384E17DDE85E17BDE8091B9008E7F8B
:1010A0008093B9008091B9008D7F8093B90088E466
:1010B0008093B80085E48093BC008DE291E090932A
:1010C0006B0380936A038EE291E0909369038093AF
:1010D00068031092610580916605823018F098E0EF
:1010E000909361058093640562E370E080E090E096
:1010F000ECD9609167058CE595E0D7DA68EE73E08E
:1011000080E090E0E2D960E38CE595E031DB0BE430
:1011100016E4C8010197F1F760E38CE595E028DB60
:10112000C8010197F1F760E38CE595E021DB83E5E9
:1011300092E00197F1F760E28CE595E019DB6091B0
:101140006105606240E08CE595E040DC84E08093DE
:10115000620540E06CE08CE595E038DC0FDE82E073
:101160008093630540E066E08CE595E02FDC40E08D
:1011700062E08CE595E02ADC8BE39FE10197F1F7D3
:1011800088E08093670560E08CE595E08EDAF6DD17
:1011900080E194E09EDD64EF71E080E090E095D91D
:1011A0006EE372E080E194E070DE61E572E080E180
:1011B00094E06BDE83E793E08CDD64EF71E080E028
:1011C00090E083D964E572E083E793E05EDE80E03F
:1011D00090E081DE60E088E0A3DD60916205862F0B
:1011E000816080936205696040E08CE595E0EEDB0C
:1011F0004AE0842E912CA12CB12C83E793E060D897
:10120000892B09F4B9C083E793E038D88093C004F0
:10121000682F8CE595E032DE6091C00480E194E0B7
:101220002DDE8091C00420ED280F2B3014F029EC26
:10123000280F2093C1048091B9049091BA04A09121
:10124000BB04B091BC0434E0880F991FAA1FBB1FD8
:101250003A95D1F72F70822B9927AA27BB27809325
:10126000B9049093BA04A093BB04B093BC048B3A26
:101270009105A105B10509F07FC081E090E02BDE6A
:1012800060E08FE04DDD83E793E00E943E0190ED4A
:10129000980F9B3014F099EC980F892F990F990BA8
:1012A0009093BE048093BD0483E793E00E943E01C7
:1012B00090ED980F9B3014F099EC980F9093BF0429
:1012C000C090BD04D090BE040D2C000CEE08FF08A9
:1012D000F7FE1EC06DE28CE595E0D0DD22273327B6
:1012E000A9012C193D094E095F0919A2CE01819669
:1012F0007C01CA01B901A501940100D2605DF7012A
:1013000062937F01211531054105510591F714C004
:10131000A701960119A2CE0181967C01CA01B901EB
:10132000A5019401EBD1605DF70162937F01211566
:1013300031054105510591F7B7018CE595E0A5DD33
:101340008091BD049091BE04892B61F48091BF040B
:1013500080FF12C067E572E08CE595E096DD67E5F9
:1013600072E007C061E672E08CE595E08EDD61E633
:1013700072E080E194E089DD80E194E00E94600108
:10138000892BA9F080E194E00E943E018093C00483
:10139000682F80E194E00E94A0016091C00483E77F
:1013A00093E06CDD6091C0048CE595E067DD35D895
:1013B00024CFCF93DF93C8E5D5E06E978A899B89C8
:1013C0005FD28C859D855CD28E819F8159D2888128
:1013D000998156D284E0C23CD80779F7DF91CF914A
:1013E0000895EF92FF920F931F93CF93DF93EC0139
:1013F0007B018A0188819981009729F02A813B81AC
:1014000024173507E8F4B8016F5F7F4FC2D2009709
:1014100059F0998388831B830A832C813D81232B78
:1014200079F4FC0110820CC088819981009709F041
:1014300027D2198218821D821C821B821A8206C042
:101440001D830C83B7018881998190D3CE01DF91F0
:10145000CF911F910F91FF90EF900895FC011182A1
:101460001082138212821582148240E050E063E5FC
:1014700072E0B7CFCF93DF93EC016115710551F0A6
:10148000FB0101900020E9F73197AF01461B570B94
:10149000A8DF0BC088819981009709F0F1D11982EA
:1014A00018821D821C821B821A82CE01DF91CF918D
:1014B00008950F931F93CF93DF93109276031092AA
:1014C000750388EE93E0A0E0B0E0809377039093FB
:1014D0007803A0937903B0937A0322E132E030934A
:1014E00074032093730345E351E0509380034093CA
:1014F0007F0344E351E0509382034093810340E330
:1015000051E0509384034093830341E351E05093AF
:1015100086034093850342E351E050938803409350
:10152000870346E351E050938A0340938903109266
:101530008C0310928D0310928E0310928F031092E1
:101540001304109212048093140490931504A09332
:101550001604B0931704309311042093100425EC63
:1015600030E030931D0420931C0424EC30E03093D1
:101570001F0420931E0420EC30E0309321042093BC
:10158000200421EC30E0309323042093220422EC49
:1015900030E0309325042093240426EC30E030938F
:1015A0002704209326041092290410922A041092F2
:1015B0002B0410922C041092B0041092AF0480936C
:1015C000B1049093B204A093B304B093B40484E242
:1015D00092E09093AE048093AD0410925F05109258
:1015E0005E0586E392E090935D0580935C0587E25B
:1015F0008093600584E18093650584E080936605AF
:1016000010926705C2ECD4E008E515E0CE0126DFB4
:10161000CE01069623DFCE010C9620DFCE01429646
:101620001DDF6E960C171D0789F71092DF041092CC
:10163000DE0481E090E09093FD048093FC0482E05E
:1016400090E090931B0580931A0583E090E09093BF
:1016500039058093380584E090E090935705809396
:10166000560561E772E082EC94E004DF61E872E025
:1016700088EC94E0FFDE6CE872E08EEC94E0FADE39
:1016800061E872E084ED94E0F5DE88E090E090930C
:10169000DB048093DA041092DD041092DC0467E925
:1016A00072E080EE94E0E6DE68EA72E086EE94E0B6
:1016B000E1DE68EA72E08CEE94E0DCDE68EA72E07B
:1016C00082EF94E0D7DE8CE090E09093DB0480938F
:1016D000DA041092DD041092DC041092B904109226
:1016E000BA041092BB041092BC041092C004109271
:1016F000C104DF91CF911F910F910895A1E21A2E9D
:10170000AA1BBB1BFD010DC0AA1FBB1FEE1FFF1FA5
:10171000A217B307E407F50720F0A21BB30BE40BF5
:10172000F50B661F771F881F991F1A9469F760953C
:101730007095809590959B01AC01BD01CF010895F6
:10174000EE0FFF1F881F8BBF0790F691E02D1994B5
:101750000F931F93CF93DF938230910510F482E0B3
:1017600090E0E0916A05F0916B0520E030E0A0E0A8
:10177000B0E0309719F140815181028113814817FF
:101780005907C8F08417950769F4109731F012963D
:101790000C93129713961C9327C000936A0510931D
:1017A0006B0522C02115310519F04217530718F4B3
:1017B0009A01BD01EF01DF01F801DBCF21153105F1
:1017C000F9F0281B390B2430310580F48A819B8184
:1017D0006115710521F0FB019383828304C090930E
:1017E0006B0580936A05FE01329644C0FE01E20F4C
:1017F000F31F8193919322503109398328833AC092
:101800002091680530916905232B41F42091020253
:1018100030910302309369052093680520910002FE
:10182000309101022115310541F42DB73EB74091A9
:10183000040250910502241B350BE0916805F091DC
:101840006905E217F307A0F42E1B3F0B2817390791
:1018500078F0AC014E5F5F4F2417350748F04E0F0C
:101860005F1F50936905409368058193919302C06F
:10187000E0E0F0E0CF01DF91CF911F910F9108954B
:10188000CF93DF93009709F481C0FC013297138254
:101890001282A0916A05B0916B05109781F42081A6
:1018A0003181820F931F20916805309169052817B7
:1018B000390751F5F0936905E093680567C0ED01BC
:1018C00020E030E0CE17DF0740F44A815B819E01C3
:1018D00041155105F1F0EA01F5CFD383C283408170
:1018E0005181840F951FC817D90759F488819981B0
:1018F000840F951F0296918380838A819B819383B5
:1019000082832115310529F4F0936B05E0936A0574
:101910003DC0E901FB83EA8349915991C40FD51F6A
:10192000EC17FD0761F480819181840F951F029669
:10193000E90199838883828193819B838A83E0E094
:10194000F0E012968D919C911397009719F0FD018C
:10195000DC01F7CF8D919C9111979D012E5F3F4F38
:10196000820F931F20916805309169052817390768
:1019700069F4309729F410926B0510926A0502C041
:1019800013821282B0936905A0936805DF91CF910D
:1019900008956F927F928F929F92AF92BF92CF9253
:1019A000DF92EF92FF920F931F93CF93DF930097F5
:1019B00081F4CB01DF91CF911F910F91FF90EF90B8
:1019C000DF90CF90BF90AF909F908F907F906F905F
:1019D000BFCEFC01E60FF71F9C0122503109E21730
:1019E000F30708F4A5C0EC01D9010D911C911197E2
:1019F00006171707A8F00530110508F497C0C801AD
:101A000004978617970708F491C002501109061B26
:101A1000170B019311936D937C93CF0131DF86C037
:101A20005B01A01AB10A4C01800E911EA0916A05BB
:101A3000B0916B05612C712CE12CF12C109709F4FD
:101A400046C08D919C911197A815B905B1F56C010F
:101A500042E0C40ED11CCA14DB0478F14C018A1890
:101A60009B08640142E0C40ED11C1296BC901297F0
:101A70001396AC91B5E0CB16D10440F0B282A383AB
:101A800091828082D9016D937C9309C00E5F1F4FB4
:101A9000800F911FF90191838083EB2DFA2FE114C0
:101AA000F10431F0D7011396FC93EE9312973EC0E8
:101AB000F0936B05E0936A0539C06816790608F45F
:101AC0003C017D0112960D90BC91A02DB7CF809165
:101AD00068059091690588169906E1F466167706FF
:101AE000C8F48091000290910102009741F48DB7F3
:101AF0009EB74091040250910502841B950BE81794
:101B0000F907B0F4F0936905E0936805F901718372
:101B100060830CC0CB011CDE7C01009749F0A8015A
:101B2000BE011BD0CE01ACDEC70104C0CE0102C095
:101B300080E090E0DF91CF911F910F91FF90EF90A7
:101B4000DF90CF90BF90AF909F908F907F906F90DD
:101B5000089581E090E0F89410C0FB01DC0102C020
:101B600001900D9241505040D8F70895FB01DC01DF
:101B700001900D920020E1F7089510E0CBEFD0E046
:101B800000E005C0802FFE01DBDD2196011DCC3F6A
:0C1B9000D10780E00807B1F7F894FFCF00
:101B9C0000006C05800000004000140054000000A0
:101BAC000000A0013F062F01EC0160013E01520133
:101BBC00000000002703FB02CF03CF02F302DF0279
:101BCC00D00200000000FB043F06CF03CE03436F9E
:101BDC006E6E656374696F6E2053746172746564A4
:101BEC00000D0A004154006675636B7965616821CC
:101BFC00006D617A652072656164206572726F7226
:101C0C000053656E642041543A202020202020206F
:101C1C00007C20207C20207C20207C007C2D2D2012
:101C2C002D2D202D2D7C0052656369657665642011
:101C3C006D617A653A2020007C2020202020202015
:041C4C00207C0000F8
:00000001FF
