:10000000FBC0000029C1000027C1000025C100007D
:1000100023C1000021C100001FC100001DC100005C
:100020001BC1000019C1000017C1000015C100006C
:1000300013C1000011C100000FC100000DC100007C
:100040000BC1000009C1000007C1000005C100008C
:1000500003C1000001C10000FFC0000063C4000034
:10006000FBC0000029C40000FEC30000F5C0000072
:10007000F3C00000F1C00000EFC00000EDC00000C0
:10008000EBC00000E9C00000E7C00000E5C00000D0
:10009000E3C00000E1C00000DFC000008DC400002C
:1000A000DBC00000D9C00000D7C00000D5C00000F0
:1000B000D3C00000D1C00000CFC00000CDC0000000
:1000C000CBC00000C9C00000C7C00000C5C0000010
:1000D000C3C00000C1C0000090C3000065C30000A1
:1000E000BBC00000E506E806D706DB06DF061F07F3
:1000F000EC06F006F606FA06FE06040708070C07EB
:100100001F07120716071A07000022002500280003
:100110002B002E003100340002010000050108010F
:100120000B0105050505070508080808020202027B
:100130000A0A080804040404010101010101010183
:100140000303030303030303040707070C0C0C0C4E
:100150000C0C0C0C02020202060606060606060637
:100160000B0B0B0B0B0B0B0B0102102020080810C4
:100170002040102040800201020108040201010217
:1001800004081020408080402010080402018004F0
:10019000020180402010080402010804020101024B
:1001A0000408102040800102040810204080000054
:1001B0000A0B02090C0D0E080703040100000000E1
:1001C000000000000000000000000000000000002F
:1001D00000000000000000000000121110000000EC
:1001E000000000000000000000000000000000000F
:1001F00000000000A60A260A11241FBECFEFD1E29C
:10020000DEBFCDBF00E00CBF25E0A8EAB2E001C030
:100210001D92A136B207E1F712E0A0E0B2E0E6E3FA
:10022000FCE100E00BBF02C007900D92A83AB107B5
:10023000D9F710E0CBEFD0E000E006C0219701092C
:10024000802FFE010E94ED0BCA3FD10780E0080716
:10025000A9F76DD60C940A0ED3CE08950895FC012B
:10026000538D448D252F30E0842F90E0821B930B1B
:10027000541710F0CF96089501970895FC01918DC1
:10028000828D981761F0828DDF01A80FB11D5D96F8
:100290008C91928D9F5F9F73928F90E008958FEF66
:1002A0009FEF0895FC01918D828D981731F0828D1A
:1002B000E80FF11D858D90E008958FEF9FEF089571
:1002C000FC01918D228D892F90E0805C9F4F821BD5
:1002D00091098F739927089585E693E0F1DF21E076
:1002E000892B09F420E0822F089582E094E0E8DF72
:1002F00021E0892B09F420E0822F0895FC01848DF0
:10030000DF01A80FB11DA35ABF4F2C91848D90E03F
:1003100001968F739927848FA689B7892C93A0891A
:10032000B1898C91837080648C93938D848D9813A4
:1003300006C00288F389E02D80818F7D8083089537
:10034000EF92FF920F931F93CF93DF93EC0181E025
:10035000888F9B8D8C8D981305C0E889F9898081E1
:1003600085FD25C0F62E0B8D10E00F5F1F4F0F731C
:100370001127E02E8C8DE8120BC00FB607FCFACFC8
:10038000E889F989808185FFF5CFCE01B7DFF2CF0B
:100390008B8DFE01E80FF11DE35AFF4FF0829FB7EE
:1003A000F8940B8FEA89FB89808180620AC09FB72D
:1003B000F894EE89FF896083E889F98980818370E8
:1003C000806480839FBF81E090E0DF91CF911F9197
:1003D0000F91FF90EF900895CF93DF93EC01888DFC
:1003E0008823C1F0EA89FB89808185FD05C0A88941
:1003F000B9898C9186FD0EC00FB607FCF5CF8081C0
:1004000085FFF2CFA889B9898C9185FFEDCFCE0108
:1004100075DFE8CFDF91CF91089580E090E0892BE0
:1004200019F063DF811120C080E090E0892B41F05A
:1004300080E090E0892B21F00E940000811117C01C
:1004400080E090E0892B41F080E090E0892B21F062
:100450000E94000081110EC080E090E0892B79F0AD
:100460003BDF81110AC008950E940000DDCF0E9489
:100470000000E6CF0E940000EFCF0C94000008952A
:100480003FB7F8948091560390915703A091580379
:10049000B091590326B5A89B05C02F3F19F00196CE
:1004A000A11DB11D3FBFBA2FA92F982F8827820FFA
:1004B000911DA11DB11DBC01CD0142E0660F771F4A
:1004C000881F991F4A95D1F708958F929F92AF92F6
:1004D000BF92CF92DF92EF92FF926B017C01D0DF4F
:1004E0004B015C01C114D104E104F104E9F0C8DF5F
:1004F000DC01CB0188199909AA09BB09883E934000
:10050000A105B10578F321E0C21AD108E108F1088C
:1005100088EE880E83E0981EA11CB11CC114D10482
:10052000E104F10421F7DECFFF90EF90DF90CF9050
:10053000BF90AF909F908F90089585ED8093BC0001
:100540008091BC0084FDFCCF10926003089540911F
:100550000A03262F30E0240F311D21323105DCF44F
:10056000209160032430C9F4FC0180E090E08617FC
:1005700058F430910A032191DC01A651BD4FA30F1D
:10058000B11D2C930196F3CF80910A03680F6093FD
:100590000A0380E0089581E0089582E008950895B7
:1005A000E091640380916303E81730F4F0E0E653D0
:1005B000FD4F808190E008958FEF9FEF0895909117
:1005C000640380916303981750F4E92FF0E0E65339
:1005D000FD4F208130E09F5F9093640302C02FEFB6
:1005E0003FEFC90108958091630390E02091640377
:1005F000821B91090895CF92DF92EF92FF920F93A1
:100600001F93CF93DF937C01CB018A012091C90214
:10061000222389F0EB016B01C40ED51ECC15DD053C
:1006200061F06991D701ED91FC910190F081E02D8D
:10063000C7011995F3CF642F8ADFC801DF91CF91ED
:100640001F910F91FF90EF90DF90CF900895CF937F
:10065000DF931F92CDB7DEB769832091C9022223B1
:10066000D1F020916103203240F021E030E0FC0124
:100670003383228380E090E014C080916203E82FEE
:10068000F0E0E755FD4F998190838F5F809362037F
:100690008093610304C061E0CE01019658DF81E0E0
:1006A00090E00F90DF91CF910895CF93FC01C4812A
:1006B00021E02093C902C093A80210926203109215
:1006C00061038385682B8FE994E0C1DF909161031A
:1006D000913208F045C0809160038111FCCF82E027
:1006E0008093600381E080935F038FEF80932D03FD
:1006F00010924F0390934E03A9EAB2E0EEE2F3E0CA
:1007000080E0981721F02D9121938F5FFACF1092FE
:10071000500380915003CC0FC82BC093500380919D
:100720005E03813061F410925E03809150038093E8
:10073000BB008091BC0083FDF8CF85EC01C085EE45
:100740008093BC00809160038230E1F380912D039F
:100750008F3F31F080912D03803211F080912D0375
:1007600010926203109261031092C902CF91089512
:100770000F931F93CF938C01C62F97DF6C2F64606C
:10078000C80193DF6C2F6B7FC8018FDF83EC90E093
:100790000197F1F7CF911F910F910895089580E08F
:1007A00090E008950E94F60D1F920F920FB60F92DF
:1007B00011240BB60F922F933F934F935F936F9338
:1007C0007F938F939F93AF93BF93EF93FF9385E6B0
:1007D00093E094DDFF91EF91BF91AF919F918F9145
:1007E0007F916F915F914F913F912F910F900BBE31
:1007F0000F900FBE0F901F9018951F920F920FB67B
:100800000F9211240BB60F922F938F939F93EF9318
:10081000FF93E0917503F09176038081E0917B0373
:10082000F0917C0382FD12C0908180917E038F5FE6
:100830008F7320917F03821751F0E0917E03F0E0E7
:10084000EB59FC4F958F80937E0301C08081FF910F
:10085000EF919F918F912F910F900BBE0F900FBE34
:100860000F901F9018951F920F920FB60F921124A0
:100870000BB60F922F933F934F935F936F937F939A
:100880008F939F93AF93BF93EF93FF9382E094E096
:1008900035DDFF91EF91BF91AF919F918F917F9146
:1008A0006F915F914F913F912F910F900BBE0F90E1
:1008B0000FBE0F901F9018951F920F920FB60F92B8
:1008C00011240BB60F922F938F939F93EF93FF9367
:1008D000E0911204F09113048081E0911804F091EA
:1008E000190482FD12C0908180911B048F5F8F7369
:1008F00020911C04821751F0E0911B04F0E0EE5FA0
:10090000FB4F958F80931B0401C08081FF91EF9175
:100910009F918F912F910F900BBE0F900FBE0F9054
:100920001F9018951F920F920FB60F9211242F93BC
:100930003F938F939F93AF93BF9380915203909176
:100940005303A0915403B09155033091510323E018
:10095000230F2D3720F40196A11DB11D05C026E8F7
:10096000230F0296A11DB11D2093510380935203C2
:1009700090935303A0935403B0935503809156036F
:1009800090915703A0915803B09159030196A11D6E
:10099000B11D8093560390935703A0935803B093CF
:1009A0005903BF91AF919F918F913F912F910F90DC
:1009B0000FBE0F901F9018951F920F920FB60F92B7
:1009C00011240BB60F922F933F934F935F936F9326
:1009D0007F938F939F93AF93BF93EF93FF938091F8
:1009E000B900887F803609F49CC068F5883209F424
:1009F0005BC090F4803109F454C038F4882309F4C2
:100A0000F6C0883009F44DC0F5C0883109F44CC0F7
:100A1000803209F45DC0EEC0803409F468C048F447
:100A2000803309F455C0883309F0E4C080932D0366
:100A3000D8C0803509F44FC0883509F45DC08834CA
:100A400009F0D8C0D6C0883909F4C7C0A8F48837DF
:100A500009F467C038F4883609F463C0803709F4B4
:100A600060C0C8C0883809F4B8C0803909F45FC0D4
:100A7000803809F0BFC05BC0803B09F486C038F401
:100A8000803A09F466C0883A09F47FC0B3C0803C5C
:100A900009F4A7C0883C09F4A4C0883B09F48AC0C3
:100AA000A9C08091500310C090914F0380914E03D4
:100AB000981770F5E0914F0381E08E0F80934F03FC
:100AC000F0E0E25DFC4F80818093BB0085EC86C046
:100AD00080932D038EC0E0914F0381E08E0F8093B1
:100AE0004F038091BB00F0E0E25DFC4F808390916A
:100AF0004F0380914E036EC0E0914F0381E08E0F53
:100B000080934F038091BB00F0E0E25DFC4F808357
:100B100080915F0381116DC081E080935E0384EA60
:100B200061C083E08093600310922C03CFCF80914B
:100B30002C03803208F051C0E0912C0381E08E0F2D
:100B400080932C038091BB00F0E0E45FFC4F808336
:100B5000BDCF85EC8093BC001092600380912C0384
:100B6000803230F4E0912C03F0E0E45FFC4F10821F
:100B700060912C0370E0E0915A03F0915B038CE0EC
:100B800093E0199510922C0335C084E080936003A4
:100B900010920B0310920A03E0915C03F0915D0345
:100BA000199580910A03811105C081E080930A03A1
:100BB0001092EA02E0910B0381E08E0F80930B0309
:100BC000F0E0E651FD4F80818093BB0090910B03D4
:100BD00080910A03981708F479CF85E88093BC00C8
:100BE00009C085EC8093BC001092600303C0109292
:100BF0002D03A3DCFF91EF91BF91AF919F918F9156
:100C00007F916F915F914F913F912F910F900BBE0C
:100C10000F900FBE0F901F9018950F931F93CF93B7
:100C2000DF938C01C62FD42F607F642BA1DD80E180
:100C3000C89FB00111246D2BC801DF91CF911F9186
:100C40000F9196CD41E0E9DF81E090E00895CF92E9
:100C5000DF92EF92FF920F931F93CF93DF936C017C
:100C60007A018B01C0E0D0E0CE15DF0581F0D8011C
:100C70006D918D01D601ED91FC910190F081E02DF7
:100C8000C6011995892B11F02196EECF7E01C7017F
:100C9000DF91CF911F910F91FF90EF90DF90CF9058
:100CA0000895FC01448155816081718181E595E061
:100CB000CECFFC01A089B18982E08C93A485B58553
:100CC0001C92A685B78580E18C93108EA489B58986
:100CD00086E08C93A289B3898C9180618C93A289E0
:100CE000B3898C9188608C93A289B3898C91806838
:100CF0008C930288F389E02D80818F7D8083089515
:100D0000CF93DF93CDB7DEB728970FB6F894DEBF49
:100D10000FBECDBF98E0E6E0F2E0DE011196019053
:100D20000D929A95E1F790915905961710F46FEF8F
:100D3000690FFE013196E60FF11DE60FF11D60818E
:100D4000680F606840E081E595E028960FB6F8945A
:100D5000DEBF0FBECDBFDF91CF915FCF40E061E03E
:100D600081E595E05ADF8BE39FE10197F1F7089564
:100D700090E0FC01E255FE4F4491FC01E859FE4F22
:100D80002491FC01EE5DFE4F9491992309F465C016
:100D9000442309F454C050E0FA013197E231F105DF
:100DA00008F04DC08827EE58FF4F8F4F16C5809131
:100DB00080008F7707C0809180008F7D03C0809175
:100DC0008000877F809380003AC084B58F7702C00F
:100DD00084B58F7D84BD33C08091B0008F7703C010
:100DE0008091B0008F7D8093B00029C080919000E9
:100DF0008F7707C0809190008F7D03C08091900015
:100E0000877F809390001BC08091A0008F7707C0E0
:100E10008091A0008F7D03C08091A000877F809388
:100E2000A0000DC0809120018F7707C08091200124
:100E30008F7D03C080912001877F80932001E92F5F
:100E4000F0E0EE0FFF1FE85FFE4FA591B4918FB762
:100E5000F894EC91E22BEC938FBF0895DC01ED91B7
:100E6000FC910190F081E02D19946115710579F0E4
:100E7000FB0101900020E9F73197AF01461B570BAA
:100E8000DC01ED91FC910280F381E02D199480E06A
:100E900090E00895CF93DF93BC0182E094E0E5DF1A
:100EA000EC0165EA72E082E094E0DFDF8C0F9D1FC9
:100EB000DF91CF910895D9CF0F931F93CF93DF93F5
:100EC0008C014CDF60E080E01BDF8EE1809FE00161
:100ED000819FD00D1124CE0189549B4FE2DE61E049
:100EE00080E00EDFCE0183549B4FDBDE62E080E0CA
:100EF00007DFCE018D539B4FD4DE63E080E000DF3F
:100F0000CE0187539B4FCDDEEDE4F5E080819181EA
:100F10009093500580934F051183008366EA72E039
:100F200082E094E0DF91CF911F910F91C4CFCF93D6
:100F3000DF93CDB7DEB7A1970FB6F894DEBF0FBE33
:100F4000CDBF789484B5826084BD84B5816084BD52
:100F500085B5826085BD85B5816085BD80916E0057
:100F6000816080936E001092810080918100826088
:100F700080938100809181008160809381008091C5
:100F800080008160809380008091B10084608093B4
:100F9000B1008091B00081608093B0008091910099
:100FA0008260809391008091910081608093910094
:100FB000809190008160809390008091A100826078
:100FC0008093A1008091A10081608093A100809115
:100FD000A00081608093A0008091210182608093B5
:100FE0002101809121018160809321018091200164
:100FF00081608093200180917A00846080937A00E0
:1010000080917A00826080937A0080917A0081607A
:1010100080937A0080917A00806880937A001092A1
:10102000C100109264031092630310926203109245
:1010300061031092600381E080935F0310925E036E
:1010400084E196DE85E194DE8091B9008E7F809305
:10105000B9008091B9008D7F8093B90088E48093B6
:10106000B80085E48093BC008DE291E090935D032D
:1010700080935C038EE291E090935B0380935A032C
:101080001092560580915B05823018F098E090939D
:1010900056058093590562E370E080E090E015DA30
:1010A00060915C0581E595E000DB68EE73E080E02F
:1010B00090E00BDA60E381E595E05ADB0BE416E49F
:1010C000C8010197F1F760E381E595E051DBC801C4
:1010D0000197F1F760E381E595E04ADB83E592E073
:1010E0000197F1F760E281E595E042DB60915605FA
:1010F000606240E081E595E090DD84E080935705F3
:1011000040E06CE081E595E088DD28DE82E08093B8
:10111000580540E066E081E595E07FDD40E062E073
:1011200081E595E07ADD8BE39FE10197F1F788E0B7
:1011300080935C0560E081E595E0B7DA0FDE82E040
:1011400094E0B7DD64EF71E080E090E0BED98EE31B
:1011500092E0A0DE85E693E0ACDD64EF71E080E034
:1011600090E0B3D961E572E085E693E0A4DE80E02B
:1011700090E0A2DE60E088E0C3DD44E6F42E5AE0B1
:10118000852E912CA12CB12C85E693E099D8892B42
:1011900009F43EC185E693E071D88093B504682FC9
:1011A00081E595E05BDE6091B50482E094E056DE77
:1011B0008091B50420ED280F2B3014F029EC280F76
:1011C0002093B6048091AB049091AC04A091AD043F
:1011D000B091AE0434E0880F991FAA1FBB1F3A9547
:1011E000D1F72F70822B9927AA27BB278093AB04B6
:1011F0009093AC04A093AD04B093AE048B3A9105E8
:10120000A105B10509F004C181E090E055DE60E080
:101210008FE076DD85E693E031D890ED980F9B3036
:1012200014F099EC980F9093B10485E693E026D8DA
:1012300090ED980F9B3014F099EC980F9093B204B6
:1012400085E693E01BD890ED980F9B3014F099EC55
:10125000980F9093B3043091B1042091B204220FFF
:10126000822F880F880F280F3F9D200D1124290FF2
:101270002093B40430E040E050E019A28E010F5DED
:101280001F4FCA01B901A501940185D2605DF80123
:1012900062938F01211531054105510591F7BF0179
:1012A00081E595E0E2DD8091AF049091B004892B57
:1012B00009F0AEC01091B40484E592E0EBDD6FE577
:1012C00072E082E094E0F7DD16FF0AC061E083E09F
:1012D00017DD6CE781E595E0C1DD63EA72E002C0ED
:1012E00061E772E082E094E0E6DD60E772E082E0D0
:1012F00094E0E1DD15FF0AC061E086E001DD6CE706
:1013000081E595E0ABDD63EA72E002C061E772E07F
:1013100082E094E0D0DD81EA92E0BCDD63EA72E035
:1013200082E094E0C8DD14FF0BC062E081E0E8DCFD
:101330006CE572E081E595E0BEDD6CE572E002C02F
:1013400060E772E082E094E0B6DD61E772E082E09F
:1013500094E0B1DD13FF0BC062E084E0D1DC6CE50A
:1013600072E081E595E0A7DD6CE572E002C060E720
:1013700072E082E094E09FDD61E772E082E094E059
:101380009ADD12FF0BC062E087E0BADC6CE572E028
:1013900081E595E090DD6CE572E002C060E772E007
:1013A00082E094E088DD83EA92E074DD6FE572E02C
:1013B00082E094E080DD11FF0AC063E083E0A0DCFE
:1013C0006CE781E595E04ADD63EA72E002C061E71F
:1013D00072E082E094E06FDD60E772E082E094E02A
:1013E0006ADD10FF0AC063E086E08ADC6CE781E515
:1013F00095E034DD63EA72E002C061E772E082E00A
:1014000094E059DD81EA92E045DD84E592E042DD39
:1014100082E094E00E946001892BA9F082E094E0D0
:101420000E943E018093B504682F82E094E00E9400
:10143000A0016091B50485E693E010DD6091B504EC
:1014400081E595E00BDD0E940D029ECECF93DF93E8
:10145000CDE4D5E06E978A899B895FD28C859D8586
:101460005CD28E819F8159D28881998156D284E045
:10147000C73BD80779F7DF91CF910895EF92FF929C
:101480000F931F93CF93DF93EC017B018A01888137
:101490009981009729F02A813B8124173507E8F4C8
:1014A000B8016F5F7F4FC2D2009759F0998388834C
:1014B0001B830A832C813D81232B79F4FC0110824C
:1014C0000CC088819981009709F027D2198218826F
:1014D0001D821C821B821A8206C01D830C83B701E9
:1014E0008881998190D3CE01DF91CF911F910F9187
:1014F000FF90EF900895FC011182108213821282F6
:101500001582148240E050E067EA72E0B7CFCF93D3
:10151000DF93EC016115710551F0FB010190002092
:10152000E9F73197AF01461B570BA8DF0BC0888145
:101530009981009709F0F1D1198218821D821C82CD
:101540001B821A82CE01DF91CF9108950F931F93D2
:10155000CF93DF93109268031092670388EE93E0B5
:10156000A0E0B0E08093690390936A03A0936B03BB
:10157000B0936C0322E132E030936603209365035D
:1015800045E351E0509372034093710344E351E00B
:10159000509374034093730340E351E050937603F8
:1015A0004093750341E351E05093780340937703F0
:1015B00042E351E050937A034093790346E351E0CC
:1015C00050937C0340937B0310927E0310927F0321
:1015D000109280031092810310920504109204046B
:1015E0008093060490930704A0930804B093090421
:1015F000309303042093020425EC30E030930F0471
:1016000020930E0424EC30E0309311042093100456
:1016100020EC30E0309313042093120421EC30E0EE
:10162000309315042093140422EC30E03093170417
:101630002093160426EC30E030931904209318040C
:1016400010921B0410921C0410921D0410921E0490
:101650001092A2041092A1048093A3049093A40476
:10166000A093A504B093A60484E292E09093A00412
:1016700080939F04109254051092530586E392E0E4
:10168000909352058093510587E28093550584E13C
:1016900080935A0584E080935B0510925C05C7EB4C
:1016A000D4E00DE415E0CE0126DFCE01069623DF5F
:1016B000CE010C9620DFCE0142961DDF6E960C17F0
:1016C0001D0789F71092D4041092D30481E090E0B2
:1016D0009093F2048093F10482E090E090931005DF
:1016E00080930F0583E090E090932E0580932D0565
:1016F00084E090E090934C0580934B0563E672E0A4
:1017000087EB94E004DF63E772E08DEB94E0FFDEAB
:101710006EE772E083EC94E0FADE63E772E089EC56
:1017200094E0F5DE88E090E09093D0048093CF04BD
:101730001092D2041092D10469E872E085ED94E031
:10174000E6DE6AE972E08BED94E0E1DE6AE972E0E0
:1017500081EE94E0DCDE6AE972E087EE94E0D7DEA9
:101760008CE090E09093D0048093CF041092D20448
:101770001092D1041092AB041092AC041092AD04FC
:101780001092AE041092B5041092B604DF91CF917E
:101790001F910F910895A1E21A2EAA1BBB1BFD01F8
:1017A0000DC0AA1FBB1FEE1FFF1FA217B307E40740
:1017B000F50720F0A21BB30BE40BF50B661F771F98
:1017C000881F991F1A9469F7609570958095909578
:1017D0009B01AC01BD01CF010895EE0FFF1F881FD3
:1017E0008BBF0790F691E02D19940F931F93CF9321
:1017F000DF938230910510F482E090E0E0915F0584
:10180000F091600520E030E0A0E0B0E0309719F101
:10181000408151810281138148175907C8F084170C
:10182000950769F4109731F012960C93129713965E
:101830001C9327C000935F051093600522C02115FB
:10184000310519F04217530718F49A01BD01EF0151
:10185000DF01F801DBCF21153105F9F0281B390B29
:101860002430310580F48A819B816115710521F056
:10187000FB019383828304C09093600580935F058E
:10188000FE01329644C0FE01E20FF31F8193919353
:1018900022503109398328833AC020915D05309167
:1018A0005E05232B41F42091020230910302309314
:1018B0005E0520935D052091000230910102211503
:1018C000310541F42DB73EB7409104025091050215
:1018D000241B350BE0915D05F0915E05E217F307DF
:1018E000A0F42E1B3F0B2817390778F0AC014E5F90
:1018F0005F4F2417350748F04E0F5F1F50935E056A
:1019000040935D058193919302C0E0E0F0E0CF0148
:10191000DF91CF911F910F910895CF93DF9300979F
:1019200009F481C0FC01329713821282A0915F05F5
:10193000B0916005109781F420813181820F931F4F
:1019400020915D0530915E052817390751F5F09318
:101950005E05E0935D0567C0ED0120E030E0CE1745
:10196000DF0740F44A815B819E0141155105F1F08A
:10197000EA01F5CFD383C28340815181840F951F43
:10198000C817D90759F488819981840F951F029649
:10199000918380838A819B81938382832115310582
:1019A00029F4F0936005E0935F053DC0E901FB83F6
:1019B000EA8349915991C40FD51FEC17FD0761F4D3
:1019C00080819181840F951F0296E9019983888314
:1019D000828193819B838A83E0E0F0E012968D916F
:1019E0009C911397009719F0FD01DC01F7CF8D91C1
:1019F0009C9111979D012E5F3F4F820F931F209165
:101A00005D0530915E052817390769F4309729F490
:101A10001092600510925F0502C013821282B0938B
:101A20005E05A0935D05DF91CF9108956F927F923F
:101A30008F929F92AF92BF92CF92DF92EF92FF92DE
:101A40000F931F93CF93DF93009781F4CB01DF9126
:101A5000CF911F910F91FF90EF90DF90CF90BF90AB
:101A6000AF909F908F907F906F90BFCEFC01E60F5C
:101A7000F71F9C0122503109E217F30708F4A5C0B3
:101A8000EC01D9010D911C91119706171707A8F0C9
:101A90000530110508F497C0C80104978617970709
:101AA00008F491C002501109061B170B0193119302
:101AB0006D937C93CF0131DF86C05B01A01AB10A20
:101AC0004C01800E911EA0915F05B0916005612CC4
:101AD000712CE12CF12C109709F446C08D919C914A
:101AE0001197A815B905B1F56C0142E0C40ED11CDF
:101AF000CA14DB0478F14C018A189B08640142E0A7
:101B0000C40ED11C1296BC9012971396AC91B5E0FE
:101B1000CB16D10440F0B282A38391828082D90196
:101B20006D937C9309C00E5F1F4F800F911FF901C9
:101B300091838083EB2DFA2FE114F10431F0D7016A
:101B40001396FC93EE9312973EC0F0936005E093DA
:101B50005F0539C06816790608F43C017D011296CC
:101B60000D90BC91A02DB7CF80915D0590915E0541
:101B700088169906E1F466167706C8F4809100028B
:101B800090910102009741F48DB79EB740910402F5
:101B900050910502841B950BE817F907B0F4F093F8
:101BA0005E05E0935D05F901718360830CC0CB0194
:101BB0001CDE7C01009749F0A801BE011BD0CE01BC
:101BC000ACDEC70104C0CE0102C080E090E0DF912E
:101BD000CF911F910F91FF90EF90DF90CF90BF902A
:101BE000AF909F908F907F906F90089581E090E0EC
:101BF000F89410C0FB01DC0102C001900D9241502D
:101C00005040D8F70895FB01DC0101900D920020AF
:101C1000E1F7089510E0CBEFD0E000E005C0802FA1
:101C2000FE01DBDD2196011DCC3FD10780E00807D6
:061C3000B1F7F894FFCFAC
:101C36000000610580000000400014005400000010
:101C46000000A00127062F01EC0160013E015201B0
:101C5600000000002703FB02CF03CF02F302DF02DE
:101C6600D0020000000022062706CF03CE03436FF2
:101C76006E6E656374696F6E205374617274656409
:101C8600004154002D2D2D2D2D2D2D2D2D2D007C7B
:101C960020200053656E642041543A2020202020E5
:101CA6002020007C20207C20207C20207C007C2D95
:101CB6002D202D2D202D2D7C0052656369657665BE
:101CC60064206D617A653A2020007C202020202047
:081CD6002020207C000D0A0013
:00000001FF
