:1000000015C1000043C1000041C100003FC1000014
:100010003DC100003BC1000039C1000037C10000F4
:1000200035C10000B6C50000B4C50000B2C500006F
:100030002DC100002BC1000029C1000027C1000014
:1000400025C1000023C1000021C100001FC1000024
:100050001DC100001BC1000019C1000050C50000F7
:1000600015C1000099C400006EC400000FC100005B
:100070000DC100000BC1000009C1000007C1000054
:1000800005C1000003C1000001C10000FFC0000065
:10009000FDC00000FBC00000F9C00000F8C5000072
:1000A000F5C00000F3C00000F1C00000EFC0000088
:1000B000EDC00000EBC00000E9C00000E7C0000098
:1000C000E5C00000E3C00000E1C00000DFC00000A8
:1000D000DDC00000DBC00000D9C00000D7C00000B8
:1000E000D5C0000030053305220526052A056A051E
:1000F00037053B054105450549054F05530557059E
:100100006A055D056105650500000A0B02090C0D15
:100110000E080703040100000000000000000000BA
:1001200000000000000000000000000000000000CF
:10013000000000001211100000000000000000008C
:1001400000000000000000000000000000000000AF
:1001500020002300260029002C002F00320000017F
:10016000000003010601090100002100240027000E
:100170002A002D00300033000101000004010701B6
:100180000A0100002200250028002B002E0031006B
:10019000340002010000050108010B0105050505F9
:1001A000070508080808020202020A0A08080404EF
:1001B000040401010101010101010303030303031D
:1001C0000303040707070C0C0C0C0C0C0C0C0202AC
:1001D000020206060606060606060B0B0B0B0B0BA9
:1001E0000B0B010210202008081020401020408036
:1001F00002010201080402010102040810204080EB
:100200008040201008040201800402018040201078
:1002100008040201080402010102040810204080C1
:100220000102040810204080380A1C0A11241FBE55
:10023000CFEFD1E2DEBFCDBF00E00CBF12E0A0E007
:10024000B2E0EEE0F7E100E00BBF02C007900D92D4
:10025000AA36B107D9F724E0AAE6B2E001C01D92A0
:10026000A134B207E1F711E0C5E1D1E000E006C03A
:1002700021970109802FFE010E94560BC431D1073E
:1002800080E00807A9F77AD60C94760BB9CE0895CA
:100290000895FC01538D448D252F30E0842F90E08C
:1002A000821B930B541710F0CF9608950197089571
:1002B000FC01918D828D981761F0828DDF01A80F6E
:1002C000B11D5D968C91928D9F5F9F73928F90E090
:1002D00008958FEF9FEF0895FC01918D828D9817FF
:1002E00031F0828DE80FF11D858D90E008958FEF3C
:1002F0009FEF0895FC01918D228D892F90E0805C05
:100300009F4F821B91098F73992708958DE693E083
:10031000F1DF21E0892B09F420E0822F0895FC0110
:10032000848DDF01A80FB11DA35ABF4F2C91848D7E
:1003300090E001968F739927848FA689B7892C93B3
:10034000A089B1898C91837080648C93938D848D06
:10035000981306C00288F389E02D80818F7D808309
:100360000895EF92FF920F931F93CF93DF93EC01C9
:1003700081E0888F9B8D8C8D981305C0E889F98961
:10038000808185FD25C0F62E0B8D10E00F5F1F4F7D
:100390000F731127E02E8C8DE8120BC00FB607FCEF
:1003A000FACFE889F989808185FFF5CFCE01B7DFE3
:1003B000F2CF8B8DFE01E80FF11DE35AFF4FF08263
:1003C0009FB7F8940B8FEA89FB89808180620AC00D
:1003D0009FB7F894EE89FF896083E889F989808165
:1003E0008370806480839FBF81E090E0DF91CF9134
:1003F0001F910F91FF90EF900895CF93DF93EC0141
:10040000888D8823C1F0EA89FB89808185FD05C03C
:10041000A889B9898C9186FD0EC00FB607FCF5CF6F
:10042000808185FFF2CFA889B9898C9185FFEDCFB6
:10043000CE0175DFE8CFDF91CF91089580E090E0A5
:10044000892B19F063DF811125C080E090E0892BB2
:1004500041F080E090E0892B21F00E9400008111A2
:100460001CC080E090E0892B41F080E090E0892B77
:1004700021F00E940000811113C080E090E0892BE0
:10048000A1F080E090E0892B81F00E9400008111B2
:100490000AC008950E940000D8CF0E940000E1CF5A
:1004A0000E940000EACF0C94000008953FB7F89432
:1004B0008091580390915903A0915A03B0915B0326
:1004C00026B5A89B05C02F3F19F00196A11DB11DAF
:1004D0003FBFBA2FA92F982F8827820F911DA11DEA
:1004E000B11DBC01CD0142E0660F771F881F991F27
:1004F0004A95D1F708958F929F92AF92BF92CF9273
:10050000DF92EF92FF926B017C01D0DF4B015C0127
:10051000C114D104E104F104E9F0C8DFDC01CB012E
:1005200088199909AA09BB09883E9340A105B1051C
:1005300078F321E0C21AD108E108F10888EE880EAC
:1005400083E0981EA11CB11CC114D104E104F10484
:1005500021F7DECFFF90EF90DF90CF90BF90AF906C
:100560009F908F90089520915E0330915F0328172C
:10057000390771F490915C0380915D03981741F005
:10058000E0915C03F0E0ED5EFC4F808190E0089527
:100590008FEF9FEF089508951F93CF93DF93DC01B2
:1005A0005C968D919C915D97009739F421E030E045
:1005B00013963C932E9312973BC05196ED91FC916C
:1005C000529750962C915097322F30951FB75E96C8
:1005D0004C915E97742F727041FD6095F894408144
:1005E000772311F0422B01C043234083EC01219774
:1005F000F1F748E0508160FF02C0522B01C0532345
:100600005083EC012197F1F76695415099F780816D
:10061000772319F08323808302C0282B20831FBFF8
:100620005C968D919C915D970197F1F781E090E048
:10063000DF91CF911F91089520915E0330915F0368
:100640002817390769F480915D0320915C0390E0DD
:10065000805C9F4F821B910960E470E00C94430B17
:1006600080E090E0089520915E0330915F032817A9
:100670003907B9F490915C0380915D03981789F074
:10068000E0915C03F0E0ED5EFC4F808120915C0323
:1006900030E02F5F3F4F2F73332720935C0390E0B0
:1006A00008958FEF9FEF089585ED8093BC008091B2
:1006B000BC0084FDFCCF1092660308954091CC02EB
:1006C000262F30E0240F311D21323105DCF420913A
:1006D00066032430C9F4FC0180E090E0861758F4EA
:1006E0003091CC022191DC01A455BD4FA30FB11D67
:1006F0002C930196F3CF8091CC02680F6093CC02CB
:1007000080E0089581E0089582E00895E0916A0311
:1007100080916903E81730F4F0E0E457FD4F8081E1
:1007200090E008958FEF9FEF089590916A03809174
:100730006903981750F4E92FF0E0E457FD4F20814A
:1007400030E09F5F90936A0302C02FEF3FEFC90133
:1007500008958091690390E020916A03821B9109BA
:100760000895CF92DF92EF92FF920F931F93CF9352
:10077000DF937C01CB018A0120918B02222389F037
:10078000EB016B01C40ED51ECC15DD0561F069913E
:10079000D701ED91FC910190F081E02DC7011995F1
:1007A000F3CF642F8BDFC801DF91CF911F910F91A1
:1007B000FF90EF90DF90CF900895CF93DF931F923B
:1007C000CDB7DEB7698320918B022223D1F020912F
:1007D0006703203240F021E030E0FC0133832283C4
:1007E00080E090E014C080916803E82FF0E0E559C4
:1007F000FD4F998190838F5F809368038093670397
:1008000004C061E0CE01019659DF81E090E00F90D5
:10081000DF91CF910895CF93FC01C48121E0209313
:100820008B02C0936A02109268031092670383855B
:10083000682B8AE094E0C1DF90916703913208F061
:1008400045C0809166038111FCCF82E080936603EE
:1008500081E0809365038FEF8093EF021092110384
:1008600090931003ABE6B2E0E0EFF2E080E098177F
:1008700021F02D9121938F5FFACF10921203809176
:100880001203CC0FC82BC0931203809164038130F4
:1008900061F410926403809112038093BB008091F5
:1008A000BC0083FDF8CF85EC01C085EE8093BC00D1
:1008B000809166038230E1F38091EF028F3F31F047
:1008C0008091EF02803211F08091EF021092680364
:1008D0001092670310928B02CF9108950F931F938C
:1008E000CF938C01C62F97DF6C2F6460C80193DF14
:1008F0006C2F6B7FC8018FDF83EC90E00197F1F7DD
:10090000CF911F910F9108950F931F93CF93DF9372
:100910008C01C62FD42F607F642BE0DF80E1C89F5D
:10092000B00111246D2BC801DF91CF911F910F9160
:10093000D5CF41E0E9DF81E090E00895089580E0BF
:1009400090E00895CFD61F920F920FB60F92112408
:100950000BB60F922F933F934F935F936F937F93B9
:100960008F939F93AF93BF93EF93FF938DE693E0A5
:10097000D6DCFF91EF91BF91AF919F918F917F91C5
:100980006F915F914F913F912F910F900BBE0F9000
:100990000FBE0F901F9018951F920F920FB60F92D7
:1009A00011240BB60F922F938F939F93EF93FF9386
:1009B000E0917D03F0917E038081E0918303F091CB
:1009C000840382FD12C09081809186038F5F8F73B4
:1009D00020918703821751F0E0918603F0E0E359FC
:1009E000FC4F958F8093860301C08081FF91EF912A
:1009F0009F918F912F910F900BBE0F900FBE0F9074
:100A00001F901895362F90E0FC01E85FFE4F44914F
:100A1000FC01EE51FE4F2491FC01E456FE4F9491EF
:100A2000992309F46BC0442309F454C050E0FA013F
:100A30003197E231F10508F04DC08827EE58FF4F9D
:100A40008F4F34C6809180008F7707C080918000DF
:100A50008F7D03C080918000877F809380003AC0A3
:100A600084B58F7702C084B58F7D84BD33C08091FB
:100A7000B0008F7703C08091B0008F7D8093B0006D
:100A800029C0809190008F7707C0809190008F7D62
:100A900003C080919000877F809390001BC080915D
:100AA000A0008F7707C08091A0008F7D03C0809148
:100AB000A000877F8093A0000DC0809120018F77D8
:100AC00007C0809120018F7D03C080912001877F26
:100AD00080932001E92FF0E0EE0FFF1FEE57FE4F4D
:100AE000A591B4919FB7F894311104C08C912095D1
:100AF000282302C0EC912E2B2C939FBF08951F92A8
:100B00000F920FB60F9211242F933F938F939F93C1
:100B1000AF93BF938091540390915503A0915603D6
:100B2000B09157033091530323E0230F2D3720F466
:100B30000196A11DB11D05C026E8230F0296A11D37
:100B4000B11D209353038093540390935503A093B6
:100B50005603B09357038091580390915903A09185
:100B60005A03B0915B030196A11DB11D80935803F8
:100B700090935903A0935A03B0935B03BF91AF9135
:100B80009F918F913F912F910F900FBE0F901F90CB
:100B900018951F920F920FB60F9211240BB60F9259
:100BA0002F933F934F935F936F937F938F939F9375
:100BB000AF93BF93EF93FF93E0915E03F0915F03D8
:100BC000309709F451C0968DA685B785858591FF2C
:100BD00004C09C91892329F447C09C91892309F082
:100BE00043C0A389B4899C918589809589238C937E
:100BF000868997890197F1F7608D718DA685B785F4
:100C0000558538E020E0CB010197F1F7822F90E085
:100C100095958795282F4C91452309F020683150F0
:100C200091F7868D81FD209580915D0390E001967E
:100C30008F73992730915C03381749F0A0915D03B9
:100C4000B0E0AD5EBC4F2C9380935D0303C0868DF6
:100C50008160868F828D938D0197F1F7A389B48986
:100C60009C918589892B8C93FF91EF91BF91AF91D6
:100C70009F918F917F916F915F914F913F912F91B4
:100C80000F900BBE0F900FBE0F901F9018951F92E4
:100C90000F920FB60F9211240BB60F922F933F9322
:100CA0004F935F936F937F938F939F93AF93BF9374
:100CB000EF93FF938091B900887F803609F49CC040
:100CC00068F5883209F45BC090F4803109F454C0AF
:100CD00038F4882309F4F6C0883009F44DC0F5C013
:100CE000883109F44CC0803209F45DC0EEC0803414
:100CF00009F468C048F4803309F455C0883309F01A
:100D0000E4C08093EF02D8C0803509F44FC0883525
:100D100009F45DC0883409F0D8C0D6C0883909F418
:100D2000C7C0A8F4883709F467C038F4883609F4D6
:100D300063C0803709F460C0C8C0883809F4B8C0FF
:100D4000803909F45FC0803809F0BFC05BC0803BC8
:100D500009F486C038F4803A09F466C0883A09F488
:100D60007FC0B3C0803C09F4A7C0883C09F4A4C08C
:100D7000883B09F48AC0A9C08091120310C09091E9
:100D8000110380911003981770F5E091110381E031
:100D90008E0F80931103F0E0E051FD4F808180932E
:100DA000BB0085EC86C08093EF028EC0E0911103FA
:100DB00081E08E0F809311038091BB00F0E0E05141
:100DC000FD4F808390911103809110036EC0E091DC
:100DD000110381E08E0F809311038091BB00F0E03E
:100DE000E051FD4F80838091650381116DC081E0EA
:100DF0008093640384EA61C083E080936603109269
:100E0000EE02CFCF8091EE02803208F051C0E09127
:100E1000EE0281E08E0F8093EE028091BB00F0E045
:100E2000E253FD4F8083BDCF85EC8093BC001092D0
:100E300066038091EE02803230F4E091EE02F0E041
:100E4000E253FD4F10826091EE0270E0E09160038A
:100E5000F09161038EEC92E019951092EE0235C08C
:100E600084E0809366031092CD021092CC02E09150
:100E70006203F091630319958091CC02811105C042
:100E800081E08093CC021092AC02E091CD0281E02F
:100E90008E0F8093CD02F0E0E455FD4F808180936A
:100EA000BB009091CD028091CC02981708F479CFC5
:100EB00085E88093BC0009C085EC8093BC0010924B
:100EC000660303C01092EF02EFDBFF91EF91BF9139
:100ED000AF919F918F917F916F915F914F913F91D2
:100EE0002F910F900BBE0F900FBE0F901F90189573
:100EF000CF92DF92EF92FF920F931F93CF93DF93E6
:100F00006C017A018B01C0E0D0E0CE15DF0581F0E5
:100F1000D8016D918D01D601ED91FC910190F08188
:100F2000E02DC6011995892B11F02196EECF7E0197
:100F3000C701DF91CF911F910F91FF90EF90DF904C
:100F4000CF900895DC01ED91FC910190F081E02DAE
:100F500019946115710579F0FB0101900020E9F702
:100F60003197AF01461B570BDC01ED91FC910280DC
:100F7000F381E02D199480E090E00895789484B591
:100F8000826084BD84B5816084BD85B5826085BD85
:100F900085B5816085BD80916E00816080936E0013
:100FA0001092810080918100826080938100809105
:100FB00081008160809381008091800081608093B6
:100FC00080008091B10084608093B1008091B00076
:100FD00081608093B0008091910082608093910045
:100FE0008091910081608093910080919000816058
:100FF000809390008091A10082608093A1008091F5
:10100000A10081608093A1008091A0008160809305
:10101000A0008091210182608093210180912101B3
:101020008160809321018091200181608093200163
:1010300080917A00846080937A0080917A00826047
:1010400080937A0080917A00816080937A00809109
:101050007A00806880937A001092C100E0917D034D
:10106000F0917E0382E08083E0917903F0917A032E
:101070001082E0917B03F0917C0380E180831092E9
:101080008503E0918103F091820386E08083E09103
:101090007F03F0918003808180618083E0917F03F2
:1010A000F0918003808188608083E0917F03F091DC
:1010B0008003808180688083E0917F03F0918003CA
:1010C00080818F7D808362E472E08DE693E041DF72
:1010D00065E572E08DE693E03CDF64EF71E080E06F
:1010E00090E009DA10923D0410923C0410923B0407
:1010F00010923A0410923904109238048FE190E073
:1011000090933F0480933E0480912E0496EF980FB5
:10111000943048F02EEC280F243028F022EC280FD1
:10112000283008F072C021E030E030933904209379
:1011300038042DE130E030933B0420933A042DE055
:1011400030E030933D0420933C04943060F02EEC6A
:10115000280F243040F022EC280F283008F064C11A
:10116000A8E6B0E063C1A8E6B0E0E8E6F0E02081E0
:10117000943048F09EEC980F943028F08E538830CD
:1011800010F484E001C081E0822B8C9380912E04C6
:1011900096EF980F943058F02EEC280F243038F04A
:1011A00022EC280F283030F020E030E005C02BE69C
:1011B00030E002C02DE630E0309336042093350451
:1011C000943010F49AEF0BC0823381F0833381F0B6
:1011D000843381F092EC980F983070F492EC980F71
:1011E00081E001C0880F9A95EAF707C088E005C042
:1011F00084E003C082E001C081E0809337048091E5
:101200003E0490913F040197F1F780913C04909146
:101210003D04892B49F1E0915E03F0915F0384E086
:10122000E232F80709F1309739F0A389B4899C912B
:101230008589809589238C93809140048E7F80934B
:10124000400410925D0310925C0382E294E090935C
:101250005F0380935E03E0913504F0913604908142
:1012600080913704892B808368E572E082E294E004
:1012700070DE64EF71E080E090E03DD910926A0387
:10128000109269031092680310926703109266032C
:1012900081E0809365031092640361E084E1B2DB36
:1012A00061E085E1AFDB8091B9008E7F8093B9006A
:1012B0008091B9008D7F8093B90088E48093B80055
:1012C00085E48093BC0087E491E09093630380936E
:1012D000620388E491E0909361038093600310922D
:1012E0001B0480912004823018F098E090931B0436
:1012F00080931E0462E370E080E090E0FCD860918F
:10130000210486E194E087DA68EE73E080E090E003
:10131000F2D860E386E194E0E1DACBE4D6E4CE01F2
:101320000197F1F760E386E194E0D8DA2197F1F7CD
:1013300060E386E194E0D2DA83E592E00197F1F789
:1013400060E286E194E0CADA60911B04606240E0EA
:1013500086E194E0D9DA84E080931C0440E06CE0FC
:1013600086E194E0D1DA40E061E086E194E0CCDA15
:10137000CBE3DFE1CE010197F1F782E080931D041A
:1013800040E066E086E194E0BFDA40E062E086E1BA
:1013900094E0BADACE010197F1F788E08093210456
:1013A00060E086E194E037DA40E061E086E194E0D5
:1013B000ABDA2197F1F76BE572E086E194E0C9DDE5
:1013C00082E294E039D9892B99F082E294E04BD9FA
:1013D00080936C03682F8DE693E0B4DD60916B031E
:1013E00082E294E0AFDD60916C0386E194E0AADDD7
:1013F0008DE693E00E947A01892BA1F08DE693E0BF
:101400000E94580180936B03682F8DE693E09ADD6C
:1014100060916B0382E294E095DD60916B0386E15D
:1014200094E090DD0BD8CCCFA0E0B0E0283008F4F9
:101430009CCEE0E0F0E09BCE84E392E09093230426
:101440008093220480915E0390915F0382529440C6
:1014500071F4E0913504F091360490818091370465
:1014600080958923808310925F0310925E03089514
:101470000F931F93CF93DF931092700310926F031B
:1014800088EE93E0A0E0B0E0809371039093720344
:10149000A0937303B093740324E032E030936E039F
:1014A00020936D0325EC30E030937A032093790389
:1014B00024EC30E030937C0320937B0320EC30E07D
:1014C00030937E0320937D0321EC30E03093800342
:1014D00020937F0322EC30E030938203209381033A
:1014E00026EC30E03093840320938303109286032C
:1014F00010928703109288031092890310920D04B2
:1015000010920C0480930E0490930F04A093100487
:10151000B093110426E132E030930B0420930A04C7
:10152000109225041092240480932604909327049B
:10153000A0932804B093290484E392E090932304B9
:1015400080932204109239041092380410923B04C4
:1015500010923A0410923D0410923C0410923F0401
:1015600010923E04609140046E7F6D7F6093400452
:101570006695617081E0682745DAE3EEF1E0249139
:10158000EDE9F1E08491882399F090E0880F991FAC
:10159000FC01E859FE4FA591B491FC01EE57FE4FB6
:1015A000859194918FB7F894EC91E22BEC938FBFD7
:1015B000E3EEF1E0E491E0933204EDE9F1E0E4914F
:1015C000F0E0EE0FFF1FEE57FE4F85919491909340
:1015D00034048093330402EE11E0F8012491CCE945
:1015E000D1E0FE0184918823C9F090E0880F991F13
:1015F000FC01E859FE4FA591B491FC01EE57FE4F56
:10160000459154913FB7F8949C91822F80959823EF
:101610009C93FA019081892380833FBF809140048D
:1016200081FD03C061E080E0EDD910922E04F80145
:10163000049100932F04FE01C491EC2FF0E0EE0F13
:10164000FF1FE25BFE4F859194919093310480934C
:101650003004109219041092180488E292E09093DA
:1016600017048093160487E280931A0484E1809320
:101670001F0484E08093200410922104DF91CF9115
:101680001F910F91089597FB072E16F4009406D032
:1016900077FD08D013D007FC05D03EF490958195D6
:1016A0009F4F0895709561957F4F0895EE0FFF1F2E
:1016B000881F8BBF0790F691E02D1994AA1BBB1BC6
:1016C00051E107C0AA1FBB1FA617B70710F0A61B42
:1016D000B70B881F991F5A95A9F780959095BC0163
:1016E000CD01089581E090E0F89400C011E0C5E1DB
:1016F000D1E000E005C0802FFE01D8DF2196011D5A
:0E170000C631D10780E00807B1F7F894FFCF9B
:10170E0000000000B10178074901FD017A0158017E
:10171E006C0100000000DD03B1039F04CB02A9039E
:10172E009503860300000000990478079F049E0429
:10173E0000000000CC0278079F04CB021C03330389
:10174E00B302436F6E6E656374696F6E205374617E
:10175E0072746564000D0A00415400546573746917
:0A176E006E672E2E2E31323300007C
:00000001FF
