:1000000015C1000043C1000041C100003FC1000014
:100010003DC100003BC1000039C1000037C10000F4
:1000200035C1000018C6000016C6000014C6000046
:100030002DC100002BC1000029C1000027C1000014
:1000400025C1000023C1000021C100001FC1000024
:100050001DC100001BC1000019C10000B2C5000095
:1000600015C10000FBC40000D0C400000FC1000097
:100070000DC100000BC1000009C1000007C1000054
:1000800005C1000003C1000001C10000FFC0000065
:10009000FDC00000FBC00000F9C000005AC600000F
:1000A000F5C00000F3C00000F1C00000EFC0000088
:1000B000EDC00000EBC00000E9C00000E7C0000098
:1000C000E5C00000E3C00000E1C00000DFC00000A8
:1000D000DDC00000DBC0000062C4000037C40000C7
:1000E000D5C0000092059505840588058C05CC05D2
:1000F00099059D05A305A705AB05B105B505B9058E
:10010000CC05BF05C305C70500000A0B02090C0D8D
:100110000E080703040100000000000000000000BA
:1001200000000000000000000000000000000000CF
:10013000000000001211100000000000000000008C
:1001400000000000000000000000000000000000AF
:1001500020002300260029002C002F00320000017F
:10016000000003010601090100002100240027000E
:100170002A002D00300033000101000004010701B6
:100180000A0100002200250028002B002E0031006B
:10019000340002010000050108010B0105050505F9
:1001A000070508080808020202020A0A08080404EF
:1001B000040401010101010101010303030303031D
:1001C0000303040707070C0C0C0C0C0C0C0C0202AC
:1001D000020206060606060606060B0B0B0B0B0BA9
:1001E0000B0B010210202008081020401020408036
:1001F00002010201080402010102040810204080EB
:100200008040201008040201800402018040201078
:1002100008040201080402010102040810204080C1
:100220000102040810204080C509A90911241FBE3D
:10023000CFEFD1E2DEBFCDBF00E00CBF12E0A0E007
:10024000B2E0E0EAF6E100E00BBF02C007900D92D9
:10025000A236B107D9F724E0A2E6B2E001C01D92B0
:10026000A43DB207E1F711E0C5E1D1E000E006C02E
:1002700021970109802FFE010E941F0BC431D10775
:1002800080E00807A9F7FDD60C943F0BB9CE08957E
:100290000895FC01538D448D252F30E0842F90E08C
:1002A000821B930B541710F0CF9608950197089571
:1002B000FC01918D828D981761F0828DDF01A80F6E
:1002C000B11D5D968C91928D9F5F9F73928F90E090
:1002D00008958FEF9FEF0895FC01918D828D9817FF
:1002E00031F0828DE80FF11D858D90E008958FEF3C
:1002F0009FEF0895FC01918D228D892F90E0805C05
:100300009F4F821B91098F739927089583E693E08D
:10031000F1DF21E0892B09F420E0822F089580E0AD
:1003200094E0E8DF21E0892B09F420E0822F089592
:10033000FC01848DDF01A80FB11DA35ABF4F2C9182
:10034000848D90E001968F739927848FA689B78951
:100350002C93A089B1898C91837080648C93938D48
:10036000848D981306C00288F389E02D80818F7DEB
:1003700080830895EF92FF920F931F93CF93DF93A3
:10038000EC0181E0888F9B8D8C8D981305C0E889E6
:10039000F989808185FD25C0F62E0B8D10E00F5F59
:1003A0001F4F0F731127E02E8C8DE8120BC00FB674
:1003B00007FCFACFE889F989808185FFF5CFCE0166
:1003C000B7DFF2CF8B8DFE01E80FF11DE35AFF4F2F
:1003D000F0829FB7F8940B8FEA89FB898081806255
:1003E0000AC09FB7F894EE89FF896083E889F9898C
:1003F00080818370806480839FBF81E090E0DF9183
:10040000CF911F910F91FF90EF900895CF93DF93BD
:10041000EC01888D8823C1F0EA89FB89808185FD04
:1004200005C0A889B9898C9186FD0EC00FB607FC5E
:10043000F5CF808185FFF2CFA889B9898C9185FF9E
:10044000EDCFCE0175DFE8CFDF91CF91089580E049
:1004500090E0892B19F063DF811120C080E090E0EB
:10046000892B41F080E090E0892B21F00E94000070
:10047000811117C080E090E0892B41F080E090E08E
:10048000892B21F00E94000081110EC080E090E0D5
:10049000892B79F03BDF81110AC008950E9400008A
:1004A000DDCF0E940000E6CF0E940000EFCF0C9449
:1004B000000008953FB7F89480915403909155033C
:1004C000A0915603B091570326B5A89B05C02F3FB6
:1004D00019F00196A11DB11D3FBFBA2FA92F982F6A
:1004E0008827820F911DA11DB11DBC01CD0142E0E5
:1004F000660F771F881F991F4A95D1F708958F922D
:100500009F92AF92BF92CF92DF92EF92FF926B01D8
:100510007C01D0DF4B015C01C114D104E104F10482
:10052000E9F0C8DFDC01CB0188199909AA09BB09E8
:10053000883E9340A105B10578F321E0C21AD108A5
:10054000E108F10888EE880E83E0981EA11CB11C1A
:10055000C114D104E104F10421F7DECFFF90EF9044
:10056000DF90CF90BF90AF909F908F900895209193
:100570004D0330914E032817390771F490914C03C5
:1005800080914B03981741F0E0914C03F0E0E55F58
:10059000FC4F808190E008958FEF9FEF08950895BC
:1005A0001F93CF93DF93DC015C968D919C915D97B7
:1005B000009739F421E030E013963C932E93129784
:1005C0003BC05196ED91FC91529750962C915097CB
:1005D000322F30951FB75E964C915E97742F7270D4
:1005E00041FD6095F8944081772311F0422B01C0C2
:1005F00043234083EC012197F1F748E0508160FFED
:1006000002C0522B01C053235083EC012197F1F714
:100610006695415099F78081772319F08323808371
:1006200002C0282B20831FBF5C968D919C915D9703
:100630000197F1F781E090E0DF91CF911F9108954C
:1006400020914D0330914E032817390761F48091B2
:100650004B0320914C0390E0805C9F4F821B9109DB
:1006600060E470E0D9C780E090E0089520914D03E8
:1006700030914E0328173907B9F490914C038091BB
:100680004B03981789F0E0914C03F0E0E55FFC4FD5
:10069000808120914C0330E02F5F3F4F2F73332731
:1006A00020934C0390E008958FEF9FEF089585ED20
:1006B0008093BC008091BC0084FDFCCF10925E034F
:1006C00008954091C402262F30E0240F311D2132BD
:1006D0003105DCF420915E032430C9F4FC0180E094
:1006E00090E0861758F43091C4022191DC01AC559A
:1006F000BD4FA30FB11D2C930196F3CF8091C4027F
:10070000680F6093C40280E0089581E0089582E05C
:100710000895E091620380916103E81730F4F0E0FE
:10072000EC57FD4F808190E008958FEF9FEF089583
:100730009091620380916103981750F4E92FF0E0E3
:10074000EC57FD4F208130E09F5F9093620302C021
:100750002FEF3FEFC90108958091610390E0209150
:100760006203821B91090895CF92DF92EF92FF926C
:100770000F931F93CF93DF937C01CB018A012091CC
:100780008302222389F0EB016B01C40ED51ECC1528
:10079000DD0561F06991D701ED91FC910190F08147
:1007A000E02DC7011995F3CF642F8BDFC801DF91CE
:1007B000CF911F910F91FF90EF90DF90CF90089510
:1007C000CF93DF931F92CDB7DEB769832091830269
:1007D0002223D1F020915F03203240F021E030E06D
:1007E000FC013383228380E090E014C08091600399
:1007F000E82FF0E0ED59FD4F998190838F5F809352
:10080000600380935F0304C061E0CE01019659DF6D
:1008100081E090E00F90DF91CF910895CF93FC019C
:10082000C48121E020938302C0936202109260038E
:1008300010925F038385682B8DE994E0C1DF90916E
:100840005F03913208F045C080915E038111FCCFB7
:1008500082E080935E0381E080935D038FEF80935D
:10086000E7021092090390930803A3E6B2E0E8EED2
:10087000F2E080E0981721F02D9121938F5FFACF5D
:1008800010920A0380910A03CC0FC82BC0930A036D
:1008900080915C03813061F410925C0380910A03C3
:1008A0008093BB008091BC0083FDF8CF85EC01C034
:1008B00085EE8093BC0080915E038230E1F38091ED
:1008C000E7028F3F31F08091E702803211F0809192
:1008D000E7021092600310925F0310928302CF919F
:1008E00008950F931F93CF938C01C62F97DF6C2F22
:1008F0006460C80193DF6C2F6B7FC8018FDF83ECCE
:1009000090E00197F1F7CF911F910F9108950F9308
:100910001F93CF93DF938C01C62FD42F607F642B5E
:10092000E0DF80E1C89FB00111246D2BC801DF9189
:10093000CF911F910F91D5CF41E0E9DF81E090E0A9
:100940000895089580E090E0089595D61F920F9243
:100950000FB60F9211240BB60F922F933F934F9324
:100960005F936F937F938F939F93AF93BF93EF9317
:10097000FF9383E693E0DCDCFF91EF91BF91AF91B1
:100980009F918F917F916F915F914F913F912F91A7
:100990000F900BBE0F900FBE0F901F9018951F92D7
:1009A0000F920FB60F9211240BB60F922F938F93C5
:1009B0009F93EF93FF93E0917303F0917403808111
:1009C000E0917903F0917A0382FD12C090818091C9
:1009D0007C038F5F8F7320917D03821751F0E0912C
:1009E0007C03F0E0ED59FC4F958F80937C0301C0B0
:1009F0008081FF91EF919F918F912F910F900BBE6E
:100A00000F900FBE0F901F9018951F920F920FB668
:100A10000F9211240BB60F922F933F934F935F9336
:100A20006F937F938F939F93AF93BF93EF93FF93B6
:100A300080E094E07DDCFF91EF91BF91AF919F91B9
:100A40008F917F916F915F914F913F912F910F9077
:100A50000BBE0F900FBE0F901F9018951F920F9214
:100A60000FB60F9211240BB60F922F938F939F9373
:100A7000EF93FF93E0911004F09111048081E091D5
:100A80001604F091170482FD12C090818091190420
:100A90008F5F8F7320911A04821751F0E09119042F
:100AA000F0E0E050FC4F958F8093190401C08081E5
:100AB000FF91EF919F918F912F910F900BBE0F900F
:100AC0000FBE0F901F901895362F90E0FC01E85F45
:100AD000FE4F4491FC01EE51FE4F2491FC01E4567F
:100AE000FE4F9491992309F46BC0442309F454C038
:100AF00050E0FA013197E231F10508F04DC0882746
:100B0000EE58FF4F8F4F9BC5809180008F7707C0B5
:100B1000809180008F7D03C080918000877F8093CB
:100B200080003AC084B58F7702C084B58F7D84BDC4
:100B300033C08091B0008F7703C08091B0008F7D6B
:100B40008093B00029C0809190008F7707C080917A
:100B500090008F7D03C080919000877F80939000EC
:100B60001BC08091A0008F7707C08091A0008F7D6F
:100B700003C08091A000877F8093A0000DC080916A
:100B800020018F7707C0809120018F7D03C0809165
:100B90002001877F80932001E92FF0E0EE0FFF1FF7
:100BA000EE57FE4FA591B4919FB7F894311104C050
:100BB0008C912095282302C0EC912E2B2C939FBF63
:100BC00008951F920F920FB60F9211242F933F9307
:100BD0008F939F93AF93BF93809150039091510354
:100BE000A0915203B091530330914F0323E0230FA0
:100BF0002D3720F40196A11DB11D05C026E8230F55
:100C00000296A11DB11D20934F0380935003909332
:100C10005103A0935203B0935303809154039091D6
:100C20005503A0915603B09157030196A11DB11D24
:100C30008093540390935503A0935603B0935703A6
:100C4000BF91AF919F918F913F912F910F900FBEC8
:100C50000F901F9018951F920F920FB60F921124AC
:100C60000BB60F922F933F934F935F936F937F93A6
:100C70008F939F93AF93BF93EF93FF93E0914D03B7
:100C8000F0914E03309709F451C0968DA685B78533
:100C9000858591FF04C09C91892329F447C09C91CC
:100CA000892309F043C0A389B4899C9185898095E3
:100CB00089238C93868997890197F1F7608D718DCF
:100CC000A685B785558538E020E0CB010197F1F77F
:100CD000822F90E095958795282F4C91452309F018
:100CE0002068315091F7868D81FD209580914B03CE
:100CF00090E001968F73992730914C03381749F093
:100D0000A0914B03B0E0A55FBC4F2C9380934B03A5
:100D100003C0868D8160868F828D938D0197F1F758
:100D2000A389B4899C918589892B8C93FF91EF913C
:100D3000BF91AF919F918F917F916F915F914F91F3
:100D40003F912F910F900BBE0F900FBE0F901F90F1
:100D500018951F920F920FB60F9211240BB60F9297
:100D60002F933F934F935F936F937F938F939F93B3
:100D7000AF93BF93EF93FF938091B900887F803644
:100D800009F49CC068F5883209F45BC090F48031A6
:100D900009F454C038F4882309F4F6C0883009F403
:100DA0004DC0F5C0883109F44CC0803209F45DC0F3
:100DB000EEC0803409F468C048F4803309F455C0AB
:100DC000883309F0E4C08093E702D8C0803509F485
:100DD0004FC0883509F45DC0883409F0D8C0D6C04A
:100DE000883909F4C7C0A8F4883709F467C038F413
:100DF000883609F463C0803709F460C0C8C08838F9
:100E000009F4B8C0803909F45FC0803809F0BFC068
:100E10005BC0803B09F486C038F4803A09F466C0B0
:100E2000883A09F47FC0B3C0803C09F4A7C0883C6D
:100E300009F4A4C0883B09F48AC0A9C080910A03C0
:100E400010C09091090380910803981770F5E09104
:100E5000090381E08E0F80930903F0E0E851FD4F14
:100E600080818093BB0085EC86C08093E7028EC0B2
:100E7000E091090381E08E0F809309038091BB000C
:100E8000F0E0E851FD4F80839091090380910803C1
:100E90006EC0E091090381E08E0F80930903809179
:100EA000BB00F0E0E851FD4F808380915D0381112C
:100EB0006DC081E080935C0384EA61C083E080932D
:100EC0005E031092E602CFCF8091E602803208F0F6
:100ED00051C0E091E60281E08E0F8093E60280919E
:100EE000BB00F0E0EA53FD4F8083BDCF85EC8093DB
:100EF000BC0010925E038091E602803230F4E091F3
:100F0000E602F0E0EA53FD4F10826091E60270E0E5
:100F1000E0915803F091590386EC92E019951092F4
:100F2000E60235C084E080935E031092C502109201
:100F3000C402E0915A03F0915B0319958091C402B9
:100F4000811105C081E08093C4021092A402E09157
:100F5000C50281E08E0F8093C502F0E0EC55FD4F95
:100F600080818093BB009091C5028091C402981744
:100F700008F479CF85E88093BC0009C085EC8093A4
:100F8000BC0010925E0303C01092E70290DBFF9159
:100F9000EF91BF91AF919F918F917F916F915F91F1
:100FA0004F913F912F910F900BBE0F900FBE0F905E
:100FB0001F901895CF92DF92EF92FF920F931F939D
:100FC000CF93DF936C017A018B01C0E0D0E0CE15A6
:100FD000DF0581F0D8016D918D01D601ED91FC9175
:100FE0000190F081E02DC6011995892B11F0219611
:100FF000EECF7E01C701DF91CF911F910F91FF903E
:10100000EF90DF90CF900895FC01A089B18982E034
:101010008C93A485B5851C92A685B78580E18C93B9
:10102000108EA489B58986E08C93A289B3898C91AE
:1010300080618C93A289B3898C9188608C93A289FA
:10104000B3898C9180688C930288F389E02D80812C
:101050008F7D808308958EC96115710579F0FB013C
:1010600001900020E9F73197AF01461B570BDC01D7
:10107000ED91FC910280F381E02D199480E090E0E5
:101080000895789484B5826084BD84B5816084BD00
:1010900085B5826085BD85B5816085BD80916E0016
:1010A000816080936E001092810080918100826047
:1010B0008093810080918100816080938100809184
:1010C00080008160809380008091B1008460809373
:1010D000B1008091B00081608093B0008091910058
:1010E0008260809391008091910081608093910053
:1010F000809190008160809390008091A100826037
:101100008093A1008091A10081608093A1008091D3
:10111000A00081608093A000809121018260809373
:101120002101809121018160809321018091200122
:1011300081608093200180917A00846080937A009E
:1011400080917A00826080937A0080917A00816039
:1011500080937A0080917A00806880937A00109260
:10116000C10080E094E050DF64EF71E080E090E047
:10117000C6D962E472E080E094E06EDF65E572E07B
:1011800080E094E069DF83E693E03EDF64EF71E0A6
:1011900080E090E0B4D968E572E083E693E05CDF3C
:1011A00010926203109261031092600310925F0329
:1011B00010925E0381E080935D0310925C0361E016
:1011C00084E182DC61E085E17FDC8091B9008E7F83
:1011D0008093B9008091B9008D7F8093B90088E435
:1011E0008093B80085E48093BC0087E491E09093FD
:1011F0005B0380935A0388E491E0909359038093B2
:1012000058031092AE048091B304823018F098E035
:101210009093AE048093B10462E370E080E090E0CC
:101220006ED96091B40489EA94E0F8DA68EE73E06C
:1012300080E090E064D960E389EA94E052DBCBE49B
:10124000D6E4CE010197F1F760E389EA94E049DB47
:101250002197F1F760E389EA94E043DB83E592E0CC
:101260000197F1F760E289EA94E03BDB6091AE041C
:10127000606240E089EA94E04ADB84E08093AF0456
:1012800040E06CE089EA94E042DB40E061E089EA1A
:1012900094E03DDBCBE3DFE1CE010197F1F782E0A3
:1012A0008093B00440E066E089EA94E030DB40E0FF
:1012B00062E089EA94E02BDBCE010197F1F788E048
:1012C0008093B40460E089EA94E0A8DA40E061E049
:1012D00089EA94E01CDB2197F1F76BE572E089EA7B
:1012E00094E0BADE80E094E005D8892BA9F080E094
:1012F00094E00E945801C82F082F880F110BB801E5
:1013000080E094E0A8DEB80183E693E0A4DE41E04B
:101310006C2F89EA94E0FBDA83E693E00E947A017D
:10132000892BA9F083E693E00E945801C82F082F6B
:10133000880F110BB80180E094E08DDEB80183E6E0
:1013400093E089DE41E06C2F89EA94E0E0DA7FD80F
:10135000C9CF84E392E09093B6048093B504809162
:101360004D0390914E03855B944071F4E091C80465
:10137000F091C90490818091CA048095892380836B
:1013800010924E0310924D0308950F931F93CF9325
:10139000DF93109266031092650388EE93E0A0E05D
:1013A000B0E08093670390936803A0936903B093C0
:1013B0006A0324E032E0309364032093630345E33F
:1013C00051E05093700340936F0344E351E0509316
:1013D00072034093710340E351E0509374034093D0
:1013E000730341E351E0509376034093750342E366
:1013F00051E0509378034093770346E351E05093D4
:101400007A034093790310927C0310927D0310922B
:101410007E0310927F0310920304109202048093C3
:10142000040490930504A0930604B093070430933A
:1014300001042093000425EC30E030930D04209348
:101440000C0424EC30E030930F0420930E0420ECC5
:1014500030E0309311042093100421EC30E03093FD
:1014600013042093120422EC30E0309315042093EF
:10147000140426EC30E030931704209316041092E5
:10148000190410921A0410921B0410921C0410925A
:10149000A00410929F048093A1049093A204A093AF
:1014A000A304B093A40426E132E030939E04209379
:1014B0009D041092B8041092B7048093B9049093DD
:1014C000BA04A093BB04B093BC0484E392E090936D
:1014D000B6048093B5041092CC041092CB04109201
:1014E000CE041092CD041092D0041092CF0410922A
:1014F000D2041092D1046091D3046E7F6D7F60930B
:10150000D3046695617081E06827DEDAE3EEF1E0EE
:101510002491EDE9F1E08491882399F090E0880F1F
:10152000991FFC01E859FE4FA591B491FC01EE57BB
:10153000FE4F859194918FB7F894EC91E22BEC9348
:101540008FBFE3EEF1E0E491E093C504EDE9F1E053
:10155000E491F0E0EE0FFF1FEE57FE4F859194915E
:101560009093C7048093C60402EE11E0F801249121
:10157000CCE9D1E0FE0184918823C9F090E0880F86
:10158000991FFC01E859FE4FA591B491FC01EE575B
:10159000FE4F459154913FB7F8949C91822F8095CE
:1015A00098239C93FA019081892380833FBF809187
:1015B000D30481FD03C061E080E086DA1092C104AB
:1015C000F80104910093C204FE01C491EC2FF0E0F5
:1015D000EE0FFF1FE25BFE4F859194919093C40440
:1015E0008093C3041092AC041092AB0488E292E0A2
:1015F0009093AA048093A90487E28093AD0484E1C8
:101600008093B20484E08093B3041092B404DF9119
:10161000CF911F910F91089597FB072E16F4009418
:1016200006D077FD08D013D007FC05D03EF4909586
:1016300081959F4F0895709561957F4F0895EE0FA6
:10164000FF1F881F8BBF0790F691E02D1994AA1BEE
:10165000BB1B51E107C0AA1FBB1FA617B70710F09D
:10166000A61BB70B881F991F5A95A9F780959095CF
:10167000BC01CD01089581E090E0F89400C011E034
:10168000C5E1D1E000E005C0802FFE01D8DF219642
:10169000011DC631D10780E00807B1F7F894FFCFEC
:1016A00000000000BA01DA07490106027A01580178
:1016B0006C0100000000E003B403A204CF02AC03FD
:1016C00098038903000000009C04DA07A204A10427
:1016D00000000000D002DA07A204CF022003360384
:1016E000B702436F6E6E656374696F6E20537461E9
:1016F00072746564000D0A00415400546573743AB5
:021700000000E7
:00000001FF
