:10000000FBC0000029C1000027C1000025C100007D
:1000100023C1000021C100001FC100001DC100005C
:100020001BC10000C9C40000C7C40000C5C4000053
:1000300013C1000011C100000FC100000DC100007C
:100040000BC1000009C1000007C1000005C100008C
:1000500003C1000001C10000FFC0000063C4000034
:10006000FBC0000029C40000FEC30000F5C0000072
:10007000F3C00000F1C00000EFC00000EDC00000C0
:10008000EBC00000E9C00000E7C00000E5C00000D0
:10009000E3C00000E1C00000DFC00000B1C4000008
:1000A000DBC00000D9C00000D7C00000D5C00000F0
:1000B000D3C00000D1C00000CFC00000CDC0000000
:1000C000CBC00000C9C00000C7C00000C5C0000010
:1000D000C3C00000C1C0000090C3000065C30000A1
:1000E000BBC00000F506F806E706EB06EF062F0793
:1000F000FC06000706070A070E07140718071C0767
:100100002F07220726072A070000220025002800C3
:100110002B002E003100340002010000050108010F
:100120000B0105050505070508080808020202027B
:100130000A0A080804040404010101010101010183
:100140000303030303030303040707070C0C0C0C4E
:100150000C0C0C0C02020202060606060606060637
:100160000B0B0B0B0B0B0B0B0102102020080810C4
:100170002040102040800201020108040201010217
:1001800004081020408080402010080402018004F0
:10019000020180402010080402010804020101024B
:1001A0000408102040800102040810204080000054
:1001B0000A0B02090C0D0E080703040100000000E1
:1001C000000000000000000000000000000000002F
:1001D00000000000000000000000121110000000EC
:1001E000000000000000000000000000000000000F
:1001F00000000000340BB40A11241FBECFEFD1E27F
:10020000DEBFCDBF00E00CBF25E0A6EBB2E001C031
:100210001D92AF36B207E1F712E0A0E0B2E0E2E5EE
:10022000FDE100E00BBF02C007900D92A63BB107B5
:10023000D9F710E0CBEFD0E000E006C0219701092C
:10024000802FFE010E947B0CCA3FD10780E0080787
:10025000A9F7D8D60C94980ED3CE08950895FC0132
:10026000538D448D252F30E0842F90E0821B930B1B
:10027000541710F0CF96089501970895FC01918DC1
:10028000828D981761F0828DDF01A80FB11D5D96F8
:100290008C91928D9F5F9F73928F90E008958FEF66
:1002A0009FEF0895FC01918D828D981731F0828D1A
:1002B000E80FF11D858D90E008958FEF9FEF089571
:1002C000FC01918D228D892F90E0805C9F4F821BD5
:1002D00091098F739927089585E793E0F1DF21E075
:1002E000892B09F420E0822F089582E194E0E8DF71
:1002F00021E0892B09F420E0822F0895FC01848DF0
:10030000DF01A80FB11DA35ABF4F2C91848D90E03F
:1003100001968F739927848FA689B7892C93A0891A
:10032000B1898C91837080648C93938D848D9813A4
:1003300006C00288F389E02D80818F7D8083089537
:10034000EF92FF920F931F93CF93DF93EC0181E025
:10035000888F9B8D8C8D981305C0E889F9898081E1
:1003600085FD25C0F62E0B8D10E00F5F1F4F0F731C
:100370001127E02E8C8DE8120BC00FB607FCFACFC8
:10038000E889F989808185FFF5CFCE01B7DFF2CF0B
:100390008B8DFE01E80FF11DE35AFF4FF0829FB7EE
:1003A000F8940B8FEA89FB89808180620AC09FB72D
:1003B000F894EE89FF896083E889F98980818370E8
:1003C000806480839FBF81E090E0DF91CF911F9197
:1003D0000F91FF90EF900895CF93DF93EC01888DFC
:1003E0008823C1F0EA89FB89808185FD05C0A88941
:1003F000B9898C9186FD0EC00FB607FCF5CF8081C0
:1004000085FFF2CFA889B9898C9185FFEDCFCE0108
:1004100075DFE8CFDF91CF91089580E090E0892BE0
:1004200019F063DF811120C080E090E0892B41F05A
:1004300080E090E0892B21F00E940000811117C01C
:1004400080E090E0892B41F080E090E0892B21F062
:100450000E94000081110EC080E090E0892B79F0AD
:100460003BDF81110AC008950E940000DDCF0E9489
:100470000000E6CF0E940000EFCF0C94000008952A
:100480003FB7F8948091660390916703A091680349
:10049000B091690326B5A89B05C02F3F19F00196BE
:1004A000A11DB11D3FBFBA2FA92F982F8827820FFA
:1004B000911DA11DB11DBC01CD0142E0660F771F4A
:1004C000881F991F4A95D1F708958F929F92AF92F6
:1004D000BF92CF92DF92EF92FF926B017C01D0DF4F
:1004E0004B015C01C114D104E104F104E9F0C8DF5F
:1004F000DC01CB0188199909AA09BB09883E934000
:10050000A105B10578F321E0C21AD108E108F1088C
:1005100088EE880E83E0981EA11CB11CC114D10482
:10052000E104F10421F7DECFFF90EF90DF90CF9050
:10053000BF90AF909F908F90089585ED8093BC0001
:100540008091BC0084FDFCCF10927003089540910F
:10055000F602262F30E0240F311D21323105DCF464
:10056000209170032430C9F4FC0180E090E08617EC
:1005700058F43091F6022191DC01AA52BD4FA30F2D
:10058000B11D2C930196F3CF8091F602680F609312
:10059000F60280E0089581E0089582E008950895CC
:1005A000E091740380917303E81730F4F0E0EA54AB
:1005B000FD4F808190E008958FEF9FEF0895909117
:1005C000740380917303981750F4E92FF0E0EA5414
:1005D000FD4F208130E09F5F9093740302C02FEFA6
:1005E0003FEFC90108958091730390E02091740357
:1005F000821B91090895CF92DF92EF92FF920F93A1
:100600001F93CF93DF937C01CB018A0120913D039F
:10061000222389F0EB016B01C40ED51ECC15DD053C
:1006200061F06991D701ED91FC910190F081E02D8D
:10063000C7011995F3CF642F8ADFC801DF91CF91ED
:100640001F910F91FF90EF90DF90CF900895CF937F
:10065000DF931F92CDB7DEB7698320913D0322233C
:10066000D1F020917103203240F021E030E0FC0114
:100670003383228380E090E014C080917203E82FDE
:10068000F0E0E25CFC4F998190838F5F809372036E
:100690008093710304C061E0CE01019658DF81E0D0
:1006A00090E00F90DF91CF910895CF93FC01C4812A
:1006B00021E020933D03C0935E03109272031092D9
:1006C00071038385682B8FEA94E0C1DF90917103F9
:1006D000913208F045C0809170038111FCCF82E017
:1006E0008093700381E080936F038FEF80933C03CE
:1006F00010923B0390933A03AEE3B3E0EAE1F3E0F8
:1007000080E0981721F02D9121938F5FFACF1092FE
:10071000190380911903CC0FC82BC0931903809142
:100720006E03813061F410926E03809119038093FF
:10073000BB008091BC0083FDF8CF85EC01C085EE45
:100740008093BC00809170038230E1F380913C0380
:100750008F3F31F080913C03803211F080913C0357
:10076000109272031092710310923D03CF9108957D
:100770000F931F93CF938C01C62F97DF6C2F64606C
:10078000C80193DF6C2F6B7FC8018FDF83EC90E093
:100790000197F1F7CF911F910F910895089580E08F
:1007A00090E008950E94840E1F920F920FB60F9250
:1007B00011240BB60F922F933F934F935F936F9338
:1007C0007F938F939F93AF93BF93EF93FF9385E7AF
:1007D00093E094DDFF91EF91BF91AF919F918F9145
:1007E0007F916F915F914F913F912F910F900BBE31
:1007F0000F900FBE0F901F9018951F920F920FB67B
:100800000F9211240BB60F922F938F939F93EF9318
:10081000FF93E0918503F09186038081E0918B0343
:10082000F0918C0382FD12C0908180918E038F5FC6
:100830008F7320918F03821751F0E0918E03F0E0C7
:10084000EB58FC4F958F80938E0301C08081FF9100
:10085000EF919F918F912F910F900BBE0F900FBE34
:100860000F901F9018951F920F920FB60F921124A0
:100870000BB60F922F933F934F935F936F937F939A
:100880008F939F93AF93BF93EF93FF9382E194E095
:1008900035DDFF91EF91BF91AF919F918F917F9146
:1008A0006F915F914F913F912F910F900BBE0F90E1
:1008B0000FBE0F901F9018951F920F920FB60F92B8
:1008C00011240BB60F922F938F939F93EF93FF9367
:1008D000E0912204F09123048081E0912804F091BA
:1008E000290482FD12C0908180912B048F5F8F7349
:1008F00020912C04821751F0E0912B04F0E0EE5E81
:10090000FB4F958F80932B0401C08081FF91EF9165
:100910009F918F912F910F900BBE0F900FBE0F9054
:100920001F9018951F920F920FB60F9211242F93BC
:100930003F938F939F93AF93BF9380916203909166
:100940006303A0916403B09165033091610323E0D8
:10095000230F2D3720F40196A11DB11D05C026E8F7
:10096000230F0296A11DB11D2093610380936203A2
:1009700090936303A0936403B0936503809166032F
:1009800090916703A0916803B09169030196A11D3E
:10099000B11D8093660390936703A0936803B0939F
:1009A0006903BF91AF919F918F913F912F910F90CC
:1009B0000FBE0F901F9018951F920F920FB60F92B7
:1009C00011240F900FBE0F901F9018950F931F9337
:1009D000CF93DF938C01C62FD42F607F642BC8DEAA
:1009E00080E1C89FB00111246D2BC801DF91CF9128
:1009F0001F910F91BDCE41E0E9DF81E090E00895C5
:100A00001F920F920FB60F9211240BB60F922F93D5
:100A10003F934F935F936F937F938F939F93AF9386
:100A2000BF93EF93FF938091B900887F803609F4DC
:100A30009CC068F5883209F45BC090F4803109F4F9
:100A400054C038F4882309F4F6C0883009F44DC046
:100A5000F5C0883109F44CC0803209F45DC0EEC0A5
:100A6000803409F468C048F4803309F455C08833F1
:100A700009F0E4C080933C03D8C0803509F44FC02E
:100A8000883509F45DC0883409F0D8C0D6C08839EB
:100A900009F4C7C0A8F4883709F467C038F4883669
:100AA00009F463C0803709F460C0C8C0883809F40D
:100AB000B8C0803909F45FC0803809F0BFC05BC09E
:100AC000803B09F486C038F4803A09F466C0883A5D
:100AD00009F47FC0B3C0803C09F4A7C0883C09F486
:100AE000A4C0883B09F48AC0A9C08091190310C032
:100AF00090913B0380913A03981770F5E0913B0386
:100B000081E08E0F80933B03F0E0E65EFC4F808136
:100B10008093BB0085EC86C080933C038EC0E0913F
:100B20003B0381E08E0F80933B038091BB00F0E09C
:100B3000E65EFC4F808390913B0380913A036EC048
:100B4000E0913B0381E08E0F80933B038091BB00DB
:100B5000F0E0E65EFC4F808380916F0381116DC0F1
:100B600081E080936E0384EA61C083E08093700328
:100B700010921803CFCF80911803803208F051C033
:100B8000E091180381E08E0F809318038091BB00E1
:100B9000F0E0E850FD4F8083BDCF85EC8093BC0032
:100BA0001092700380911803803230F4E0911803A2
:100BB000F0E0E850FD4F10826091180370E0E09182
:100BC0006A03F0916B0388EF92E019951092180375
:100BD00035C084E0809370031092F7021092F60201
:100BE000E0916C03F0916D0319958091F6028111EB
:100BF00005C081E08093F6021092D602E091F702E0
:100C000081E08E0F8093F702F0E0EA52FD4F808181
:100C10008093BB009091F7028091F602981708F438
:100C200079CF85E88093BC0009C085EC8093BC0037
:100C30001092700303C010923C037FDCFF91EF9190
:100C4000BF91AF919F918F917F916F915F914F91E4
:100C50003F912F910F900BBE0F900FBE0F901F90E2
:100C60001895DB0114964D915C9115976D917C91CF
:100C7000DC01ED91FC910280F381E02D1994CF927B
:100C8000DF92EF92FF920F931F93CF93DF936C014C
:100C90007A018B01C0E0D0E0CE15DF0581F0D801EC
:100CA0006D918D01D601ED91FC910190F081E02DC7
:100CB000C6011995892B11F02196EECF7E01C7014F
:100CC000DF91CF911F910F91FF90EF90DF90CF9028
:100CD0000895FC01A089B18982E08C93A485B58533
:100CE0001C92A685B78580E18C93108EA489B58966
:100CF00086E08C93A289B3898C9180618C93A289C0
:100D0000B3898C9188608C93A289B3898C91806817
:100D10008C930288F389E02D80818F7D80830895F4
:100D2000CF93DF93CDB7DEB728970FB6F894DEBF29
:100D30000FBECDBF98E0E6E0F2E0DE011196019033
:100D40000D929A95E1F790916705961710F46FEF61
:100D5000690FFE013196E60FF11DE60FF11D60816E
:100D6000680F606840E08FE595E028960FB6F8942C
:100D7000DEBF0FBECDBFDF91CF9128CE40E061E056
:100D80008FE595E023DE8BE39FE10197F1F708956E
:100D900090E0FC01E255FE4F4491FC01E859FE4F02
:100DA0002491FC01EE5DFE4F9491992309F465C0F6
:100DB000442309F454C050E0FA013197E231F105BF
:100DC00008F04DC08827EE58FF4F8F4F94C5809193
:100DD00080008F7707C0809180008F7D03C0809155
:100DE0008000877F809380003AC084B58F7702C0EF
:100DF00084B58F7D84BD33C08091B0008F7703C0F0
:100E00008091B0008F7D8093B00029C080919000C8
:100E10008F7707C0809190008F7D03C080919000F4
:100E2000877F809390001BC08091A0008F7707C0C0
:100E30008091A0008F7D03C08091A000877F809368
:100E4000A0000DC0809120018F7707C08091200104
:100E50008F7D03C080912001877F80932001E92F3F
:100E6000F0E0EE0FFF1FE85FFE4FA591B4918FB742
:100E7000F894EC91E22BEC938FBF0895DC01ED9197
:100E8000FC910190F081E02D19946115710579F0C4
:100E9000FB0101900020E9F73197AF01461B570B8A
:100EA000DC01ED91FC910280F381E02D199480E04A
:100EB00090E00895CF93DF93BC0182E194E0D1DE0E
:100EC000EC0161E572E082E194E0DFDF8C0F9D1FB1
:100ED000DF91CF9108958F929F92AF92BF920F931F
:100EE0001F93CF93DF93CDB7DEB7A1970FB6F894DA
:100EF000DEBF0FBECDBF19A2423008F44AE08E011A
:100F00000F5D1F4F842E912CA12CB12CA5019401B3
:100F1000D0D4E62FB901CA0101501109EA3014F406
:100F2000E05D01C0E95CD801EC93232B242B252B39
:100F300069F7B8018FE595E0A8DFA1960FB6F894A0
:100F4000DEBF0FBECDBFDF91CF911F910F91BF903C
:100F5000AF909F908F90089598CFEF92FF920F934C
:100F60001F93CF93DF938C0109DF60E080E0D8DE30
:100F70008EE1809FE001819FD00D1124CE018B5323
:100F80009B4F7C01BC018FE595E06BDEC70192DFD2
:100F900061E080E0C5DECE0185539B4F7C01BC0142
:100FA0008FE595E05EDEC70185DF62E080E0B8DEB8
:100FB000CE018F529B4F7C01BC018FE595E051DE45
:100FC000C70178DF63E080E0ABDEC952DB4FBE01D2
:100FD0008FE595E046DECE016DDFEBE5F5E0808143
:100FE000918190935E0580935D051183008362E596
:100FF00072E082E194E0DF91CF911F910F91FF9019
:10100000EF90AACFCF93DF93CDB7DEB728970FB677
:10101000F894DEBF0FBECDBF789484B5826084BDE6
:1010200084B5816084BD85B5826085BD85B58160EC
:1010300085BD80916E00816080936E00109281006A
:101040008091810082608093810080918100816025
:1010500080938100809180008160809380008091E6
:10106000B10084608093B1008091B0008160809372
:10107000B0008091910082608093910080919100F6
:1010800081608093910080919000816080939000B6
:101090008091A10082608093A1008091A100816075
:1010A0008093A1008091A00081608093A000809136
:1010B00021018260809321018091210181608093D0
:1010C00021018091200181608093200180917A002C
:1010D000846080937A0080917A00826080937A00A5
:1010E00080917A00816080937A0080917A00806894
:1010F00080937A001092C1001092740310927303CF
:1011000010927203109271031092700381E0809329
:101110006F0310926E0384E13BDE85E139DE80913E
:10112000B9008E7F8093B9008091B9008D7F809344
:10113000B90088E48093B80085E48093BC008DE218
:1011400091E090936D0380936C038EE291E0909315
:101150006B0380936A031092640580916905823065
:1011600018F098E0909364058093670562E370E05F
:1011700080E090E0AAD960916A058FE595E095DA64
:1011800068EE73E080E090E0A0D960E38FE595E041
:10119000EFDA0BE416E4C8010197F1F760E38FE59D
:1011A00095E0E6DAC8010197F1F760E38FE595E095
:1011B000DFDA83E592E00197F1F760E28FE595E0F1
:1011C000D7DA60916405606240E08FE595E0FEDB70
:1011D00084E08093650540E06CE08FE595E0F6DB08
:1011E000CDDD82E08093660540E066E08FE595E026
:1011F000EDDB40E062E08FE595E0E8DB8BE39FE12B
:101200000197F1F788E080936A0560E08FE595E04B
:101210004CDAB4DD82E194E05CDD64EF71E080E003
:1012200090E053D96EE372E082E194E02EDE61E556
:1012300072E082E194E029DE85E793E04ADD64EF25
:1012400071E080E090E041D964E572E085E793E0E9
:1012500083DE80E090E081DE60E088E061DD609127
:101260006505862F816080936505696040E08FE5A4
:1012700095E0ACDB85E793E023D8892B09F456C1D0
:1012800085E793E00E943E018093C304682F8FE5B9
:1012900095E0F4DD6091C30482E194E0EFDD80919C
:1012A000C30420ED280F2B3014F029EC280F2093D5
:1012B000C4048091BB049091BC04A091BD04B09182
:1012C000BE0434E0880F991FAA1FBB1F3A95D1F7BF
:1012D0002F70822B9927AA27BB278093BB0490935A
:1012E000BC04A093BD04B093BE048B3A9105A10544
:1012F000B10509F01BC181E090E02FDE60E08FE0D6
:101300000FDD85E793E00E943E0190ED980F9B3042
:1013100014F099EC980F892F990F990B9093C004B2
:101320008093BF0485E793E00E943E0190ED980F03
:101330009B3014F099EC980F9093C10485E793E0EB
:101340000E943E0190ED980F9B3014F099EC980F9D
:101350009093C20461E080E0E3DC67E572E08FE532
:1013600095E0FADD6091C10470E080E090E04AE031
:10137000B2DD62E080E0D4DC6EE572E08FE595E0FE
:10138000EBDD6091C20470E080E090E04AE0A3DD14
:1013900088E0EBEBF4E0DE01119601900D928A9566
:1013A000E1F78091BF049091C004892B09F0BEC081
:1013B0001F8110FF0AC065E672E08FE595E0CCDD85
:1013C00065E672E082E194E0C7DD11FF0AC067E6DE
:1013D00072E08FE595E0C0DD67E672E082E194E0BF
:1013E000BBDD12FF0AC069E672E08FE595E0B4DD6F
:1013F00069E672E082E194E0AFDD13FF0AC06FE4BA
:1014000072E08FE595E0A8DD6FE472E082E194E0A0
:10141000A3DD14FF0AC06BE672E08FE595E09CDD6A
:101420006BE672E082E194E097DD15FF0AC06DE69D
:1014300072E08FE595E090DD6DE672E082E194E088
:101440008BDD16FF14C06FE672E08FE595E084DD5A
:101450006FE672E082E194E07FDD61E772E08FE5A4
:1014600095E07ADD61E772E082E194E075DD188550
:1014700010FF0AC065E672E08FE595E06DDD65E678
:1014800072E082E194E068DD11FF0AC067E672E075
:101490008FE595E061DD67E672E082E194E05CDD76
:1014A00012FF0AC069E672E08FE595E055DD69E656
:1014B00072E082E194E050DD13FF0AC06FE472E055
:1014C0008FE595E049DD6FE472E082E194E044DD70
:1014D00014FF0AC06BE672E08FE595E03DDD6BE638
:1014E00072E082E194E038DD15FF0AC06DE672E03B
:1014F0008FE595E031DD6DE672E082E194E02CDD70
:1015000016FF14C06FE672E08FE595E025DD6FE60B
:1015100072E082E194E020DD61E772E08FE595E022
:101520001BDD61E772E082E194E016DD82E194E088
:101530000E946001892BA9F082E194E00E943E01A3
:101540008093C304682F82E194E00E94A00160911F
:10155000C30485E793E092DC6091C3048FE595E0D6
:101560008DDC0E940D0286CECF93DF93CBE5D5E0D4
:101570006E978A899B895FD28C859D855CD28E818E
:101580009F8159D28881998156D284E0C53CD80781
:1015900079F7DF91CF910895EF92FF920F931F9308
:1015A000CF93DF93EC017B018A01888199810097B9
:1015B00029F02A813B8124173507E8F4B8016F5FD1
:1015C0007F4FC2D2009759F0998388831B830A8387
:1015D0002C813D81232B79F4FC0110820CC0888181
:1015E0009981009709F027D2198218821D821C82E6
:1015F0001B821A8206C01D830C83B70188819981E2
:1016000090D3CE01DF91CF911F910F91FF90EF907A
:101610000895FC01118210821382128215821482B5
:1016200040E050E063E572E0B7CFCF93DF93EC0189
:101630006115710551F0FB0101900020E9F7319728
:10164000AF01461B570BA8DF0BC08881998100971B
:1016500009F0F1D1198218821D821C821B821A8224
:10166000CE01DF91CF9108950F931F93CF93DF9316
:10167000109278031092770388EE93E0A0E0B0E038
:101680008093790390937A03A0937B03B0937C03B8
:1016900022E132E0309376032093750345E351E075
:1016A000509382034093810344E351E050938403B9
:1016B0004093830340E351E05093860340938503B6
:1016C00041E351E0509388034093870342E351E0A4
:1016D00050938A034093890346E351E050938C036F
:1016E00040938B0310928E0310928F0310929003FD
:1016F0001092910310921504109214048093160412
:1017000090931704A0931804B09319043093130412
:101710002093120425EC30E030931F0420931E0424
:1017200024EC30E0309321042093200420EC30E0BE
:10173000309323042093220421EC30E030932504DD
:101740002093240422EC30E03093270420932604D5
:1017500026EC30E0309329042093280410922B04C7
:1017600010922C0410922D0410922E041092B204A8
:101770001092B1048093B3049093B404A093B50481
:10178000B093B60484E292E09093B0048093AF04E7
:10179000109262051092610586E392E090936005D5
:1017A00080935F0587E28093630584E180936805F9
:1017B00084E08093690510926A05C5ECD4E00BE5DE
:1017C00015E0CE0126DFCE01069623DFCE010C9672
:1017D00020DFCE0142961DDF6E960C171D0789F79C
:1017E0001092E2041092E10481E090E090930005F1
:1017F0008093FF0482E090E090931E0580931D0586
:1018000083E090E090933C0580933B0584E090E07A
:1018100090935A058093590563E772E085EC94E054
:1018200004DF63E872E08BEC94E0FFDE6EE872E0C8
:1018300081ED94E0FADE63E872E087ED94E0F5DE96
:1018400088E090E09093DE048093DD041092E00441
:101850001092DF0469E972E083EE94E0E6DE6AEA62
:1018600072E089EE94E0E1DE6AEA72E08FEE94E0E5
:10187000DCDE6AEA72E085EF94E0D7DE8CE090E08F
:101880009093DE048093DD041092E0041092DF0454
:101890001092BB041092BC041092BD041092BE04BE
:1018A0001092C3041092C404DF91CF911F910F9145
:1018B0000895A1E21A2EAA1BBB1BFD010DC0AA1F91
:1018C000BB1FEE1FFF1FA217B307E407F50720F0A9
:1018D000A21BB30BE40BF50B661F771F881F991F24
:1018E0001A9469F760957095809590959B01AC016D
:1018F000BD01CF010895EE0FFF1F881F8BBF07901A
:10190000F691E02D19940F931F93CF93DF938230BC
:10191000910510F482E090E0E0916D05F0916E0584
:1019200020E030E0A0E0B0E0309719F14081518133
:101930000281138148175907C8F08417950769F485
:10194000109731F012960C93129713961C9327C0A0
:1019500000936D0510936E0522C02115310519F015
:101960004217530718F49A01BD01EF01DF01F80196
:10197000DBCF21153105F9F0281B390B2430310557
:1019800080F48A819B816115710521F0FB019383AD
:10199000828304C090936E0580936D05FE0132969C
:1019A00044C0FE01E20FF31F81939193225031094D
:1019B000398328833AC020916B0530916C05232B25
:1019C00041F4209102023091030230936C05209380
:1019D0006B0520910002309101022115310541F47F
:1019E0002DB73EB74091040250910502241B350BE0
:1019F000E0916B05F0916C05E217F307A0F42E1B44
:101A00003F0B2817390778F0AC014E5F5F4F241762
:101A1000350748F04E0F5F1F50936C0540936B05E0
:101A20008193919302C0E0E0F0E0CF01DF91CF918C
:101A30001F910F910895CF93DF93009709F481C010
:101A4000FC01329713821282A0916D05B0916E0550
:101A5000109781F420813181820F931F20916B05B3
:101A600030916C052817390751F5F0936C05E09318
:101A70006B0567C0ED0120E030E0CE17DF0740F4D2
:101A80004A815B819E0141155105F1F0EA01F5CFD4
:101A9000D383C28340815181840F951FC817D90712
:101AA00059F488819981840F951F029691838083D0
:101AB0008A819B81938382832115310529F4F093D8
:101AC0006E05E0936D053DC0E901FB83EA83499112
:101AD0005991C40FD51FEC17FD0761F480819181E6
:101AE000840F951F0296E9019983888382819381EF
:101AF0009B838A83E0E0F0E012968D919C9113978E
:101B0000009719F0FD01DC01F7CF8D919C911197A1
:101B10009D012E5F3F4F820F931F20916B053091E7
:101B20006C052817390769F4309729F410926E056F
:101B300010926D0502C013821282B0936C05A093BF
:101B40006B05DF91CF9108956F927F928F929F9254
:101B5000AF92BF92CF92DF92EF92FF920F931F93BB
:101B6000CF93DF93009781F4CB01DF91CF911F9149
:101B70000F91FF90EF90DF90CF90BF90AF909F902C
:101B80008F907F906F90BFCEFC01E60FF71F9C01F6
:101B900022503109E217F30708F4A5C0EC01D9017E
:101BA0000D911C91119706171707A8F00530110524
:101BB00008F497C0C80104978617970708F491C0E6
:101BC00002501109061B170B019311936D937C931F
:101BD000CF0131DF86C05B01A01AB10A4C01800E33
:101BE000911EA0916D05B0916E05612C712CE12CB8
:101BF000F12C109709F446C08D919C911197A8156E
:101C0000B905B1F56C0142E0C40ED11CCA14DB0465
:101C100078F14C018A189B08640142E0C40ED11C83
:101C20001296BC9012971396AC91B5E0CB16D104E6
:101C300040F0B282A38391828082D9016D937C931C
:101C400009C00E5F1F4F800F911FF90191838083A0
:101C5000EB2DFA2FE114F10431F0D7011396FC9328
:101C6000EE9312973EC0F0936E05E0936D0539C078
:101C70006816790608F43C017D0112960D90BC911E
:101C8000A02DB7CF80916B0590916C0588169906B1
:101C9000E1F466167706C8F4809100029091010283
:101CA000009741F48DB79EB7409104025091050210
:101CB000841B950BE817F907B0F4F0936C05E093DB
:101CC0006B05F901718360830CC0CB011CDE7C01C4
:101CD000009749F0A801BE011BD0CE01ACDEC701C0
:101CE00004C0CE0102C080E090E0DF91CF911F914F
:101CF0000F91FF90EF90DF90CF90BF90AF909F90AB
:101D00008F907F906F90089581E090E0F89410C0DC
:101D1000FB01DC0102C001900D9241505040D8F708
:101D20000895FB01DC0101900D920020E1F7089578
:101D300010E0CBEFD0E000E005C0802FFE01DBDD3E
:101D40002196011DCC3FD10780E00807B1F7F89438
:021D5000FFCFC3
:101D520000006F05800000004000140054000000E5
:101D62000000A0013F062F01EC0160013E0152017B
:101D7200000000002703FB02CF03CF02F302DF02C1
:101D8200D00200000000FB043F06CF03CE03436FE6
:101D92006E6E656374696F6E2053746172746564EC
:101DA200000D0A0041540064617461483A006461A4
:101DB20074614C3A0061006200630065006600676E
:101DC20000680053656E642041543A202020202090
:101DD2002020007C20207C20207C20207C007C2D68
:101DE2002D202D2D202D2D7C005265636965766591
:101DF20064206D617A653A2020007C20202020201A
:061E02002020207C0000FE
:00000001FF
