:1000000015C1000043C1000041C100003FC1000014
:100010003DC100003BC1000039C1000037C10000F4
:1000200035C1000001C60000FFC50000FDC500008D
:100030002DC100002BC1000029C1000027C1000014
:1000400025C1000023C1000021C100001FC1000024
:100050001DC100001BC1000019C100009BC50000AC
:1000600015C10000E3C40000B8C400000FC10000C7
:100070000DC100000BC1000009C1000007C1000054
:1000800005C1000003C1000001C10000FFC0000065
:10009000FDC00000FBC00000F9C000005DC600000C
:1000A000F5C00000F3C00000F1C00000EFC0000088
:1000B000EDC00000EBC00000E9C00000E7C0000098
:1000C000E5C00000E3C00000E1C00000DFC00000A8
:1000D000DDC00000DBC000004AC400001FC40000F7
:1000E000D5C000007B057E056D0571057505B5055C
:1000F000820586058C05900594059A059E05A20546
:10010000B505A805AC05B00500000A0B02090C0DE9
:100110000E080703040100000000000000000000BA
:1001200000000000000000000000000000000000CF
:10013000000000001211100000000000000000008C
:1001400000000000000000000000000000000000AF
:1001500020002300260029002C002F00320000017F
:10016000000003010601090100002100240027000E
:100170002A002D00300033000101000004010701B6
:100180000A0100002200250028002B002E0031006B
:10019000340002010000050108010B0105050505F9
:1001A000070508080808020202020A0A08080404EF
:1001B000040401010101010101010303030303031D
:1001C0000303040707070C0C0C0C0C0C0C0C0202AC
:1001D000020206060606060606060B0B0B0B0B0BA9
:1001E0000B0B010210202008081020401020408036
:1001F00002010201080402010102040810204080EB
:100200008040201008040201800402018040201078
:1002100008040201080402010102040810204080C1
:100220000102040810204080860B0A0B11241FBE17
:10023000CFEFD1E2DEBFCDBF00E00CBF26E0AAEFDA
:10024000B2E001C01D92A636B207E1F712E0A0E0CD
:10025000B2E0E2ECFFE100E00BBF02C007900D92BC
:10026000AA3FB107D9F711E0C5E1D1E000E006C02F
:1002700021970109802FFE010E949F0DC431D107F3
:1002800080E00807A9F790D70C94D00FB9CE089555
:100290000895FC01538D448D252F30E0842F90E08C
:1002A000821B930B541710F0CF9608950197089571
:1002B000FC01918D828D981761F0828DDF01A80F6E
:1002C000B11D5D968C91928D9F5F9F73928F90E090
:1002D00008958FEF9FEF0895FC01918D828D9817FF
:1002E00031F0828DE80FF11D858D90E008958FEF3C
:1002F0009FEF0895FC01918D228D892F90E0805C05
:100300009F4F821B91098F739927089580E094E095
:10031000F1DF21E0892B09F420E0822F08958DE997
:1003200094E0E8DF21E0892B09F420E0822F089592
:10033000FC01848DDF01A80FB11DA35ABF4F2C9182
:10034000848D90E001968F739927848FA689B78951
:100350002C93A089B1898C91837080648C93938D48
:10036000848D981306C00288F389E02D80818F7DEB
:1003700080830895EF92FF920F931F93CF93DF93A3
:10038000EC0181E0888F9B8D8C8D981305C0E889E6
:10039000F989808185FD25C0F62E0B8D10E00F5F59
:1003A0001F4F0F731127E02E8C8DE8120BC00FB674
:1003B00007FCFACFE889F989808185FFF5CFCE0166
:1003C000B7DFF2CF8B8DFE01E80FF11DE35AFF4F2F
:1003D000F0829FB7F8940B8FEA89FB898081806255
:1003E0000AC09FB7F894EE89FF896083E889F9898C
:1003F00080818370806480839FBF81E090E0DF9183
:10040000CF911F910F91FF90EF900895CF93DF93BD
:10041000EC01888D8823C1F0EA89FB89808185FD04
:1004200005C0A889B9898C9186FD0EC00FB607FC5E
:10043000F5CF808185FFF2CFA889B9898C9185FF9E
:10044000EDCFCE0175DFE8CFDF91CF91089580E049
:1004500090E0892B19F063DF811120C080E090E0EB
:10046000892B41F080E090E0892B21F00E94000070
:10047000811117C080E090E0892B41F080E090E08E
:10048000892B21F00E94000081110EC080E090E0D5
:10049000892B79F03BDF81110AC008950E9400008A
:1004A000DDCF0E940000E6CF0E940000EFCF0C9449
:1004B000000008953FB7F8948091EC039091ED030C
:1004C000A091EE03B091EF0326B5A89B05C02F3F86
:1004D00019F00196A11DB11D3FBFBA2FA92F982F6A
:1004E0008827820F911DA11DB11DBC01CD0142E0E5
:1004F000660F771F881F991F4A95D1F708958F922D
:100500009F92AF92BF92CF92DF92EF92FF926B01D8
:100510007C01D0DF4B015C01C114D104E104F10482
:10052000E9F0C8DFDC01CB0188199909AA09BB09E8
:10053000883E9340A105B10578F321E0C21AD108A5
:10054000E108F10888EE880E83E0981EA11CB11C1A
:10055000C114D104E104F10421F7DECFFF90EF9044
:10056000DF90CF90BF90AF909F908F900895209193
:10057000E5033091E6032817390771F49091E403FD
:100580008091E303981741F0E091E403F0E0ED552A
:10059000FC4F808190E008958FEF9FEF08950895BC
:1005A0001F93CF93DF93DC015C968D919C915D97B7
:1005B000009739F421E030E013963C932E93129784
:1005C0003BC05196ED91FC91529750962C915097CB
:1005D000322F30951FB75E964C915E97742F7270D4
:1005E00041FD6095F8944081772311F0422B01C0C2
:1005F00043234083EC012197F1F748E0508160FFED
:1006000002C0522B01C053235083EC012197F1F714
:100610006695415099F78081772319F08323808371
:1006200002C0282B20831FBF5C968D919C915D9703
:100630000197F1F781E090E0DF91CF911F9108954C
:100640002091E5033091E6032817390769F480917A
:10065000E3032091E40390E0805C9F4F821B9109AB
:1006600060E470E00C946A0D80E090E008952091C1
:10067000E5033091E60328173907B9F49091E403B4
:100680008091E303981789F0E091E403F0E0ED55E1
:10069000FC4F80812091E40330E02F5F3F4F2F73A8
:1006A00033272093E40390E008958FEF9FEF0895A0
:1006B00085ED8093BC008091BC0084FDFCCF10923E
:1006C000F603089540913A03262F30E0240F311DA0
:1006D00021323105DCF42091F6032430C9F4FC0109
:1006E00080E090E0861758F430913A032191DC01C4
:1006F000A65EBC4FA30FB11D2C930196F3CF809142
:100700003A03680F60933A0380E0089581E008950A
:1007100082E00895E091FA038091F903E81730F43C
:10072000F0E0E650FD4F808190E008958FEF9FEF5D
:1007300008959091FA038091F903981750F4E92FE6
:10074000F0E0E650FD4F208130E09F5F9093FA0388
:1007500002C02FEF3FEFC90108958091F90390E0A7
:100760002091FA03821B91090895CF92DF92EF92B4
:10077000FF920F931F93CF93DF937C01CB018A01EC
:1007800020918103222389F0EB016B01C40ED51E59
:10079000CC15DD0561F06991D701ED91FC910190D7
:1007A000F081E02DC7011995F3CF642F8BDFC801CD
:1007B000DF91CF911F910F91FF90EF90DF90CF903D
:1007C0000895CF93DF931F92CDB7DEB76983209151
:1007D00081032223D1F02091F703203240F021E061
:1007E00030E0FC013383228380E090E014C08091EC
:1007F000F803E82FF0E0EE57FC4F998190838F5F6C
:100800008093F8038093F70304C061E0CE01019662
:1008100059DF81E090E00F90DF91CF910895CF9361
:10082000FC01C48121E020938103C093A2031092B4
:10083000F8031092F7038385682B8AE395E0C1DF04
:100840009091F703913208F045C08091F603811131
:10085000FCCF82E08093F60381E08093F5038FEF75
:100860008093800310927F0390937E03A2E8B3E00D
:10087000EEE5F3E080E0981721F02D9121938F5F52
:10088000FACF10925D0380915D03CC0FC82BC0930B
:100890005D038091F403813061F41092F403809140
:1008A0005D038093BB008091BC0083FDF8CF85EC95
:1008B00001C085EE8093BC008091F6038230E1F3A5
:1008C000809180038F3F31F080918003803211F05E
:1008D000809180031092F8031092F7031092810325
:1008E000CF9108950F931F93CF938C01C62F97DF5D
:1008F0006C2F6460C80193DF6C2F6B7FC8018FDFA2
:1009000083EC90E00197F1F7CF911F910F9108953B
:10091000089580E090E008950E94BC0F1F920F920E
:100920000FB60F9211240BB60F922F933F934F9354
:100930005F936F937F938F939F93AF93BF93EF9347
:10094000FF9380E094E0F4DCFF91EF91BF91AF91D1
:100950009F918F917F916F915F914F913F912F91D7
:100960000F900BBE0F900FBE0F901F9018951F9207
:100970000F920FB60F9211240BB60F922F938F93F5
:100980009F93EF93FF93E0911004F0911104808105
:10099000E0911604F091170482FD12C090818091BD
:1009A00019048F5F8F7320911A04821751F0E09120
:1009B0001904F0E0E050FC4F958F8093190401C0BA
:1009C0008081FF91EF919F918F912F910F900BBE9E
:1009D0000F900FBE0F901F9018951F920F920FB699
:1009E0000F9211240BB60F922F933F934F935F9367
:1009F0006F937F938F939F93AF93BF93EF93FF93E7
:100A00008DE994E095DCFF91EF91BF91AF919F91BB
:100A10008F917F916F915F914F913F912F910F90A7
:100A20000BBE0F900FBE0F901F9018951F920F9244
:100A30000FB60F9211240BB60F922F938F939F93A3
:100A4000EF93FF93E091AD04F091AE048081E091CB
:100A5000B304F091B40482FD12C090818091B60479
:100A60008F5F8F732091B704821751F0E091B60425
:100A7000F0E0E356FB4F958F8093B60401C0808170
:100A8000FF91EF919F918F912F910F900BBE0F903F
:100A90000FBE0F901F901895362F90E0FC01E85F75
:100AA000FE4F4491FC01EE51FE4F2491FC01E456AF
:100AB000FE4F9491992309F46CC0442309F455C066
:100AC00050E0FA013197E231F10508F04EC0882775
:100AD000EE58FF4F8F4F0C949F0D809180008F77C1
:100AE00007C0809180008F7D03C080918000877F48
:100AF000809380003AC084B58F7702C084B58F7D23
:100B000084BD33C08091B0008F7703C08091B00066
:100B10008F7D8093B00029C0809190008F7707C0AF
:100B2000809190008F7D03C080919000877F80939B
:100B300090001BC08091A0008F7707C08091A0001B
:100B40008F7D03C08091A000877F8093A0000DC09F
:100B5000809120018F7707C0809120018F7D03C095
:100B600080912001877F80932001E92FF0E0EE0F34
:100B7000FF1FEE57FE4FA591B4919FB7F894311126
:100B800004C08C912095282302C0EC912E2B2C932D
:100B90009FBF08951F920F920FB60F9211242F93AB
:100BA0003F938F939F93AF93BF938091E80390916E
:100BB000E903A091EA03B091EB033091E70323E04E
:100BC000230F2D3720F40196A11DB11D05C026E885
:100BD000230F0296A11DB11D2093E7038093E80324
:100BE0009093E903A093EA03B093EB038091EC03A5
:100BF0009091ED03A091EE03B091EF030196A11D3A
:100C0000B11D8093EC039093ED03A093EE03B0939A
:100C1000EF03BF91AF919F918F913F912F910F90D3
:100C20000FBE0F901F9018951F920F920FB60F9244
:100C300011240BB60F922F933F934F935F936F93B3
:100C40007F938F939F93AF93BF93EF93FF93E09125
:100C5000E503F091E603309709F451C0968DA6851F
:100C6000B785858591FF04C09C91892329F447C0ED
:100C70009C91892309F043C0A389B4899C918589FB
:100C8000809589238C93868997890197F1F7608DE8
:100C9000718DA685B785558538E020E0CB01019799
:100CA000F1F7822F90E095958795282F4C91452359
:100CB00009F02068315091F7868D81FD2095809153
:100CC000E30390E001968F7399273091E40338177E
:100CD00049F0A091E303B0E0AD55BC4F2C93809355
:100CE000E30303C0868D8160868F828D938D01978B
:100CF000F1F7A389B4899C918589892B8C93FF9105
:100D0000EF91BF91AF919F918F917F916F915F9183
:100D10004F913F912F910F900BBE0F900FBE0F90F0
:100D20001F9018950F931F93CF93DF938C01C62FBD
:100D3000D42F607F642BD6DD80E1C89FB0011124E1
:100D40006D2BC801DF91CF911F910F91CBCD41E069
:100D5000E9DF81E090E008951F920F920FB60F92A5
:100D600011240BB60F922F933F934F935F936F9382
:100D70007F938F939F93AF93BF93EF93FF93809154
:100D8000B900887F803609F49CC068F5883209F480
:100D90005BC090F4803109F454C038F4882309F41E
:100DA000F6C0883009F44DC0F5C0883109F44CC054
:100DB000803209F45DC0EEC0803409F468C048F4A4
:100DC000803309F455C0883309F0E4C08093800370
:100DD000D8C0803509F44FC0883509F45DC0883427
:100DE00009F0D8C0D6C0883909F4C7C0A8F488373C
:100DF00009F467C038F4883609F463C0803709F411
:100E000060C0C8C0883809F4B8C0803909F45FC030
:100E1000803809F0BFC05BC0803B09F486C038F45D
:100E2000803A09F466C0883A09F47FC0B3C0803CB8
:100E300009F4A7C0883C09F4A4C0883B09F48AC01F
:100E4000A9C080915D0310C090917F0380917E03C3
:100E5000981770F5E0917F0381E08E0F80937F03F8
:100E6000F0E0E25AFC4F80818093BB0085EC86C0A5
:100E7000809380038EC0E0917F0381E08E0F80938A
:100E80007F038091BB00F0E0E25AFC4F8083909199
:100E90007F0380917E036EC0E0917F0381E08E0F1F
:100EA00080937F038091BB00F0E0E25AFC4F808387
:100EB0008091F50381116DC081E08093F40384EA91
:100EC00061C083E08093F60310925C03CFCF8091E2
:100ED0005C03803208F051C0E0915C0381E08E0F2A
:100EE00080935C038091BB00F0E0E45CFC4F808366
:100EF000BDCF85EC8093BC001092F60380915C031B
:100F0000803230F4E0915C03F0E0E45CFC4F10824E
:100F100060915C0370E0E091F003F091F1038CE3E9
:100F200093E0199510925C0335C084E08093F6033A
:100F300010923B0310923A03E091F203F091F30315
:100F4000199580913A03811105C081E080933A039D
:100F500010921A03E0913B0381E08E0F80933B03D4
:100F6000F0E0E65EFC4F80818093BB0090913B03F4
:100F700080913A03981708F479CF85E88093BC00F4
:100F800009C085EC8093BC001092F60303C0109258
:100F900080038EDBFF91EF91BF91AF919F918F9175
:100FA0007F916F915F914F913F912F910F900BBE69
:100FB0000F900FBE0F901F901895CF92DF92EF9277
:100FC000FF920F931F93CF93DF936C017A018B01F4
:100FD000C0E0D0E0CE15DF0581F0D8016D918D0124
:100FE000D601ED91FC910190F081E02DC60119959B
:100FF000892B11F02196EECF7E01C701DF91CF91B1
:101000001F910F91FF90EF90DF90CF900895FC011A
:10101000A089B18982E08C93A485B5851C92A685B0
:10102000B78580E18C93108EA489B58986E08C9376
:10103000A289B3898C9180618C93A289B3898C91A8
:1010400088608C93A289B3898C9180688C93028884
:10105000F389E02D80818F7D80830895FC01448198
:1010600055816081718187E396E0A7CFCF93DF93AD
:10107000CDB7DEB728970FB6F894DEBF0FBECDBF51
:1010800098E0E6E0F2E0DE01119601900D929A956B
:10109000E1F790913F06961710F46FEF690FFE018C
:1010A0003196E60FF11DE60FF11D6081680F606853
:1010B00040E087E396E028960FB6F894DEBF0FBEB7
:1010C000CDBFDF91CF912ECE40E061E087E396E087
:1010D00029DE8BE39FE10197F1F708956115710512
:1010E00079F0FB0101900020E9F73197AF01461B31
:1010F000570BDC01ED91FC910280F381E02D1994F6
:1011000080E090E008958F929F92AF92BF920F93EC
:101110001F93CF93DF93CDB7DEB7A1970FB6F894A7
:10112000DEBF0FBECDBF19A2423008F44AE08E01E7
:101130000F5D1F4F842E912CA12CB12CA501940181
:10114000DCD4E62FB901CA0101501109EA3014F4C8
:10115000E05D01C0E95CD801EC93232B242B252B07
:1011600069F7B8018DE994E0B9DFA1960FB6F8945C
:10117000DEBF0FBECDBFDF91CF911F910F91BF900A
:10118000AF909F908F900895CF93DF9340E1BBDFA6
:10119000EC0163E672E08DE994E0A0DF8C0F9D1F07
:1011A000DF91CF9108959ACF789484B5826084BD01
:1011B00084B5816084BD85B5826085BD85B581605B
:1011C00085BD80916E00816080936E0010928100D9
:1011D0008091810082608093810080918100816094
:1011E0008093810080918000816080938000809155
:1011F000B10084608093B1008091B00081608093E1
:10120000B000809191008260809391008091910064
:101210008160809391008091900081608093900024
:101220008091A10082608093A1008091A1008160E3
:101230008093A1008091A00081608093A0008091A4
:10124000210182608093210180912101816080933E
:1012500021018091200181608093200180917A009A
:10126000846080937A0080917A00826080937A0013
:1012700080917A00816080937A0080917A00806802
:1012800080937A001092C1001092FA031092F90331
:101290001092F8031092F7031092F60381E0809306
:1012A000F5031092F40361E084E1F6DB61E085E18F
:1012B000F3DB8091B9008E7F8093B9008091B900F3
:1012C0008D7F8093B90088E48093B80085E4809393
:1012D000BC0087E491E09093F3038093F20388E4E9
:1012E00091E09093F1038093F00310923C0680917B
:1012F0004106823018F098E090933C0680933F06B8
:1013000062E370E080E090E0FAD86091420687E303
:1013100096E085DA68EE73E080E090E0F0D860E374
:1013200087E396E0DFDACBE4D6E4CE010197F1F76C
:1013300060E387E396E0D6DA2197F1F760E387E38D
:1013400096E0D0DA83E592E00197F1F760E287E377
:1013500096E0C8DA60913C06606240E087E396E080
:10136000E1DC84E080933D0640E06CE087E396E0BA
:10137000D9DCAADE82E080933E0640E066E087E3A7
:1013800096E0D0DC40E062E087E396E0CBDC8BE3E4
:101390009FE10197F1F788E08093420660E087E3E0
:1013A00096E03DDA91DE8DE994E031DE64EF71E0A4
:1013B00080E090E0A4D860E572E08DE994E08EDEF4
:1013C00063E672E08DE994E089DE80E094E01FDE60
:1013D00064EF71E080E090E092D866E672E080E031
:1013E00094E0E1DE71DE60E080E040DE81EB95E0DC
:1013F00035DE61E080E03ADE87EB95E02FDE62E0EB
:1014000080E034DE8DEB95E029DE63E080E02EDEC7
:1014100083EC95E023DE809133069091340690931F
:10142000360680933506109234061092330660E03B
:1014300088E01CDE60913D06862F816080933D062A
:10144000696040E087E396E06DDC8DE994E00E94FE
:101450007A01892BB1F08DE994E00E945801C82FE0
:101460008093FF03682F8DE994E00E94BA016C2FEE
:1014700080E094E00E94BA0141E06C2F87E396E09F
:1014800051DC80E094E00E947A01892B09F4B9C014
:1014900080E094E00E9458018093FF0341E0682FB0
:1014A00087E396E03FDC69E672E08DE994E07BDE5D
:1014B0006091FF038DE994E00E94BA0163E672E057
:1014C0008DE994E00BDE8091FF0390ED980F9B3047
:1014D0001CF49093FF0303C087538093FF036FE7CF
:1014E00072E08DE994E05FDE6091FF03062E000C50
:1014F000770B880B990B40E106DE63E672E08DE91D
:1015000094E0ECDD8091FB039091FC03A091FD033E
:10151000B091FE0324E0880F991FAA1FBB1F2A95D4
:10152000D1F78093FB039093FC03A093FD03B0934A
:10153000FE0362E972E08DE994E035DE6091FB0321
:101540007091FC038091FD039091FE031DDE2091BC
:10155000FF032F708091FB039091FC03A091FD038A
:10156000B091FE03822B8093FB039093FC03A09326
:10157000FD03B093FE0363EA72E08DE994E013DEAD
:101580006091FB037091FC038091FD039091FE0339
:10159000FBDD8091FB039091FC03A091FD03B091D2
:1015A000FE039927AA27BB278093FB039093FC0394
:1015B000A093FD03B093FE0362EB72E08DE994E02B
:1015C000F2DD6091FB037091FC038091FD0390912B
:1015D000FE03DADD8091FB039091FC03A091FD03F3
:1015E000B091FE038B3A9105A105B10529F462EC97
:1015F00072E087E396E0D7DD64E672E08DE994E07F
:10160000D2DD61E070E080E090E00E947F020E9405
:1016100027021BCFCF93DF93C3E3D6E06A978A8973
:101620009B8941D38C859D853ED38E819F813BD301
:101630008881998138D385E0C13BD80779F782E466
:1016400092E090934406809343068091E503909145
:10165000E6038354964071F4E0915606F0915706E4
:101660009081809158068095892380831092E603AB
:101670001092E503DF91CF910895EF92FF920F93BF
:101680001F93CF93DF93EC017B018A0188819981BD
:10169000009729F02A813B8124173507E8F4B80127
:1016A0006F5F7F4F89D3009759F0998388831B839D
:1016B0000A832C813D81232B79F4FC0110820CC01C
:1016C00088819981009709F0EED2198218821D82D3
:1016D0001C821B821A8206C01D830C83B70188817D
:1016E000998157D4CE01DF91CF911F910F91FF9037
:1016F000EF900895FC0111821082138212821582EC
:10170000148240E050E065E672E0B7CF0F931F937C
:10171000CF93DF93109203041092020488EE93E0BB
:10172000A0E0B0E08093040490930504A093060425
:10173000B093070422E132E03093010420930004C7
:1017400045E351E050930D0440930C0444E351E011
:1017500050930F0440930E0440E351E05093110462
:101760004093100441E351E050931304409312045A
:1017700042E351E0509315044093140446E351E0D2
:1017800050931704409316041092190410921A04EF
:1017900010921B0410921C041092A00410929F043B
:1017A0008093A1049093A204A093A304B093A404F3
:1017B00030939E0420939D0425EC30E03093AA04DE
:1017C0002093A90424EC30E03093AC042093AB04C4
:1017D00020EC30E03093AE042093AD0421EC30E0F7
:1017E0003093B0042093AF0422EC30E03093B20485
:1017F0002093B10426EC30E03093B4042093B3047A
:101800001092B6041092B7041092B8041092B90462
:1018100010923D0510923C0580933E0590933F0544
:10182000A0934005B093410524E232E030933B059C
:1018300020933A051092460610924506809347067B
:1018400090934806A0934906B0934A0682E492E03A
:10185000909344068093430610925A0610925906BC
:1018600010925C0610925B0610925E0610925D0666
:101870001092600610925F06609161066E7F6D7F28
:10188000609361066695617081E0682705D9E3EE93
:10189000F1E02491EDE9F1E08491882399F090E062
:1018A000880F991FFC01E859FE4FA591B491FC01E6
:1018B000EE57FE4F859194918FB7F894EC91E22BFF
:1018C000EC938FBFE3EEF1E0E491E0935306EDE992
:1018D000F1E0E491F0E0EE0FFF1FEE57FE4F85912F
:1018E0009491909355068093540602EE11E0F8010E
:1018F0002491CCE9D1E0FE0184918823C9F090E0E5
:10190000880F991FFC01E859FE4FA591B491FC0185
:10191000EE57FE4F459154913FB7F8949C91822F1A
:10192000809598239C93FA019081892380833FBFFF
:101930008091610681FD03C061E080E0ADD8109226
:101940004F06F801049100935006FE01C491EC2F5C
:10195000F0E0EE0FFF1FE25BFE4F859194919093B4
:1019600052068093510610923A061092390686E389
:1019700092E0909338068093370687E280933B0687
:1019800084E18093400684E08093410610924206F1
:10199000C1EBD5E003E316E0CE01ACDECE01069646
:1019A000A9DECE010C96A6DECE014296A3DE6A9693
:1019B0000C171D0789F71092CA051092C90581E01E
:1019C00090E09093E4058093E30582E090E09093AB
:1019D000FE058093FD0583E090E0909318068093C8
:1019E000170684E090E0909332068093310648E039
:1019F00050E06BED72E081EB95E03FDE4AE050E0B5
:101A000064EE72E087EB95E038DE4AE050E06FEE7E
:101A100072E08DEB95E031DE4AE050E064EE72E07A
:101A200083EC95E02ADE8BEA9DECAFEEB6E0809386
:101A3000460590934705A0934805B09349058093C8
:101A40004E0590934F05A0935005B0935105809398
:101A5000560590935705A0935805B0935905809368
:101A60005E0590935F05A0936005B0936105809338
:101A7000680590936905A0936A05B0936B05809300
:101A8000720590937305A0937405B09375058093C8
:101A90007E0590937F05A0938005B0938105809388
:101AA0008C0590938D05A0938E05B0938F05809340
:101AB0009C0590939D05A0939E05B0939F058FEF85
:101AC00080935A058EEF80936205DF91CF911F912D
:101AD0000F91089597FB072E16F4009406D077FD1A
:101AE00008D035D007FC05D03EF4909581959F4FE6
:101AF0000895709561957F4F0895A1E21A2EAA1B53
:101B0000BB1BFD010DC0AA1FBB1FEE1FFF1FA217AD
:101B1000B307E407F50720F0A21BB30BE40BF50BAA
:101B2000661F771F881F991F1A9469F76095709533
:101B3000809590959B01AC01BD01CF010895EE0FFA
:101B4000FF1F881F8BBF0790F691E02D1994AA1BE9
:101B5000BB1B51E107C0AA1FBB1FA617B70710F098
:101B6000A61BB70B881F991F5A95A9F780959095CA
:101B7000BC01CD0108950F931F93CF93DF93823063
:101B8000910510F482E090E0E0916406F091650622
:101B900020E030E0A0E0B0E0309719F140815181C1
:101BA0000281138148175907C8F08417950769F413
:101BB000109731F012960C93129713961C9327C02E
:101BC000009364061093650622C02115310519F0B3
:101BD0004217530718F49A01BD01EF01DF01F80124
:101BE000DBCF21153105F9F0281B390B24303105E5
:101BF00080F48A819B816115710521F0FB0193833B
:101C0000828304C09093650680936406FE01329639
:101C100044C0FE01E20FF31F8193919322503109DA
:101C2000398328833AC02091620630916306232BC2
:101C300041F4209102023091030230936306209315
:101C4000620620910002309101022115310541F414
:101C50002DB73EB74091040250910502241B350B6D
:101C6000E0916206F0916306E217F307A0F42E1BE1
:101C70003F0B2817390778F0AC014E5F5F4F2417F0
:101C8000350748F04E0F5F1F50936306409362067E
:101C90008193919302C0E0E0F0E0CF01DF91CF911A
:101CA0001F910F910895CF93DF93009709F481C09E
:101CB000FC01329713821282A0916406B0916506EE
:101CC000109781F420813181820F931F2091620649
:101CD000309163062817390751F5F0936306E093B6
:101CE000620667C0ED0120E030E0CE17DF0740F468
:101CF0004A815B819E0141155105F1F0EA01F5CF62
:101D0000D383C28340815181840F951FC817D9079F
:101D100059F488819981840F951F0296918380835D
:101D20008A819B81938382832115310529F4F09365
:101D30006506E09364063DC0E901FB83EA834991AF
:101D40005991C40FD51FEC17FD0761F48081918173
:101D5000840F951F0296E90199838883828193817C
:101D60009B838A83E0E0F0E012968D919C9113971B
:101D7000009719F0FD01DC01F7CF8D919C9111972F
:101D80009D012E5F3F4F820F931F2091620630917D
:101D900063062817390769F4309729F4109265060D
:101DA0001092640602C013821282B0936306A0935D
:101DB0006206DF91CF9108956F927F928F929F92EA
:101DC000AF92BF92CF92DF92EF92FF920F931F9349
:101DD000CF93DF93009781F4CB01DF91CF911F91D7
:101DE0000F91FF90EF90DF90CF90BF90AF909F90BA
:101DF0008F907F906F90BFCEFC01E60FF71F9C0184
:101E000022503109E217F30708F4A5C0EC01D9010B
:101E10000D911C91119706171707A8F005301105B1
:101E200008F497C0C80104978617970708F491C073
:101E300002501109061B170B019311936D937C93AC
:101E4000CF0131DF86C05B01A01AB10A4C01800EC0
:101E5000911EA0916406B0916506612C712CE12C55
:101E6000F12C109709F446C08D919C911197A815FB
:101E7000B905B1F56C0142E0C40ED11CCA14DB04F3
:101E800078F14C018A189B08640142E0C40ED11C11
:101E90001296BC9012971396AC91B5E0CB16D10474
:101EA00040F0B282A38391828082D9016D937C93AA
:101EB00009C00E5F1F4F800F911FF901918380832E
:101EC000EB2DFA2FE114F10431F0D7011396FC93B6
:101ED000EE9312973EC0F0936506E093640639C016
:101EE0006816790608F43C017D0112960D90BC91AC
:101EF000A02DB7CF8091620690916306881699064F
:101F0000E1F466167706C8F4809100029091010210
:101F1000009741F48DB79EB740910402509105029D
:101F2000841B950BE817F907B0F4F0936306E09370
:101F30006206F901718360830CC0CB011CDE7C0159
:101F4000009749F0A801BE011BD0CE01ACDEC7014D
:101F500004C0CE0102C080E090E0DF91CF911F91DC
:101F60000F91FF90EF90DF90CF90BF90AF909F9038
:101F70008F907F906F90089581E090E0F89410C06A
:101F8000FB01DC0102C001900D9241505040D8F796
:101F90000895FB01DC0101900D920020E1F7089506
:101FA00011E0C5E1D1E000E005C0802FFE01C7DDF2
:101FB0002196011DC631D10780E00807B1F7F894DA
:021FC000FFCF51
:101FC200000066068000000040001400540000007B
:101FD2000000BA01DD07490106027A0158016C01CD
:101FE20000000000E103B5038904CF02AD039903A9
:101FF2008A0300000000A706DD07890488040000A8
:102002000000D002DD078904CF0220033703B702A4
:10201200436F6E6E656374696F6E20537461727480
:102022006564000D0A0041540028737472696E677A
:1020320029696E636F6D696E67427974653A00282B
:1020420048657829696E636F6D696E674279746558
:102052003A00287368696674656429486561646535
:10206200723A00286F722765642948656164657257
:102072003A0028616E642765642948656164657267
:102082003A006675636B7965736675636B79657320
:102092006675636B7965733132330053656E642004
:1020A20041543A007C20207C20207C20207C007C33
:0A20B2002D2D202D2D202D2D7C005A
:00000001FF
